:020000021000EC
:10B0000000800020F5FA01003DFB01003FFB01003C
:10B010000000000000000000000000000000000030
:10B0200000000000000000000000000041FB0100E3
:10B03000000000000000000043FB010045FB010090
:10B0400047FB010047FB01002D200200C10B02005D
:10B05000D10B02000000000061100200FDFE0100A3
:10B0600047FB010047FB010047FB010047FB0100D4
:10B0700047FB010047FB010047FB010047FB0100C4
:10B0800047FB01001D3D020047FB010047FB01009B
:10B0900047FB010061FF0100751F020047FB010033
:10B0A00047FB010047FB010000000000000000001A
:10B0B0000000000000000000000000000000000090
:10B0C00008B5054B054803331B1A062B03D9044B5F
:10B0D000002B00D0984708BDD0370020D037002083
:10B0E000000000000648074908B5091A8910CB0F6F
:10B0F0005918491003D0044B002B00D0984708BDC5
:10B10000D0370020D03700200000000010B5074CD9
:10B110002378002B09D1FFF7D3FF054B002B02D07A
:10B12000044800E000BF0123237010BDE037002079
:10B1300000000000C0D9020008B5094B002B03D065
:10B140000848094900E000BF08480368002B02D105
:10B15000FFF7C8FF08BD064B002BF9D09847F7E76B
:10B1600000000000C0D90200E4370020D0370020E2
:10B1700000000000144B002B00D1124B9D464022D2
:10B1800092029A1A924600218B460F461148124AA3
:10B19000121A09F015F90D4B002B00D098470C4BF3
:10B1A000002B00D098470020002104000D000B4820
:10B1B00008F030FF09F024F82000290004F018FC02
:10B1C00008F040FF000008000080002000000000A0
:10B1D000E5F90100E0370020E84300207D4102004E
:10B1E0007047704708B50368002B01D0081C9847CA
:10B1F00008BD08B50368002B01D0081C984708BD9E
:10B2000008B50B68984708BD08B50368002B01D046
:10B21000081C984708BD08B50368002B01D0081C1E
:10B22000984708BD08B50368002B01D0081C984753
:10B2300008BD704738B50023C356051C0C1C0133EC
:10B2400004D109480949202207F0D8FA0021012336
:10B25000A0226956D2058B40002C02D0A121C90042
:10B2600000E00349535038BD06CB02001ECB02005C
:10B270000C05000070B5194C88B0201C04F09CFD32
:10B2800041424141201CFFF7D5FF09F0F1F8144B72
:10B29000144CDE8B144B2070186800F06FFC0022F9
:10B2A00003680092311C221CDD680123A8470F4867
:10B2B00009F0CCF81A2202A80D4904F08BF90D4CC4
:10B2C000201C04F079FD41424141201CFFF7B2FFF0
:10B2D000094809F0BBF808B070BDC046C13800206D
:10B2E00030390020B9380020BC3800205ECB020085
:10B2F000A4380020C03800206CCB020038B5134BB6
:10B300004288DB8B9A4220D10189041C01290BD190
:10B31000C3680F481978FFF78DFFE3680D481B7865
:10B32000002B10D00C480EE00C4809F08FF80025D7
:10B3300023899D4206DAE3680948595D09F086F8D9
:10B340000135F5E7074809F081F838BDFC370020E2
:10B35000B838002079CB020082CB02008CCB0200EF
:10B36000B2CB0200DDCB020010B5041C04F0BCFB24
:10B37000201C10BDF7B5041CC07F0126C5181D2D6B
:10B380001DDC0F1C01929919321C20181D1C09F09C
:10B3900017F8E07F321C8019C0B2E077391C201802
:10B3A00009F00EF8E07F2A1C80190026C0B2E07771
:10B3B0000199201808F0C6FFE37FED18E577301CEF
:10B3C000FEBD0000F7B58E1EF6B2041C0191089D6B
:10B3D000132E22D80120071CB7403E1C254F3E42A9
:10B3E0001BD0E17FCE1861181F2E41DC681C814202
:10B3F00003D90878C8540139F8E70021C8B2984247
:10B4000004D2565C681886700131F7E72A789A18DA
:10B410002A70E27F9B18E3770DE02E78771EFFB24B
:10B42000BB420AD10021C8B2984204D2545C6818C9
:10B4300084700131F7E700201AE0E07FC01BC018DC
:10B440008446614601201F2912DCB81C2818E57FBC
:10B450006119884205D20178C51B023D297001306F
:10B46000F5E7F643AD190199201CE577FFF782FF58
:10B47000FEBDC0463F000800F7B50024C67FB442B9
:10B480000ED205196F788F4205D1002D08D0009596
:10B49000FFF798FF06E0055D01356419E4B2EEE7B9
:10B4A000FFF768FFFEBD011C08C910B5DB6F041C67
:10B4B0009847002804D1012258342378134323707D
:10B4C00010BD08B5002000F00DFB00F047FBFFF7B2
:10B4D000EAFF08BD70B5061C8AB00A360C1C222291
:10B4E000311C051C01A808F02DFF6B460121DA1C58
:10B4F00001A80B1C1470FFF7BFFF041E0DD12A1CFE
:10B500002B6834329B6F281C01A99847041E04D174
:10B51000301C01A9222208F015FF201C0AB070BDC2
:10B52000F0B5051C161C0F1C8DB00A35291C2222F3
:10B53000041C03A8019308F005FF321C03A8391C62
:10B54000019BFFF799FF061E0DD1221C23683432A0
:10B550009B6F201C03A99847061E04D1281C03A931
:10B56000222208F0EFFE301C0DB0F0BDF0B50379DB
:10B5700089B005680093002B74D1281C00F0EEFA06
:10B5800003AC00990C220190201C08F019FF142034
:10B5900004F09EFA344B221C0393031CC2CAC2C39C
:10B5A000324B019EC360009BA43603613368002BBD
:10B5B00000D003613060281C00F0E0FA00210C226A
:10B5C000061C201C08F0FCFE142004F081FA284B15
:10B5D0000393031C86CC86C3264BC3600023036100
:10B5E000B369002B00D00361B061281C00F0B6FAEB
:10B5F0000621FFF76FFF281C00F0B0FA002303714B
:10B60000281C00F0ABFA09211B4A0523FFF788FF2D
:10B61000281C00F0A3FA0321184A0223FFF780FF39
:10B62000281C00F09BFA0368041C9B689847031CC5
:10B630006420834203D92368201C9B689847FA231F
:10B640009B0058430E490EF043F8E080281C00F0A0
:10B6500095FA03680B491B689847281C00F07EFA8E
:10B66000FFF721FF09B0F0BDC3B4010025B201000E
:10B67000FDB2010017B2010015CC020004CB02009C
:10B6800071020000D83900200023021C10B503709D
:10B690001132431C00241C7001339342FAD14182C1
:10B6A00010BD0000F8B5041C151C1E1C0B78471CAF
:10B6B00003704B8A102243820131381C08F042FE8D
:10B6C00002226561012300251643A21823836383A8
:10B6D0002577E583FE77D377069B0C266362231CD0
:10B6E000201C079A28335D709D70291C1A702C301D
:10B6F000321C08F065FE201C064BE563A363291C81
:10B70000321C403008F05CFE034B2565201CE364CE
:10B71000F8BDC046F3B10100E5B1010013B5042244
:10B72000019101A9041C08F00DFE019B034A591E5A
:10B730008B415B421A40E26013BDC04601B201007A
:10B74000F0B5414897B008F081FE8020C00507F0B1
:10B750008BF93E4C0121201CFFF76CFD07F066F8C9
:10B76000201C04F029FB3A4F011C381CFFF762FD36
:10B7700007F08AF8374D0C21281C03F0B3FE061E93
:10B780002AD0354808F062FE0021381CFFF752FD30
:10B79000FE20800507F068F9281C03F0F9FE281C3C
:10B7A000012103F05FFE07AD2C4B00210C22281C69
:10B7B0001F6808F005FE2A4B0CAC07932A1C231CBB
:10B7C00043CA43C3274B381CE3600023211C236179
:10B7D00000F04EF9214E07E0234808F037FE201C08
:10B7E000311CFFF727FDFEE7306800F0A7F90028BD
:10B7F000FAD0201C06F0D2FF1C4B12A800210C939B
:10B80000FFF78CFF03A81A49FFF788FF059B03A9E0
:10B810000822281C0193AB6008F094FD069B291CAC
:10B82000EB60AB6812A82362082208F08BFDEB687E
:10B83000201C63620F4906F079FF0F4808F006FEEE
:10B84000306800F0ABF9F8E7B5CB0200C038002053
:10B85000C1380020A4380020E0CB0200BC38002012
:10B860006DB5010009B20100F2CB020000D3020065
:10B8700075B2010080841E00FECB020010B5041CCE
:10B8800004F032F9201C10BDF0B500245B4889B0EB
:10B89000221C1521047007F043F859481621012293
:10B8A000047007F03DF8574817210122047007F093
:10B8B00037F8554D1E21281C072206F037FE534E3F
:10B8C000281C321C524908F06FFB0121514F2B1CE0
:10B8D000381C4942282203F0A1FD321C381C4E4975
:10B8E00008F062FB4D4B03AE1988301CFFF7CCFE0D
:10B8F0004B4D311C2A1C1023009401944948FFF73A
:10B90000D1FEA121301C0902FFF7BEFE2A1C311C0A
:10B910001023009401944448FFF7C4FE301C4349AF
:10B92000FFF7B2FE2A1C311C1023009401944048FA
:10B93000FFF7B8FE301C3F49FFF7A6FE2A1C311C5A
:10B940000094019410233C48FFF7ACFE3B4B301CA5
:10B950001988FFF799FE3A4D33786F1C2B70738A64
:10B96000381C6B820D236B44191C102208F0EAFC72
:10B97000344B08226B610123FA77AA1C2B836B835B
:10B980002B77D3772B1C28331C702B1C29331C706E
:10B990002B1C0C27281C2A33EC836C621C70211C86
:10B9A0003A1C2C3008F00CFD281C274B3A1CEC6389
:10B9B000AB63211C403008F003FD244B2C65EB6485
:10B9C000234B301C1988FFF75FFE224D337810227D
:10B9D0002B70738A681C6B820D236B44191C08F052
:10B9E000B1FC05232B751C4B201CAB61AC8300F014
:10B9F00079F81A4B186009B0F0BDC046B83800207D
:10BA0000C1380020C0380020C4380020F82E0020A3
:10BA1000E1B10100A438002033B20100122F002050
:10BA2000B938002030390020F839002010A100007A
:10BA30005038002011A1000084390020102F002070
:10BA4000FC3700202C390020F3B10100E5B10100E2
:10BA5000142F0020D8390020FC2E0020BC380020F4
:10BA6000704708B50368002B01D0081C984708BD33
:10BA7000021C0B1CF0B5126889B0019203AA151CB8
:10BA80001E1C4068016889688C4692CE92C5DB68AE
:10BA90000199D36000231361E04709B0F0BD0000B5
:10BAA00070B5041C002521600E1C4560291C08305F
:10BAB0000C2208F085FC094BA5616361AE420AD1F6
:10BAC000074D2B68002B02D102F084FD286023680B
:10BAD0009B00EB586360201C70BDC04663BA010038
:10BAE0006C3A002070B500280DD1114C2668002E4C
:10BAF00007D11C3003F0ECFF051C311CFFF7D0FF11
:10BB00002560206812E001260A4D0B4C2B68334259
:10BB10000BD1281C03F0A6FF002806D0201C311CE6
:10BB2000FFF7BEFF281C03F0B9FF201C70BDC04604
:10BB30004C3A0020703A0020503A0020436810B57B
:10BB4000041C002B02D1044806F0C0FE60680368A4
:10BB5000DB68984710BDC04648CC0200436810B56A
:10BB6000041C002B02D1044806F0B0FE6068036894
:10BB70009B69984710BDC04648CC0200436810B589
:10BB8000041C002B02D1044806F0A0FE6068036884
:10BB90001B6A984710BDC04648CC0200436810B5E8
:10BBA000041C002B02D1044806F090FE6068036874
:10BBB0005B6B984710BDC04648CC020007B5021C1D
:10BBC00083680832002B07D0044B002B04D001906F
:10BBD000436901A9101C984707BDC04661BA01001E
:10BBE000F7B5FA26B6007143009308AB1B78041C26
:10BBF000081C1549171C01930DF06AFD85B2301C15
:10BC00002580784310490DF063FD6B461B8880B298
:10BC1000A3806B461B796080A371032D01D8042398
:10BC2000238080232288DB019A4200D923800328C5
:10BC300001D80422628062889A4202D98023DB0103
:10BC40006380201CFEBDC04671020000704708B52D
:10BC5000081CFFF747FFFFF7B1FF08BD93DF7047F0
:10BC600094DF704708B50368002B01D0081C984783
:10BC700008BD08B50368002B01D0081C984708BD13
:10BC800038B50A68036893422DD103790C1C051C52
:10BC9000002B0CD10B79002B25D1C28ACB8A9A427A
:10BCA00021D12B7E227E53405B060DD01BE0012B61
:10BCB00019D10B79012B16D105300531102208F06E
:10BCC00019FB0028EDD00EE06A8B638B9A420AD1F3
:10BCD000EB69E269934206D12B8C208C181A424200
:10BCE0004241D0B200E0002038BD70B5061C0D1CEA
:10BCF000041CE436201C291CFFF7C2FF002802D1D7
:10BD00004C34B442F6D170BD07B501AB1980191C93
:10BD10005A80FFF7A3FF032310280CD003D8002379
:10BD2000984208D006E00523112804D0034A013BBD
:10BD3000904200D00B23181C0EBDC04602300000FC
:10BD400007B501AB1980191C5A80FFF789FF03233F
:10BD500010280FD006D8002398420BD006330828AD
:10BD600008D006E00523112804D0034A013B904285
:10BD700000D00B23181C0EBD0230000070B500254A
:10BD8000041C291C20C0FFF77FFC0C26201C291C4A
:10BD9000321C25766583A583E5832584243008F04D
:10BDA0000FFB201C064B65632363291C321C3830B3
:10BDB00008F006FB034BA564201C636470BDC046FD
:10BDC00065BC010073BC010010B5041CFFF7D6FF71
:10BDD000201C4C30FFF7D2FF201C9830FFF7CEFF1D
:10BDE000201C10BDF8B50D1C041C171C1E1C0B6874
:10BDF000102203600B790371CB8A0531C3820530B1
:10BE000008F0A0FA2B7E3A1C23766B8B6383AB8BF6
:10BE1000A383EB8BE3832B8C2384231C243323CA3F
:10BE200023C3FB6800222363231C311C6263383365
:10BE3000A1C9A1C3F368201C6364A264F8BD70B5F6
:10BE40008AB0041C0190038C0E1C0168132003AD02
:10BE5000AB8013780391AB71538A511C6844102254
:10BE60002B8308F06FFA201C6E8302952430236B1D
:10BE700001A998470AB070BD07B5031C6A46009037
:10BE8000117138305B6C6946984707BDF0B50C1CE2
:10BE90000B68A9B002930B79161C02AA1371CB8A06
:10BEA000501D0531D382102208F04CFA237E02AADD
:10BEB0001376638B5383A38B9383E38BD383238C7E
:10BEC0001384221C0BAB243223CA23C30025236B0B
:10BED0000F950E93083210AB83CA83C3636C15A809
:10BEE00013931495FFF74AFF15A9201C222208F08E
:10BEF00029FA231C1EAA243383CA83C3219B6563AA
:10BF000001932363231C23AA383383CA83C3269B4C
:10BF1000A564636402A8311CFFF7AEFF29B0F0BD31
:10BF200030B5041C97B003A8FFF728FF201C03A915
:10BF3000FFF7A6FE051E19D00F9B226B01939342BB
:10BF400013D1211C0CA824310C2208F0D3F90028AD
:10BF50000BD1149B626C934207D1211C11A838317C
:10BF60000C2208F0C7F9002800D00025281C17B0C3
:10BF700030BD70B5051C0E1C041CE435201C311CA2
:10BF8000FFF77EFE002806D0201CFFF7C9FF00281F
:10BF900001D1201C03E04C34AC42EFD1002070BD35
:10BFA00010B5041CFFF7E5FF011E03D0201C002282
:10BFB000FFF76CFF10BD70B5051C0E1C041CE435AA
:10BFC000238CB34206D1201CFFF7AAFF002801D121
:10BFD000201C03E04C34AC42F2D1002070BD08B507
:10BFE000FFF7E9FF431E9841C0B208BD38B5041CF5
:10BFF000151CFFF7E0FF011E03D0201C2A1CFFF7D1
:10C0000045FF38BDF0B589B0061C0F1C0092002515
:10C01000FFF7D1FF041EAC4235D0009B1A880623DF
:10C02000954219D26B43009AD3189A79012A0DD1FF
:10C030005A88998803A801920135FFF725FB201C37
:10C04000019903AAFFF7FBFEADB2E6E75A88381C58
:10C05000111CFFF775FE10E0013A5343009AD31804
:10C060005988E28B013189B2914203D9301C211CDD
:10C07000002206E0381CFFF747FE021E03D0301CEA
:10C08000211CFFF703FF09B0F0BDF0B589B00090A7
:10C090000191141C0027FFF78EFF051EBD4246D0FC
:10C0A00023889F422CD2A3780022012B07D1113381
:10C0B0007B43E318D98803A8FFF7E6FA15E00021CF
:10C0C00003AEB31801325970102AF8D1012312318E
:10C0D00079433370611802AB581D063108F032F90C
:10C0E000B37B727B1B021343738212237B43E318DF
:10C0F0009988281C03AAFFF7A2FE7B1C9FB2CFE7FA
:10C100001222013B5343E418A188EA8B013189B222
:10C11000914203D90098291C002206E00198FFF7FC
:10C12000F3FD021E03D0291C0098FFF7AFFE09B0F3
:10C13000F0BD38B5051C041CE435201CFFF7F0FEEB
:10C14000002803D14C34AC42F7D1041C201C38BD6C
:10C15000F0B51E1C4B8B99B002339BB20193039236
:10C16000CB8B019A041C0D1C0F8C0293934207D2B7
:10C17000002705910697F368301C05A998472EE023
:10C18000391CFFF72CFF002801D0052727E0201CD1
:10C19000FFF7CFFF041EF8D0381C0199029AFFF771
:10C1A000B3FD071E1BD1291C331C039A05A8FFF7FA
:10C1B00019FE05A92222201C08F0C4F8231C0EAA8F
:10C1C000243323CA23C3119B13AA23630193231C83
:10C1D0006763383323CA23C3169BA7646364381C80
:10C1E00019B0F0BD0284012230B503AC258804AC3F
:10C1F0004583151C24881D408483047E016094437C
:10C20000590811402C4302259140AC430C430421B2
:10C210009D081540AD008C432C430825D9081140DA
:10C22000C900AC430C4310211D0915402D018C435E
:10C230002C43202559099B09AC4311401A40930116
:10C24000221C49010A4340218A431A43027630BD29
:10C25000F0B589B01C1C0EAB1D780FAB1B8810AE5F
:10C26000009333880026028403AA019301601670AC
:10C27000002303A98A1901365370102EF8D14C827D
:10C28000041D8CC98CC40CC90CC46B461B88047E6D
:10C2900043836B469B886908838301231A1C9C4354
:10C2A0002A40194014430222994094430C4304212C
:10C2B000AA081A4092008C4314430822E908194046
:10C2C000C90094432A091A400C431201B443144391
:10C2D000202269099443AA09194013409A01231C9A
:10C2E00049010B4340218B431343037609B0F0BD52
:10C2F00070DF704771DF704772DF704773DF704720
:10C3000074DF704775DF704776DF704777DF7047FF
:10C3100078DF704779DF70477ADF70477BDF7047DF
:10C320007CDF70477DDF70478ADF70478BDF7047A7
:10C330008CDF70471420704764207047A020800174
:10C34000704708B5FFF7F2FF031E00D00523181C45
:10C3500008BD10B5041CFFF7D3FF0323002806D146
:10C36000231C012158331A788A431A70031C181CA5
:10C3700010BD08B53B239A4200D0283B081C191C6D
:10C38000FFF7C2FF031C5A1E934103205B42184073
:10C3900008BD0A1C011C08B50368FE31C98B1B6A65
:10C3A000984708BD08B5081CFFF7B8FF031C5A1EC4
:10C3B000934103205B42184008BD08B5081CFFF7F5
:10C3C000ABFF031C5A1E934103205B42184008BD7B
:10C3D00008B5081C111CFFF795FF031E00D00323AE
:10C3E000181C08BD08B5081C111CFFF79BFF031E95
:10C3F00000D00323181C08BD08B5081CFFF788FFF0
:10C40000031E00D00323181C08BD08B5081CFFF745
:10C4100081FF031E00D00323181C08BD08B5081CAB
:10C42000FFF774FF0023984203D00533112800D092
:10C43000023B181C08BD0000024B0B600823136070
:10C440007047C0466BCC020008207047B8300170BE
:10C4500000207047B93001700020704702207047FB
:10C46000B83000787047B9300078704700207047C6
:10C4700008B50368002B01D0081C984708BD08B513
:10C480000368002B01D0081C984708BD08B5031CA1
:10C490001A1CF3326C3011789B6F984708BD10B5A9
:10C4A00018C96210E10701D58158CB588018984708
:10C4B00010BD13B50C1E012C07D86B46111C581C5F
:10C4C000062207F03FFF002005E08B1E012B01D95B
:10C4D000032007E001206B4669461C70FFF708FF48
:10C4E0000028F5D116BD37B568460D1C141CFFF7A2
:10C4F00001FF032300280DD1002D02D06B461B78CD
:10C500002B70231E06D06B46201C591C062207F0F8
:10C5100019FF0023181C3EBD70B5061C0D1C00241D
:10C52000331CBA331B78A3420ED96B79A3420BD9C3
:10C530000722111C61432B68013458187118BB3154
:10C5400007F000FFE4B2EBE72C71002070BD11236F
:10C5500037B5081C01AD2B700C1C08F031F8211CFC
:10C5600082B2281CFFF7DCFE031E00D00323181C38
:10C570003EBD0000012008B5011C044A03F000FD87
:10C58000031E00D00B23181C08BDC04625C60100A1
:10C59000F8B50368061CDB6C0D1C0C799847032367
:10C5A000844226D800232979DAB28A4208D20722A7
:10C5B0005A4328680133125C032AF5D1042318E09A
:10C5C000371C0024BA373C702B79A34210D90722BC
:10C5D000111C3878614350432B6830185918BB3010
:10C5E00007F0B0FE3B78013401333B70E4B2EBE777
:10C5F0000023181CF8BD38B5CD7F01201F2D10D8A1
:10C60000002D01D103200CE00C1C081CD37F291C39
:10C61000FFF772FE0028F5D1208CFFF779FE002885
:10C62000F0D138BD70B5051C88B0002001F0D6FFF0
:10C63000036800269B699847031C041CF3331D7094
:10C64000251C0F4B069002A904A80822029303960A
:10C6500007F078FE0B4B0D350793069BFF35AB605B
:10C6600004A90822281C019307F06CFE201C079BDC
:10C67000F430EB60311C06F059F808B070BDC046CC
:10C680008DC401009FC40100F0B5051C041C87B0D7
:10C69000AC356B68AB60A868002807D0C368211C64
:10C6A0009847AB68002BF4D01B69F3E7261CB03623
:10C6B0003568002D05D02F69281C03F015FA3D1CA4
:10C6C000F7E7221CFC235832117835600B401370B9
:10C6D000261C231C0A3656331D709D71301C291CE4
:10C6E0001F2207F06DFEF5772A36301C291C1F2209
:10C6F00007F066FEF577606E002804D0056903F048
:10C70000F3F9281CF8E7251C60669835286800288E
:10C7100004D0066903F0E8F9301CF8E72860251C0E
:10C72000A4352E68002E05D03769301C03F0DCF9E3
:10C730003E1CF7E72E6001AD311C281C0C2207F0CF
:10C740003FFE231C2A1C6C3383CA83C3094BE66754
:10C75000A367311C0C22281C07F032FE231C8033F7
:10C7600007CD07C3301C044A90341A60266007B016
:10C77000F0BDC0467FC4010071C4010010B5041CA7
:10C78000FFF782FF00280AD1231C0122FE33524208
:10C79000DA83BA34463B18705870207000E00620E7
:10C7A00010BDFE30C1837047FE30C08B7047000063
:10C7B000F0B593B0019000200C1C01F00FFF03684E
:10C7C000DB6A984702F0A6FB06AB00280DD00022DA
:10C7D0001A7105AA06920822181C1A730AAA9A60EE
:10C7E00002F064FC002802D052E018711873002394
:10C7F0001F1C23732371019BBA331B78BB4246D99C
:10C8000007237B43019AD218B832D278022A31D159
:10C81000002506AE337BAB4236D907207843AB0008
:10C820000293019B029A1818B368BB30995802F022
:10C8300055FC00281BD0B368029AA1689A58237B44
:10C840009B005A50237B01332373337B5A1E95423E
:10C8500008D01049B2685B189B009B58039303995A
:10C86000029BD15006AA137B013B13730CE00135E8
:10C87000EDB2CEE701992279CB182168BB33920043
:10C8800053502379013323717B1CDFB2B3E70020BF
:10C8900013B0F0BDFFFFFF3F70B50C789AB00222D5
:10C8A000012C3ED04B88032C04D1A03B221C9BB210
:10C8B0001D4C03E00322203B1C4C9BB2A34230D80A
:10C8C0008C881B4B03229C422BD80AAB009312ABE3
:10C8D00002936A460023061C13711373B83633782B
:10C8E0000C1C002B04D06946FFF762FF021E18D112
:10C8F00004AD18220021281C07F062FD2378281CB3
:10C900002B7033782B726B46EB6063882B82A38885
:10C910006B82FFF7F3FC021E03D00722042800D02D
:10C92000043A101C1AB070BD603F0000E03F0000E8
:10C93000FF3F000070B598B008AB009310AB0293B6
:10C940006A460023051C13711373B9352B780C1C30
:10C95000002B1ED1012304A82A780678A1799E43D2
:10C96000194013405A00331C0B4302218B431343DD
:10C9700003706B4643602388038163884381A388E7
:10C980008381FFF7D1FC421E9041032340420340C4
:10C9900005E06946FFF70CFF0028DBD0031C181CDC
:10C9A00018B070BDF0B59DB01F1C6B46051C1A7009
:10C9B000581C0622229E02AC07F0C4FC002F07D0B0
:10C9C0003B8823807B886380BB88A380FB8806E04C
:10C9D00032232380DB186380F533A780FF33E380A5
:10C9E0000CAB04A9049314AB8B602F1C0023B93744
:10C9F0000B710B733B78002B17D101203B7802277A
:10CA000008A903405A000B78BB4304AF4F6013439F
:10CA1000002E10D0B2798343024013430B70338849
:10CA20000B8173884B81B38811E0281CFFF7C0FE8F
:10CA30000028E2D029E02A1C3232127883430240D7
:10CA400013430B70AB8D0B81EB8D4B812B8E6846A6
:10CA5000221C8B81FFF76CFC031C0020834214D046
:10CA60000630082B11D005D80130042B0DD083429D
:10CA700008D109E00520112B07D0054A934203D0C5
:10CA8000102B01D00B2000E004201DB0F0BDC046EB
:10CA9000023200000220704700207047704790DF8C
:10CAA000704796DF704798DF704793300078431ED9
:10CAB0009841C0B2704708B5081C111C1A1CFFF73A
:10CAC000F0FF031C0020834204D0113B5A425A411C
:10CAD0000630801A08BD000030B5002485B001ADD5
:10CAE0006B80089B2970EB80099B101C291C6C70C3
:10CAF000AC800393FFF7D7FFA04207D0053411287D
:10CB000004D0044BC418604244410634201C05B0D4
:10CB100030BDC046FCCFFFFF08B50368002B01D035
:10CB2000081C984708BD08B50368002B01D0081CF5
:10CB3000984708BD08B50368002B01D0081C98472A
:10CB400008BD08B5ED30FF30FFF702FB08BD08B5A2
:10CB5000ED30FF30FFF7C9F808BD08B5ED30FF3004
:10CB6000FFF71EFA08BDF0B587B001AB1A1C0C1C0C
:10CB7000E0CCE0C2021CB532FF32C96870CB70C293
:10CB80000023B530FF30C160036107B0F0BD000085
:10CB9000F0B5061C9446041C101C8FB0343602936A
:10CBA00001960F1C04A92CC82CC16346DA680299AF
:10CBB000039209AA29C929C2029B0198DB68029342
:10CBC00001F0BFF9051C0620002D3AD1231C04AA50
:10CBD000503343CA43C3039B2566E365231C09AA5C
:10CBE000783343CA43C3201C029A14991A60043351
:10CBF0001D6014223A3007F0A5FB201C1599142261
:10CC0000643007F09FFB231C012191332787013BF0
:10CC10005D7093341D70381C21702A1CFFF73FFF94
:10CC2000041C281C002C0CD0019801F0CFFC05201E
:10CC3000112C06D0044B9C4202D00130072C00D1AD
:10CC400004200FB0F0BDC04602300000F0B597B030
:10CC50000593036807AC1B6804910393111C231C04
:10CC6000061CA1C9A1C30025D368291C0C220CA84D
:10CC70000A9311AF0B9507F0A3FB094B291C381C35
:10CC80000F931095FEF700FD059B221C0093019762
:10CC9000301C04990CAB039CA04717B0F0BDC046F4
:10CCA00027CB0100F0B50026051C89B003AC8680B7
:10CCB000311C201CFEF7E8FC211CA81D142207F0E3
:10CCC00041FB311C201C0C2207F07AFB2B1C221C80
:10CCD0001C3383CA83C30F4B311CAB62EE62201C32
:10CCE0000192FEF7D1FC2B1C221C303383CA83C374
:10CCF000019A03CA03C3311C0C22201C07F060FBFD
:10CD00002B1C443307CC07C3301C034B6E652B65CB
:10CD100009B0F0BD19CB010027CB010070B586B07A
:10CD2000041CFFF7BFFF051E2AD1231C5C331870BB
:10CD300058709870D870A8235B00E050E218523BFE
:10CD4000FF3B53609360D3601361B4225200A05044
:10CD5000221C6932FF3201AE53609360D3601361CD
:10CD6000301C291C0C2207F02BFB231C8133FF33C2
:10CD700007CE07C38134044BFF34E360256100E034
:10CD80000625281C06B070BD35CB010070B5041C0B
:10CD9000E36A2363206B002807D0C368211C9847EF
:10CDA000236B002BF4D01B69F3E7E06A002804D062
:10CDB000056902F099FE281CF8E7E062A0680028E7
:10CDC00004D0056902F090FE281CF8E7A0606069B5
:10CDD000002804D0056902F087FE281CF8E7256AC0
:10CDE0006061002D05D02E69281C02F07DFE351CE7
:10CDF000F7E7201C25623430FFF790FF281C70BD38
:10CE000070B5041C8AB001AD24220021281C07F053
:10CE1000D7FA002102A8FEF737FC201C0026953027
:10CE2000291C2222FF302E766E83AE83EE832E8461
:10CE300007F088FA2368201C5B689847231C5F333F
:10CE40001E70B0420DD0C0235B00E358B34208D03F
:10CE5000054BB34205D0201C8130FF30A188C36848
:10CE600098470AB070BDC04661BA010008B53430B9
:10CE7000FFF7C6FF08BDA0DF7047A4DF7047A5DF3E
:10CE80007047A6DF7047A8DF7047A9DF7047002012
:10CE90007047000073B50E1C151C0268009394685F
:10CEA0002B1C321C0149A04776BDC046FFFF000085
:10CEB00037B500206D46069C00902088019328809D
:10CEC000081C111C6A46FFF7DAFF0323002802D171
:10CED0002B882380031C181C3EBD000073B50E1C5C
:10CEE000151C06AA117802680093019114692B1C85
:10CEF000321C0149A04776BDFFFF0000F8B5041CB5
:10CF000000200E1C151C01F069FB03689B69984703
:10CF100023689F69FFF748FC321C011C2B1C201C56
:10CF2000B847F8BDF0B5051CD78B0022467985B00F
:10CF3000C435B24219D208352C1C083C2488BC42A6
:10CF400011D10E251C1C02231832D20082186D4408
:10CF500012892B80036803AE00959F68331CB84785
:10CF6000021E04D00DE00132E3E7042009E02B8823
:10CF70000620022B05D13388101C9B0701D001230A
:10CF8000237005B0F0BD0000F0B50C1C002187B087
:10CF90006E460091151C0CA90DAA098812783180E3
:10CFA0000193002A03D1011C4679C43111E06A467D
:10CFB000201C291CFFF761FF421E904103234042C1
:10CFC00003406DE008310F1C083F3F88AF4203D09B
:10CFD0000132B242F6D33FE030211C329200801879
:10CFE00042680132D27F0A4236D00221002002AECE
:10CFF000D206F3600CABD20FB3602B4B8A1A35808C
:10D00000B270B0809C4207D101F0E8FA03689B69D6
:10D010009847FFF7C9FB041C201C311CFFF731FFA8
:10D0200083B2002B3CD0181E112813D0112B02DC28
:10D03000082B06D007E01D4B98420BD01C4B9842A2
:10D0400001D106232CE0201C291C6A46FFF715FF9E
:10D05000002808D1052323E0201C291C6A46FFF77D
:10D060000CFF0C2801D103231AE00C2808D805284E
:10D07000F9D0072813D00023984211D00B230FE0DA
:10D0800010280CD003D808230F2809D0F6E7094B45
:10D090009842E8D0D0239B019842E4D0EEE70423E5
:10D0A000181C07B0F0BDC046FFFF000003300000B1
:10D0B000013400000230000008B50378002B08D1CD
:10D0C0000B78002B11D1428A4B8A9A420DD1012054
:10D0D0000CE0012B09D10B78012B06D10130013175
:10D0E000102207F007F90028F1D0002008BD000049
:10D0F000F0B5051C97B0081C2E240B9102F026F801
:10D1000004ABE418109010A90120221CFFF7B3FE15
:10D11000002801D00320D3E023880B9A0A90938340
:10D120000B9B0A9A1B7D934253D96B79132B01D920
:10D130000720C5E00B9B9B690C930A9B0C9A9B00F4
:10D140009C586369002B49D1638B002B46D1631C2B
:10D15000DB7F022B42D137E06169631CDA7FA31CBD
:10D16000DB7F0091618B00200191218B0291217F57
:10D1700003910C9904910D990591211C293109788D
:10D180000691211C2A310978079169791831C90063
:10D1900069180431089110A902F032F80028B9D1B9
:10D1A0006B79071C1A1C1C3292001833AA18DB007A
:10D1B0005460EB189B88E3836B7901336B71231CFC
:10D1C00028331B78BB4230D80A980130C3B20A9387
:10D1D000A6E72B79002001332B7171E0201C01F0B0
:10D1E000B5FF002610900D960C96231C28331B7853
:10D1F000B342B1D9626AB3009F58002311AA1370D9
:10D20000002011A9CA1801335070102BF8D12D4BF2
:10D21000381C4B82FFF750FF002803D07B690C932A
:10D220007B8B0D930136F6B2DFE7C2235B00EB5C2C
:10D23000072B00D97CE7626ABB009E58002311AA25
:10D240001370002011A9CA1801335070102BF8D1A7
:10D250001C4B301C4B82FFF72FFF0C9000282CD169
:10D26000301C01F073FF328B738B0092327F109071
:10D270000192C2225200AA5C0C98C0325200AA1835
:10D280000632029210A9726902F077F8002800D0E5
:10D2900040E7C2235B00EB5C1A1C58329200C0339B
:10D2A000AA185B005660EB18DB88C222F383C22306
:10D2B0005B00EB5C52000133AB54781CC7B27EE7D5
:10D2C00017B0F0BD01290000F0B5041C87B0236B36
:10D2D0006363606B002807D0C368211C9847636BA9
:10D2E000002BF4D01B69F3E7206B002804D00569FC
:10D2F00002F0FAFB281CF8E7206320716071E068F7
:10D30000002804D0056902F0EFFB281CF8E7E06074
:10D31000A069002804D0056902F0E6FB281CF8E7A4
:10D32000666AA061002E05D03569301C02F0DCFB76
:10D330002E1CF7E701AD311C6662281C0C2207F099
:10D340003FF8231C2A1C383383CA83C30F4B311C7C
:10D350006364A664281C0C2207F032F8231C2A1CE4
:10D360004C3383CA83C3094B311CA3650C22E66589
:10D37000281C07F025F8231C603307CD07C3301C99
:10D38000024B2667E36607B0F0BDC04635CB01000F
:10D3900038B5051CFFF798FF041E1DD1281C211C61
:10D3A0005022743007F00CF8281C6530211C202214
:10D3B000FF3007F005F8281C211C0822C43006F0B5
:10D3C000FFFF281C8730FF30211C102206F0F8FFD9
:10D3D000C2235B00EC5400E00624201C38BD000092
:10D3E0000B68002B01D1036002E0024B03600023B5
:10D3F0004360704761BA010038B5041C0D1C6368B6
:10D40000A360A068002807D0C368291C9847A368B8
:10D41000002BF4D01B69F3E738BD08B5C368984703
:10D4200008BD30B5151C87B004290ED0052917D0CA
:10D43000032925D13830041C04A8211CFFF7D0FF94
:10D44000049B002B18D1059B14E04C30041C68464B
:10D45000211CFFF7C5FF009B002B0DD1019B09E0AC
:10D460006030041C02A8211CFFF7BAFF029B002BAE
:10D4700002D1039BDB0703D5201C291CFFF7CDFF3E
:10D4800007B030BDF0B50B888FB0051C0C1C512BBC
:10D490003FD00AD8012B26D0502B00D012E1021C1D
:10D4A000CE88C832417900230EE0522B2AD0532B6C
:10D4B00000D007E1CE88052136E00832101C08387C
:10D4C0000088B04203D001338B42F6D309E030220A
:10D4D0001C339B00EB185868431CDB7F134200D0C1
:10D4E000DBE0022120E00C7AEB682B612869002840
:10D4F00000D1E7E0C368211C98472B69002BF3D0CB
:10D500001B69F2E7888800210A1C0B1CFFF7BDFC91
:10D51000D8E08B79012B05D0022B00D0D2E00E8908
:10D52000072101E00E8906212B1C00206A79C433F3
:10D5300000900098904200D3C4E00833181C0838CB
:10D540000088B04213D1062969D0072912D00229D8
:10D5500000D09DE0A3880AA90B804E80237B0B712D
:10D56000E389CB80238A12340B81CC6052E000988F
:10D570000130DDE70021102202A806F021FFA38878
:10D5800002AA13805680238A06AF9380638A002103
:10D59000D380231C10221433381C0193049306F00B
:10D5A0000FFF02233B70013BBB71009B1C339B00B0
:10D5B000EB185A68131C2A3319780023994206D0B5
:10D5C000101CD36C403002A9984702AB9B8906AF70
:10D5D000BB8002AA92883A8102AAD2887A81049AF0
:10D5E000FA60002B03D00122BB799343BB71A08862
:10D5F000391CFFF748FCBB88002B63D1A3880AA91C
:10D600000B804E80A37B0B71238ACB80638A0B81B6
:10D61000019BCB60281C1430FFF7EEFE52E006AFF2
:10D6200000211022381C06F0CBFEA3887E803B80B0
:10D63000E3890AAE00211022301CBB8006F0C0FE38
:10D640000123009833701C3080002D186B681A1C61
:10D65000293211780022914205D0181C391C2C3037
:10D660009B6B9847BA89B280BB89002B0BD1BA68F3
:10D67000002A08D00121B3790B43B371BB883381F1
:10D68000FB88F2607381A088311CFFF7FCFB19E076
:10D69000281C321CFFF7C5FE14E0E17CA27C0902C5
:10D6A0000A43990602D50321940708D40421DB0616
:10D6B00005D501231A40131C594259410331C28B2D
:10D6C000281CE7E70FB0F0BD90DF704792DF70478E
:10D6D00095DF704738B50A680368934201D000208F
:10D6E0001AE00C1C051C04310430FFF7E5FC00288F
:10D6F000F5D02B7E227E53405B06F0D16A8B638B84
:10D700009A42ECD1EB69E2699342E8D12B8C208CF0
:10D71000181A42424241D0B20123584038BD38B5B0
:10D720000025041C291C20C0FDF7AEFF257665836B
:10D73000A583E5832584201C38BD0268031C002ACC
:10D740000AD0511E920040689A181960043393421F
:10D7500004D059681960F9E7012040427047026817
:10D76000031C002A0AD0511E920040689A181960C2
:10D770000433934204D059681960F9E7012040420C
:10D780007047000073B5051C2B686C69002B1CD01A
:10D79000231C03225F331A700F49013268466E68FA
:10D7A00006F0D0FD18237343E3187033998801AA5B
:10D7B0001180DB8869465380A088FFF789FF002825
:10D7C00009D0281CFFF7B9FFDEE75F342378032B6D
:10D7D00001D1023B237073BD74CD0200031C0022F3
:10D7E000F0B55C331A700A7889B0041C0133042A3E
:10D7F00000D904221A70A82300205B00E050231CEB
:10D800000122271C061C51335242FF335A609A6092
:10D81000DA601A618D1C6037231C5D331B789E42D1
:10D8200026D2AB78002B0CD1A8225200A358591C49
:10D830009B00E318A1509B18AA885E60EB88BA820F
:10D8400011E0298803A8FDF71FFFAB88381C00935F
:10D85000EB8803A91422019306F074FD6B461B8824
:10D86000BB826B469B88FB82013608351837D3E7AD
:10D87000231CFC335B6D002B04D0201C5130FF3087
:10D88000FFF780FF09B0F0BD73B5051C2B686C690C
:10D89000002B1CD0231C042210495F331A708918F6
:10D8A00068466E6806F04EFD24237343C033E318C8
:10D8B0005B8B01AA138001335380A0886946FFF770
:10D8C00007FF002809D0281CFFF749FFDEE75F3477
:10D8D0002378042B01D1023B237073BD74CD020069
:10D8E000031CF0B50A7887B0041C0F1C5E33042AB1
:10D8F00000D904221A70B42300255B00E550231CD4
:10D9000001226933FF3352425A609A60DA601A6129
:10D91000A83B0593BE1C231C5E331B789D422FD26F
:10D92000B378002B16D1B4225200A3580598591C85
:10D930009B00E3189B18A1505D600A23F1886B439C
:10D9400000913189FB180191A288A16D9B79FEF7A6
:10D9500049FC0FE00A2168466943791889793388C0
:10D96000A2880170F1880598019131890291A16D19
:10D97000FEF76EFC059B0135243305930A36CAE792
:10D98000231CFC33DB6E002B04D0201C6930FF30DD
:10D99000FFF77AFF07B0F0BD7FB5031C5F331B783C
:10D9A000061C032B2DD1051C2E4B0A685135FF3563
:10D9B0009A4222D189681022684606F0C3FC281CCE
:10D9C000FFF7BBFE182358433418231C0122201CE8
:10D9D00060331A7069460F32613006F0B3FC231CC5
:10D9E000221C6D335B786C3461781B0270320B4300
:10D9F0005380281CFFF7C6FE33E0281CFFF79DFE6E
:10DA00002FE0042B2DD1051C174B0A686935FF3513
:10DA10009A4223D1896810220331684606F092FCAD
:10DA2000281CFFF79CFE242358433418231C012292
:10DA3000201CC0331A7169460F32C53006F082FCD3
:10DA4000231C221CCD335B79CC3461791B02D0328C
:10DA50000B43D380281CFFF717FF02E0281CFFF7B9
:10DA60007EFE7FBD01001000010013000B68002B3B
:10DA700001D1036002E0024B036000234360704762
:10DA800061BA010008B5C368984708BD031CF0B52A
:10DA9000061C5F3391B001931B785C36022B5DD17D
:10DAA000031C9533FF3324220D1C041C002107A8FE
:10DAB000009306F085FC07A8FFF731FE009807A940
:10DAC000FFF708FE002846D0002D35D11823327804
:10DAD000271C5343E3187033DA88D9235B00291CD1
:10DAE000E252303702A8FDF7CFFD381C02A9FFF73C
:10DAF000E3FA051E14D1211C9931381CFF31FFF7C0
:10DB0000DBFA002818D0291C07A8FDF7BDFDA01DD1
:10DB100007A9FFF7D1FA01235840C0B200280BD063
:10DB2000251C443502A8291CFFF7A0FF029B002BEF
:10DB300019D1039BDB0716D40021242207A806F085
:10DB40003FFC07A8FFF7EBFD201C9530FF3007A92D
:10DB5000222206F0F7FB0123019A13703378013378
:10DB6000337011B0F0BD281C0099FFF78BFFE3E77D
:10DB700073B5022600248180051C5E30467001AE1C
:10DB80000470081C311C32807380FFF79FFD102841
:10DB90000ED005D8A04210D00634082809D005E0E0
:10DBA0000524112805D0064B984201D00B2400E033
:10DBB0000424281C211CFFF769FF201C76BDC046E9
:10DBC00002300000F0B5041C89B0261C5F363378A3
:10DBD000012B6FD1251C201C5C355D302B78027821
:10DBE00093424CD20021A71D03A8FDF74DFD381C20
:10DBF00003A9FFF761FA002809D118232978381CF6
:10DC0000594360316118FFF757FA002827D0E369BC
:10DC1000002B16D0284B002B13D0002103A8FDF7B2
:10DC200033FD201C03A93030FFF746FA002808D046
:10DC30001823201C29781C30594360316118A36ACD
:10DC400098473678012E0AD1211C01A84431FFF7EC
:10DC50000DFF019B002B06D1029B334203D12B7891
:10DC600001332B70B1E718232A78A1885343E318B6
:10DC700070339A88201CDB88FFF77AFFA5E7002A1B
:10DC800018D0002B16D01822013B53430022E31872
:10DC90007033D988094B02702A70994203D1201C35
:10DCA000FFF7AEF806E00131A08889B2FFF70CFD5E
:10DCB0000028F4D109B0F0BD61BA0100FFFF0000F7
:10DCC000031CF0B55F3397B001931B78022B00D093
:10DCD000D6E0071C00212422041C95370DA806F06D
:10DCE0006FFBFF370DA8FFF71AFD381C0DA9FFF7D2
:10DCF000F1FC00283AD0231C5E331B78002B35D072
:10DD0000231CD922261CDA331B885200013BA35264
:10DD10000021303608A8FDF7B7FC301C08A9FFF732
:10DD2000CBF9051E14D1211C9931301CFF31FFF7AE
:10DD3000C3F900281AD0291C0DA8FDF7A5FCA01DC9
:10DD40000DA9FFF7B9F901235840C0B200280DD042
:10DD5000251C443504A8291CFFF788FE049B002BD2
:10DD600000D083E0059BDB0700D57FE00025231C66
:10DD70005E3302931E78B5424CD2019B1B78022B76
:10DD800000D07DE0731E24219D4207D16943C0313C
:10DD90006118381C222206F0D5FA3BE00E1C6B1CE1
:10DDA00059436E43C03161184B8BC036013BA619F5
:10DDB000F383231C0021303308A80293FDF764FC91
:10DDC000029808A9FFF778F90390002812D1311DB5
:10DDD0000298FFF771F9002819D003990DA8FDF7F3
:10DDE00053FCA01D0DA9FFF767F901235840C0B2ED
:10DDF00000280CD0231C4433191C06A80293FFF7FB
:10DE000035FE069B002B36D1079BDB0733D401354B
:10DE1000EDB2ACE7019B1B78022B31D1002E08D06C
:10DE2000013E22335E43C036A619B28B013292B254
:10DE300000E0144A231C5C33197818234B4300215B
:10DE4000E3187033DB88029801709A420AD20DA958
:10DE50000A804B80A088FFF739FC002810D0201CD6
:10DE60000B2100E0201CFFF711FE09E0281C391CE3
:10DE7000FFF708FE7AE70298311CFFF703FEC6E7BA
:10DE800017B0F0BDFFFF000002207047022070476E
:10DE9000002070470020704700487047FFFF0000D7
:10DEA000022070470220704702207047022070470E
:10DEB00002207047022070470220704702207047FE
:10DEC00002207047022070470220704702207047EE
:10DED0000220704700231360704700207047022023
:10DEE00070470220704702207047022070470220CE
:10DEF00070470020704700207047002070470220C4
:10DF00007047022070474160704781607047C16070
:10DF100070470161704741617047022070470220DD
:10DF2000704702207047022070470220704702208D
:10DF300070470220704790DF704766DF704748DF08
:10DF400070475F300078431E9841C0B27047007937
:10DF500070470C3070470C30704708B503689B6BF6
:10DF60009847FFF7ECFF08BD08B5044B1A78002A64
:10DF700003D000221A7003F04DFF08BDD03B0020F3
:10DF8000082370B596B002AA137106AA029202AADB
:10DF90001373101C0EAB04930C1C01F087F80023C4
:10DFA000061C1D1C98420FD0237130E00722101C64
:10DFB000684323681818029B01930199AB005958D4
:10DFC00006F0C0F90135EDB202AB1B79AB4204D9C2
:10DFD0006379AB42EAD8257119E02571002502ABBF
:10DFE00021791B7B6918AB4210D9637999420DDA0C
:10DFF000049BAA000193072359432368013559184C
:10E00000019BEDB2D05801F06DF8E8E72171301CAA
:10E0100016B070BD08B500F0EFFF08BD08B5081CCC
:10E02000111C01F01FF808BD08B5081C111C00F0F8
:10E03000F5FF08BD08B5081C111C1A1C029B00F056
:10E040006FFF08BD7FB503791648002B28D0164D09
:10E05000164C2B78201C002B22D102AE301CFFF76F
:10E060006CFF002816D17388592B13D13378B288EE
:10E07000D91F012904D80092201C20210C4A03E05A
:10E08000201C202100920B4A06F00CFA01232B7071
:10E09000201C05E0201C0849202206F0C5FAF7E7FD
:10E0A00004B070BD44CF0200743A0020B03B0020A1
:10E0B0005ECF02007BCF0200A0CF020070B50379D3
:10E0C0000924002B2AD0051C03F034FF043C00284F
:10E0D00024D12E1CFC36306B002803D1B06B0028F5
:10E0E00006D10AE003681B6A9847041EF6D015E0C3
:10E0F00003689B6A9847041E10D1706B002804D0F7
:10E100000368DB6A9847041E08D1281C0C30FEF710
:10E1100035FB041E02D100F0FBFF2C71201C70BDEA
:10E1200038B5041CE3692362206A002807D0C3685D
:10E13000211C9847236A002BF4D01B69F3E7E069A0
:10E14000002804D0056901F0CFFC281CF8E7E06145
:10E150006060A060E0602061606138BD08B5FFF7D5
:10E16000DFFF002800D0062008BD38B5041C006879
:10E17000002804D0056901F0B7FC281CF8E72060EE
:10E1800038BD000010B5041C024B08C0FFF7EDFFBE
:10E19000201C10BD78CE020010B5041CFFF7F2FF62
:10E1A000201C01F0A1FC201C10BD38B5041C006827
:10E1B000002804D0056901F097FC281CF8E72060CE
:10E1C00038BD000010B5041C024B08C0FFF7EDFF7E
:10E1D000201C10BD88CE020010B5041CFFF7F2FF12
:10E1E000201C01F081FC201C10BD000038B5064B3E
:10E1F000041C03604068002804D0056901F074FC29
:10E20000281CF8E7201C38BDD8CE020010B5041C2D
:10E21000FFF7ECFF201C01F067FC201C10BD000084
:10E2200038B5064B041C03604068002804D005691B
:10E2300001F05AFC281CF8E7201C38BDE8CE02008B
:10E2400010B5041CFFF7ECFF201C01F04DFC201C56
:10E2500010BD000038B5064B041C03604068002860
:10E2600004D0056901F040FC281CF8E7201C38BDEB
:10E2700088CD020010B5041CFFF7ECFF201C01F054
:10E2800033FC201C10BD000038B5064B041C036095
:10E290004068002804D0056901F026FC281CF8E736
:10E2A000201C38BD98CD020010B5041CFFF7ECFF10
:10E2B000201C01F019FC201C10BD000038B5064BD5
:10E2C000041C03604068002804D0056901F00CFCC0
:10E2D000281CF8E7201C38BDA8CD020010B5041C8E
:10E2E000FFF7ECFF201C01F0FFFB201C10BD00001D
:10E2F00038B5064B041C03604068002804D005694B
:10E3000001F0F2FB281CF8E7201C38BDB8CD020054
:10E3100010B5041CFFF7ECFF201C01F0E5FB201CEE
:10E3200010BD000038B5064B041C0360406800288F
:10E3300004D0056901F0D8FB281CF8E7201C38BD83
:10E3400058CE020010B5041CFFF7ECFF201C01F0B2
:10E35000CBFB201C10BD000038B5064B041C03602D
:10E360004068002804D0056901F0BEFB281CF8E7CE
:10E37000201C38BD68CE020010B5041CFFF7ECFF6E
:10E38000201C01F0B1FB201C10BD000038B5064B6D
:10E39000041C03604068002804D0056901F0A4FB58
:10E3A000281CF8E7201C38BD98CE020010B5041CCC
:10E3B000FFF7ECFF201C01F097FB201C10BDF7B508
:10E3C0000379071C0E1C151C002B06D000230A2401
:10E3D000019300936B461C7109E000F0FBFB041CE9
:10E3E0000C20002C0CD1012300943B710194301CB3
:10E3F000FDF778FBEB6800906946281C9847201CC5
:10E40000FEBD0000F7B50193036800915B68041C32
:10E41000171C9847051C0620002D3BD1231C3A1CD5
:10E420001C3343CA43C3FB68019AA362231CE56201
:10E43000443343CA43C3019B0899DB681422236514
:10E440006565A01D05F07EFF201C0999142230305F
:10E4500005F078FF6B461B880121A380231C5D33E8
:10E460001D70013B1D70D97000982A1CFFF763FDD9
:10E47000061C281C002E0DD02368201C9B68984782
:10E480000520112E06D0044B9E4202D00130072EEB
:10E4900000D10420FEBDC04602300000FC3038B57B
:10E4A000846B051C002C0DD1242001F011FB064BC0
:10E4B00044608361054B8460C46004614461C4614D
:10E4C0000360A863A86B38BD58CE020018CF0200C5
:10E4D000FC3038B5846B051C002C0DD1242001F0D4
:10E4E000F7FA064B44608361054B8460C4600461A5
:10E4F0004461C4610360A863A86B38BD58CE0200B4
:10E5000018CF020010B5041C044B036004F0F2F8AD
:10E51000201C04F067F9201C10BDC04600D3020087
:10E52000124B10B508330360114B041CC3608023E9
:10E53000104A5B00C250C018FFF7E4FF201C0E4BCE
:10E54000B830E360FFF7D4FE201CAC30FFF7B6FE16
:10E55000201CA030FFF798FE201C6C30FFF77AFEDD
:10E56000201CFDF773FB201C10BDC046A8CF020085
:10E5700080CC020018D30200C8CD020010B5041CE4
:10E58000FFF7CEFF201C01F0AFFA201C10BD10B524
:10E59000041CFFF7B7FF201C01F0A6FA201C10BDD9
:10E5A000011C031C1F3100221A7001338B42FAD167
:10E5B00080239B00C2770384704710B500211F227F
:10E5C000041C05F0FDFE0023E37710BD08B5FEF73F
:10E5D00017FC08BD00487047783A00200048704793
:10E5E000783A0020424BF0B508330360414B071CDA
:10E5F0000025C360A023041C163787B00571856011
:10E60000057443828582381CFFF7CAFF8021201CD5
:10E61000C9010A1C2B1C00953830FDF7E1FA231CB8
:10E620004033181C0393FFF7BBFF231C221C6233EB
:10E630001D70FC2364321178201C0B401370231CC6
:10E6400068331D702C4B291CE36625670C2278303B
:10E6500005F0B6FE231C261C88331D60274B0836A8
:10E66000F3678436291C301C0C2205F0A9FE244BCC
:10E67000244AF360231CA03335611A60224A5D608E
:10E68000DA60224A1D619A61DD61381CFFF795FF4F
:10E690000398FFF792FF1E4B8026E360231C601C4B
:10E6A000C4331D705D709D70FF3004F077F8033740
:10E6B000184B7600FF37A35105A9381C0422059595
:10E6C00005F040FE059B144A591E8B415B421A40DF
:10E6D000124BFA60A3510122231C201CFE3352422C
:10E6E0005A85023B1D635D639D6307B0F0BDC04664
:10E6F000A8CF0200C8CD020088CD02007FC401006F
:10E7000071C4010098CD0200A8CD0200B8CD02006E
:10E7100080CC020000D3020001B2010018D3020035
:10E7200038B50C220D1C0021041C05F049FE002305
:10E730002361024B2560201CE36038BD35CB01000E
:10E7400070B50025041C0E1C85710583291C0C2244
:10E750001C3005F035FE2B4B201CA362231C3033EC
:10E76000E5621D70231DDD87291C44300C2205F055
:10E7700027FE254B65652365244BA6652360231C76
:10E780005C331D705D709D70DD70261C251CC036CD
:10E790006035281C0021FCF777FF0023AB82EB8259
:10E7A0001835B542F5D1261C5136FF36281C0021FC
:10E7B000242205F005FE281C2435FEF7B0FFB542E3
:10E7C000F4D1A82300215B00E150B422231C201CBB
:10E7D000FC3352009965D9651966596681306C61C0
:10E7E000A150196759679967D967A3185C61FF3011
:10E7F000FFF796FF201C9530FF30FEF790FF201C9E
:10E8000070BDC04619CB010027CB0100F8CE020035
:10E81000FC3070B5466B051C002E1CD1B420800066
:10E8200001F056F9041C0D4B866043600C4B4661A9
:10E8300003610C4B0662C3610B4BC66283620B4BD8
:10E84000211C03603430FFF77BFF201CED30FF30CC
:10E85000FDF7BAFA6C63686B70BDC04688CE0200E3
:10E8600078CE0200D8CE0200E8CE020010CD020021
:10E8700070B50025041C254B05710360244B4571C0
:10E880008360244BC5604361234B85610362234B46
:10E890004562C3620563291C3830FFF741FF201C25
:10E8A000291C4C30FFF73CFF201C291C6030FFF76F
:10E8B00037FF1B4B251C2360231C7435C4330022F7
:10E8C00004C59D42FBD1261C6536FF36281C00215D
:10E8D0000822083505F074FDB542F7D1221C8532B7
:10E8E000FF32002308C59542FBD1C2225200A35437
:10E8F000231C221C87339732FF33FF3200211980FB
:10E9000002339342FAD1201C70BDC046A8CE02004B
:10E9100068CE020078CE020088CE020098CE0200B7
:10E9200050CD0200FC3038B5036B041C002B07D11E
:10E93000CC20400001F0CCF8051CFFF799FF2563BF
:10E94000206B38BDFC3038B5036B041C002B07D19D
:10E95000CC20400001F0BCF8051CFFF789FF2563BF
:10E96000206B38BD031C0A1C70B570CA70C3CB681D
:10E97000C3600023036170BD08B58130FF30FFF72D
:10E98000F1FF08BD10B5054C201CFFF72BFE201C25
:10E990000349044A05F008FB10BDC046783A002040
:10E9A00021E50100F82E002070DF704771DF70470D
:10E9B00008B502F0D7FF08BD074B10B51C78002C36
:10E9C00007D10122201C1A70FFF708FE211CFDF759
:10E9D0003EF9002010BDC046D03B0020F0B5051C1C
:10E9E0008BB001F0ADFE281C00F042F90020FFF7CB
:10E9F000F5FD0368061C9B6998473368041C1B6A75
:10EA0000301C984733680090DB6A301C9847031C21
:10EA1000288810380D2800D9D2E00AF045FE0751A9
:10EA2000D1D1D18AD1D1D1D1D192D1AFAE88201C50
:10EA3000311CAF7DFDF7B5FE221C0121EB7B583266
:10EA400001931378287A8B4349180B431370023AC9
:10EA5000137869460133137004ABD8701E809F7021
:10EA60000023097904AA137153719371D37113723E
:10EA70005372D372137353739373D373137491726A
:10EA80002B1C291C18330931062205A8099305F00F
:10EA900059FC0B20291C04ABC0181031062205F0CC
:10EAA00051FC94346368A360A068002800D187E01B
:10EAB000C36804A99847A368002BF3D01B69F2E749
:10EAC0004249201CAF88FDF76CFE2B7A301C019365
:10EAD00033689B6A9847061CED30FF30391C0622CC
:10EAE000FDF784FA338FBB4204D1301C736B343092
:10EAF0009B689847221C56321378013BDBB2137097
:10EB0000002B03D1022193788B4393706A461279CC
:10EB100004AB1F809A70A0346368A360A0680028CB
:10EB20004ED0C36804A99847A368002BF4D01B6992
:10EB3000F3E7291C5B69A8880831002B40D098476F
:10EB40003EE02E7A002E05D1221C01215832137886
:10EB50008B431370636E002B32D01D4A002A2FD0D6
:10EB6000A366A06E00282BD0C368311C9847A36E03
:10EB7000002B01D1636EF3E71B69F1E70126291C25
:10EB80002B7C09315A07920F1E400192DB080622A6
:10EB900004A8EF7B029305F0D5FB6A46127904AB1B
:10EBA0001A726A46127A9F71DE715A722B1C1133E7
:10EBB0000793231C201C8C3380301B6804A99847C2
:10EBC0000098291CFEF75EFC0BB0F0BDFFFF0000B3
:10EBD00061BA010010B588B06A460123137006338C
:10EBE000D37000236846537093701D4948221D4B13
:10EBF00003F064F9002801D003F0BCF803AC221C38
:10EC00000320012103F0C6F9C0230122DB002361A8
:10EC1000237B1343237304232380002801D0072080
:10EC20001CE0201C03F0CEF90028F8D101A8FFF762
:10EC3000BDFE0028F3D101A9FFF7B6FE0028EED1F2
:10EC4000094803F083F980B2002807D1074803F090
:10EC500087F980B2002801D100F0D4F808B010BDC7
:10EC6000D43B0020B9E90100DDE90100B1E9010070
:10EC70007FB5041C0020FFF7B1FC051C03689B69ED
:10EC800098472B68281C9B6A9847031C061C051C88
:10EC90002088ED3330383436FF33092800D99FE01F
:10ECA0000AF002FD059E137F90212E9E4660E388A8
:10ECB000002B05D1211C301C0C31FEF78FFD8FE09D
:10ECC0006B6B301C9B6898478AE0E388002B05D16A
:10ECD000211C301C0C31FEF703FE81E0301C0021AA
:10ECE000FEF7D4FE7CE06B6B301C5B689847002815
:10ECF00000D175E0211C301C0C31FEF74DFE6FE099
:10ED00006A46A3881380A3895380E3899380238A6A
:10ED10001234D3800294AB68EB60E86800285FD0BF
:10ED2000C36869469847EB68002BF4D01B69F3E78A
:10ED30006A46A3881380A3895380A37B1371238A17
:10ED4000D380638A1434138103946B69AB61A8691F
:10ED5000002845D0C36869469847AB69002BF4D0BA
:10ED60001B69F3E76A46A3881380A3895380A37BBA
:10ED70001371238A12340294D3802B6A002B2FD074
:10ED80001B4A002A2CD06B62686A002828D0C3680E
:10ED9000694698476B6A002B01D12B6AF3E71B6920
:10EDA000F1E7E288A188002A06D08520400082424F
:10EDB00012D1181C002211E0221C181C0C32FDF785
:10EDC00021F90DE0E288A188002A05D1221C181C37
:10EDD0000C32FDF75AF903E0181C0B22FDF706F977
:10EDE000301CFEF76DFF301CFEF7ECFE7FBDC04609
:10EDF00061BA010077DF704778DF70477ADF7047CC
:10EE00007CDF70477FB5002302AC03932833238057
:10EE10006933FF33114D6380E380803BFF3B01AEDC
:10EE2000281C337005F0CCFB291C82B2301CFFF784
:10EE3000E7FF80B200280FD180208000FFF7DCFFC1
:10EE400080B2002808D1201CFFF7D8FF80B200282C
:10EE500002D1FFF7CFFF80B204B070BDECCF02004B
:10EE60007EDF704768DF704738B500200D1CFFF764
:10EE7000B5FB0368DB6A98472B78041C142B17D06A
:10EE800002D8132B05D041E0152B16D0222B37D0FA
:10EE90003CE06B68012218881B796468191C5D08C6
:10EEA0005B0611405B0F2A40002C2FD0A0472DE0BD
:10EEB0006B6818881979A3681EE06A6811790B09D4
:10EEC0000907090F012902D0022908D011E0013BEE
:10EED000DBB20021022B0DD80D49C95C0AE00421E8
:10EEE000012B07D0023B5842434101315B4219409C
:10EEF00000E000211088E368002B07D0984705E068
:10EF00006B6818882369002B00D09847002038BD13
:10EF1000F2CF0200014B18787047C0461D3C00201C
:10EF2000F0B5314E87B0347800960026B44257D100
:10EF30001C1C01920D1C071C02F046FDB04201D0C2
:10EF40000B264DE0002C0FD0222003A90394FFF7DD
:10EF500089FF002808D00626082841D01138061C51
:10EF60007042464104363BE0002302AA101C137095
:10EF700001F05EFA011EE3D101241C4E27403078D7
:10EF80002540A04338436B000227051C0720BD43E2
:10EF90001D437023019A9D430240120115433570B1
:10EFA00003AD0C22281C05F00BFA0920104B311C74
:10EFB000039302ABC01805222F7105F0C3F90D4869
:10EFC000291C01F0A5FA002807D00726042807D03D
:10EFD000013E082804D0053602E0061C009B1C7088
:10EFE000301C07B0F0BDC0461D3C0020162F00208D
:10EFF00069EE01001C3C002008B5074801F050FBF9
:10F000000023984206D00733042803D0013B082888
:10F0100000D00533181C08BD1C3C0020002373B52C
:10F0200001930F4B01AD1B780E1C291C2B7001F0B6
:10F0300057FD041E04D0042305280FD007330DE02C
:10F04000281C311C01F09EFA231C002806D007233F
:10F05000042803D0013B082800D00533181C76BDD6
:10F060001C3C002073B5104C0E1C051C211C68466E
:10F07000052205F067F9012E06D0022E11D10122DA
:10F0800023781343B34303E002222378B34393432B
:10F09000281C69462370FFF7E3FE031E02D00B23F2
:10F0A00000E00223181C76BD162F002008B5094B7E
:10F0B0001A780923002A0AD0011C074801F09AFA9D
:10F0C0000023984203D003330E2800D00333181CCA
:10F0D00008BDC0461D3C00201C3C002008B501F0C6
:10F0E0004EFD08BD08B502230A1C0B708C330B7152
:10F0F0003F3B4B712D338B710132043101F016FD12
:10F1000008BDA2DF7047A3DF704763DF70470000D0
:10F110000022014B1A607047203C002010B586B0D9
:10F120006B46DC1D00232370C15C02AA9954013395
:10F13000102BF9D1101C211CFFF7E7FF0023984288
:10F1400000D12378181C06B010BD00000122F0B5D4
:10F15000438A87B0039303780192002B41D0264B5A
:10F1600087181A681D1C02920022029B9A4217D02F
:10F17000112100235143214E71189C1E012C04D9EA
:10F18000CC5CA446FC5CA44508D10133102BF4D11F
:10F1900011235A43B618337C019322E00132E4E78D
:10F1A000041C381CFFF7BAFF2378061C0190002BC3
:10F1B00001D11234271C029B042B12D01124181CDD
:10F1C00060430E4B391C1818102205F0BBF82B6851
:10F1D0000A4A5C43171900220133BA70FA703E7470
:10F1E0002B606A46127905AB9A705888039B00041D
:10F1F0000343181C07B0F0BD203C0020243C002035
:10F20000F0B599B01F1C1EAB029102CB09AD1B8853
:10F210000190039320AB1B88281C049321AB1B781F
:10F22000059323AB1E8824AB1C7825AB1B78069373
:10F2300006ABD91D0A70012205F084F830232A7824
:10F240001A4211D00AAD00210322281C05F0B8F89B
:10F250000622AB789343043A13430E32AB70111C71
:10F26000012319432970697011AD00211C22281C4B
:10F2700005F0A6F809AB1A7830231340581E8341D5
:10F280000AA95B4219402A706961002E05D0229BB1
:10F29000002B02D06B602E816E81012000230BAD0C
:10F2A0002B800440069BE4000340E4B21901231CB8
:10F2B00002240B431C433223059901400C43AC70DC
:10F2C0001A421ED0781E04281BD82978233B994364
:10F2D0000AF0EAF90305070C1100012007E00120FC
:10F2E0000AE0012001430B40302108E002200143E5
:10F2F0000B40102103E0022001430B4020210B436F
:10F300002B700C231A421ED0781E04281BD86A7852
:10F3100003339A430AF0C8F90305070C11000121D1
:10F3200007E001210AE001210A431340302208E0EE
:10F3300002210A431340102203E002210A43134032
:10F34000202213436B700CAC201C0021142205F00A
:10F3500037F8029B01980C936B469B8911A9238176
:10F360006B461B8A221CA3811E9B65602361269B22
:10F37000FFF7C7FE80B219B0F0BDF0B589B00093B9
:10F380000EAB1B88161C01930FAB1A7801230F1CC0
:10F3900002211A400A4302A98A70191C1022051C76
:10F3A00002A81143021C03AC01705170201C002103
:10F3B000142205F005F802AB63606B461B88281C1D
:10F3C00023816B469B88211C109A0397A381266199
:10F3D000FFF799FE80B209B0F0BD000038B50C1CF3
:10F3E000051C2822081C002104F0EAFF201C094902
:10F3F0000B2205F019F900230122E372E260AA68EA
:10F400006362002322610322A361E361024B626114
:10F41000236238BDF5CF02000AD7233C10B5034C58
:10F420008160083404604271036110BD00D00200A5
:10F430001FB503AB5A700022197041790092490040
:10F440001A1C0069022303F0F1F8012005B000BD89
:10F4500008B50A1C01733D21FFF7EAFF1E2003F0E7
:10F460000FFB08BD70B5041C0D1C0021067BFFF7C7
:10F47000EFFF192003F004FB07210022201CFFF7F7
:10F48000D7FF201C3F218022002D00D12A1CFFF72E
:10F49000CFFF0A2003F0F4FA311C201CFFF7D8FF3D
:10F4A000142003F0EDFA70BDF0B50F220E250027F1
:10F4B0000126041C85B06D446A442F701170417997
:10F4C0000096331C4900006903F0B0F86179009799
:10F4D000B14020692A1C331C03F0CAF8287805B013
:10F4E000F0BD000038B5041C0D1C0069274903F06D
:10F4F00071F8201C0021FFF7D7FFA02809D1201C9C
:10F500000021FFF7A5FF201C3F212022FFF790FFDD
:10F510000BE0FA20800003F0B3FA201C0021FFF773
:10F52000C3FF0023A0282FD1E9E7201C0021FFF70B
:10F53000BBFFA02803D00A2003F0A2FAF5E76E383B
:10F5400003F09EFA3E210022201CFFF771FF0A20E3
:10F5500003F096FA07210022201CFFF769FF3B21E8
:10F560000222201CFFF764FF00223F21201CFFF72E
:10F570005FFF0A2003F084FA201C291CFFF768FFB4
:10F58000142003F07DFA0123181C38BDA086010069
:10F5900008B53421FFF788FF40B208BDF0B5171C4D
:10F5A0000F22012585B06A4411704179041C009531
:10F5B0001E1C49002B1C006903F038F800236179F8
:10F5C0000093A94020693A1C331C03F051F8281C11
:10F5D00005B0F0BDF7B50C1C171C00211822061C45
:10F5E00004F0EEFE00210622684604F0E9FE201C2D
:10F5F0006A460623391CFFF7D1FF6B466A465B78E3
:10F6000010781B02D578034390782D025479054376
:10F61000107924020443142F0CD004D8082F3BD0B7
:10F620000E2F1FD053E0282F36D02E2F34D01A2F74
:10F6300018D04CE018B20CF08DF90022254B0AF0DE
:10F6400001FF3060716028B20CF084F90022214B78
:10F650000AF0F8FEB060F16020B20CF07BF90022F5
:10F660001C4B30E018B20CF075F900221A4B0BF06D
:10F6700027FB3060716028B20CF06CF90022164B49
:10F680000BF01EFBB060F16020B20CF063F90022B9
:10F69000114B0BF015FB18E018B20CF05BF90022CF
:10F6A0000E4B0AF0CFFE3060716028B20CF052F9B8
:10F6B00000220A4B0AF0C6FEB060F16020B20CF0E6
:10F6C00049F90022054B0AF0BDFE30617161301C22
:10F6D000FEBDC04600208C400000B03F00005940F5
:10F6E00030B5242287B00C1C051C081C002104F036
:10F6F00067FE24232360AB681A2263600323A360A0
:10F70000002368462361291CFFF764FF00980199D4
:10F710000CF08EF96061029803990CF089F9A061F0
:10F72000049805990CF084F9E061012007B030BD20
:10F73000031C04CB10B5041C002A00D1036022680E
:10F740009A4204D003480449562203F057F820682F
:10F7500010BDC0461CD0020030D0020038B50023D6
:10F76000C356051C0C1C013304D109480949202249
:10F7700003F044F800210123A0226956D2058B40F2
:10F78000002C02D0A121C90000E00349535038BD2C
:10F7900006CB020049D002000C0500001FB5152160
:10F7A000684603F0D2F801A8162103F0CEF802A8AB
:10F7B000172103F0CAF803A8182103F0C6F8684619
:10F7C0000121FFF7CBFF01A80021FFF7C7FF02A827
:10F7D0000021FFF7C3FF03A80121FFF7BFFF962019
:10F7E00003F04EF968460021FFF7B8FF01A8012198
:10F7F000FFF7B4FF02A80121FFF7B0FF03A8002123
:10F80000FFF7ACFF962003F03BF9D8E770B5051C75
:10F810000C1CA0B003F00AF8291C6846221C07F053
:10F8200061FC051E03DC03F02FF820B070BD0A4B0D
:10F830000A4E1B68002B04D1301C09210B2202F058
:10F84000AFFD00246B46301C195D013402F05EFDF3
:10F85000AC42F7D1E7E7C046B4400020BC430020EB
:10F860000FB407B504A901C90191FFF7CFFF03B099
:10F8700008BC04B018470000084B10B51B68002BEB
:10F880000AD1074C0921201C0B2202F089FD962188
:10F89000201C890102F074FC10BDC046B440002059
:10F8A000BC43002008B5031C0020022B0DDD0749D6
:10F8B000033B9B005A585850824204D01368101CD6
:10F8C0005B68984701E00120404208BD6C3C002085
:10F8D00070B50C1C151C022810DC0F4B1B68002B8C
:10F8E00001D1FFF7C9FF6619B44205D021780B4852
:10F8F00002F00CFD0134F7E7281C0BE00338084B3D
:10F900008000C058002803D003681B68984701E0B6
:10F910000120404270BDC046B4400020BC430020DE
:10F920006C3C002010B50C1C02280BDC0C4B1B6837
:10F93000002B01D1FFF7A0FF0A4802F0C3FC2070A2
:10F9400001200BE00338084B8000C058002803D08A
:10F9500003689B68984701E00120404210BDC04603
:10F96000B4400020BC4300206C3C002008B5031CC0
:10F970000120022B0BDD033B054A9B009858002811
:10F9800003D00368DB68984701E00120404208BDCE
:10F990006C3C002008B5031C0020022B0BDD033B50
:10F9A00005489B001858002803D003681B69984736
:10F9B00001E00120404208BD6C3C002008B502284F
:10F9C00004D880239B014B60002005E004F034FB49
:10F9D000092303600120404208BD08B5012004F05E
:10F9E00031FB704708B5FFF7FCFF08BD7047704753
:10F9F00008B5FFF7FCFFFFF7F9FFFBF7A1FE08BD15
:10FA00000C4910B50B681818EFF30882904205D323
:10FA10000C220120084B40421A600AE0074A126893
:10FA2000002A04D0064C2468A2189042F0D2086044
:10FA3000181C10BD1C2F0020E4430020683C00204F
:10FA40006C3D002008B5002801D0FFF7A7FEFEE7B7
:10FA50007047704708B5FFF7FBFF08BD08B5FFF713
:10FA6000F8FF08BD032310B5027813400022012BD4
:10FA70000CD0041C934204D005480649064A02F003
:10FA8000BDFE0222237813432370013A101C10BDDF
:10FA9000C1D00200E7D00200DB020000032310B552
:10FAA0000278041C1340022B04D006480649074A7A
:10FAB00002F0A4FE032223789343023A13432370F7
:10FAC00010BDC04629D10200E7D00200E3020000C9
:10FAD00010B504F0B9FB041E02D1024802F0F6FE94
:10FAE000201C10BD68D1020008B5002801D004F028
:10FAF000B5FB08BD03210A4802680A4302600948B1
:10FB000002680A4302600849084A094B9B1A03DD50
:10FB1000043BC858D050FBDC0648804706480047E5
:10FB20002405004054050040F4D90200F82E0020BE
:10FB3000D037002049FB010075B10100FEE7FEE768
:10FB4000FEE7FEE7FEE7FEE7344B10B51A78012A20
:10FB500019D1334A1268120715D1324AE0241168CC
:10FB6000F022081C104021420BD12F490968114294
:10FB700009D12E492E4A116080212E4A09021160B6
:10FB800001E03028F1D01A78012A0DD12449096802
:10FB9000090709D1F020234909680140402903D110
:10FBA00021490968014231D01B68DBB2012B1FD10A
:10FBB0001B4B1B681B071BD11A4B1A68F0231A40FA
:10FBC000A02A04D1184A12681A4203D010E0D02AA1
:10FBD0000ED1F7E7184B1A68012A03D1C022174B40
:10FBE0001A6005E0164A1A601A68012AFCD1F5E786
:10FBF0008022A32301210020D205DB00D150114B2C
:10FC0000986091609A68002AFCD005E0C1218020AC
:10FC1000C900C0054250C7E710BDC046E00F00F064
:10FC2000E40F00F0E80F00F0EC0F00F0DFFF07C07A
:10FC300004050040186C004000EC064014EC06403F
:10FC400075930000FC00004008B5031CA022C133DE
:10FC5000FF339B00D2059B589B039B0F033B5942EC
:10FC60004B410221C91A0A4B1B68C340DB070ED562
:10FC7000084B1B5C012902D1DB0902D107E05B06BE
:10FC800005D5054B054A80001B688058984708BD7C
:10FC9000B043002090430020703D0020743D0020C0
:10FCA000F7B5324D041C2B68314EC340DB0709D534
:10FCB000335C9A0704D59B0602D401F0B5F801E045
:10FCC00001F0A8F9335DDA0701D49B0646D5335D10
:10FCD00001A99A0704D59A06D20FD0B200282ED0D7
:10FCE00000230322CB708B700A70335D9F06F80FE0
:10FCF000002F14DA4A70201C1E4A01F0B9F80123C3
:10FD0000A3401D4A12681A4221D0335DDA0901D19D
:10FD10005B061CD5201C012101F014F917E0DB065D
:10FD20009B0FDAB2012A01D0032A01D14B7000E007
:10FD30004870201C01A9002201F09AF807E05B0737
:10FD40000880DB0F201C8A704B7001F017F801232C
:10FD5000A3401C1C2B681C432C6005E00123A3401E
:10FD60001C1C2B68A3432B60F7BDC0468C430020AE
:10FD70009043002049FC0100B043002010B5041C52
:10FD800001704B1C10D0C9B21E2904D9074808497C
:10FD9000442202F033FD00F0C7FF00220120054994
:10FDA000A2568B5C03438B5410BDC046EDD10200BC
:10FDB0000CD20200904300200023C35610B5041C4F
:10FDC000013304D10D480E494D2202F017FD0022E7
:10FDD000A0210C4BA256C905985C8007C30F012BCC
:10FDE00004D1A120C0000858D04005E0A223DB00C8
:10FDF000CB58D340181C0123184010BD06CB02007D
:10FE00000CD202009043002038B50023C356051CD5
:10FE10000C1C1F2B04DD0A480A49912202F0EEFC5B
:10FE20000321214018242878074D42B2CB00A95C59
:10FE3000C0B2A1431943A954FFF732FF38BDC046F1
:10FE40006BD202000CD202009043002038B5002390
:10FE5000C356051C0C1C1F2B04DD0A480A499922B5
:10FE600002F0CCFC0121214002242878074D42B247
:10FE70004B00A95CC0B2A1431943A954FFF710FF7E
:10FE800038BDC0466BD202000CD202009043002065
:10FE90000023164A30B51360A022A1201449D200D5
:10FEA0008B50144BC0005A7C0C58DD6850004453F2
:10FEB00001321C7CD2B25A740120944215D99A683E
:10FEC0005268002A02D15868986001E09A60021CCA
:10FED0009B681868084BC850A0200123C0000B5035
:10FEE0000020824201D0024A136030BD0071004000
:10FEF00000700040F03D0020040500001FB5144CC8
:10FF0000E168002910D1134BC22019600123124A65
:10FF100080001350F930FF301150A121C900525810
:10FF200001A8037082800FE0FFF7B2FF00280ED017
:10FF3000C2220123084992008B50002201A80270BE
:10FF4000E2684260227C0281A374236898471FBD47
:10FF5000F03D002000710040007000404CDF704711
:10FF60000120054A08B513785840044B10701B68EF
:10FF7000002B00D0984708BD083E0020043E00201A
:10FF8000134B70B51A608024C022124B5200A40398
:10FF90009C50421E022A0CD802280AD0C525AD006A
:10FFA0005E590D4A80033240104358515A59520449
:10FFB00001D40A480BE00A4A5068002803D01368AD
:10FFC0001C43146000E01C600320FFF7C7FF70BDF6
:10FFD000043E002000E100E0FF00FFFF02200000DF
:10FFE000B44300207FDF704786DF7047A7DF70478C
:10FFF000A9DF7047AADF70470020704700207047D4
:020000022000DC
:100000000020704700207047002070470020704794
:1000100000207047F0B585B0041C0E1C02AA817840
:10002000214801F075FD00283CD10C2361781F4A5E
:100030004B43D3189B7A1E4F01925B0605D4022EC8
:1000400003D01C4F012E00D01B4F1C25A1781B4B49
:10005000694302A859182A1C0023B847002813D165
:10006000022E1FD00C234021627802A85343019A2C
:10007000D3189A7A8A439A726178114B69432A1C81
:1000800059182B1CB84701E0022E0BD00C23227804
:1000900002A853430B4A211CD3189B7A0A4A9B009F
:1000A0009B58984705B0F0BD283F0020123E002025
:1000B000D91B02005D1B0200F9FF0100203E002059
:1000C000E43E0020183F002098D20200F7B5182225
:1000D0000190437829485A4381184C68284F002CD6
:1000E0000FD00C2159437918897A4DB2002D07DAC7
:1000F000490605D4151C0835A6B24519145802E066
:100100000024261C251C0C225343FB181889291C8B
:10011000321C231CFFF76CFF0B2818D10C22019B0B
:10012000291C5B785343FB181889321C0123FFF705
:100130005FFF00280ED00C21019B124A5B784B43D5
:10014000FF183889FFF752FF00280AD115E0002870
:1001500003D100E00124002000E00B48012C0CD169
:10016000E9E70222094BC318934303D0082801D0C2
:10017000112801D1044800E00020FEBD003F00200E
:10018000123E0020FFFF000041800000FECFFFFF75
:1001900008B5FFF79BFF08BDF0B589B002AB9D1D08
:1001A0000E230C22019000912B804B7804A953431D
:1001B000224AD31818892A1C0323FFF71BFF0028A3
:1001C00038D11826009B1E4F58782A887043083073
:1001D000381804A904F08EF8009B3C1C5B780028BA
:1001E0000DD10C225A4315498A18917A02221140E6
:1001F00020D17343321CF81804F0E2F81AE05E4391
:10020000BE1972680F4F002A00D10F4F1826032223
:100210007343E2502A88E11808334A60E01804A9C1
:1002200004F090F8009B01985978321C71433823F0
:100230006118B847002009B0F0BDC046123E00204A
:10024000003F0020D91B02005D1B020008B5FFF72C
:10025000A3FF08BD70B51824031C4878094D6043FE
:100260000E1C2818191C221C382301F0F3FC00284E
:1002700006D173785C432C196368013300D1606048
:1002800070BDC046003F002008B5FFF7E3FF08BD82
:10029000F0B5444C95B02468002C00D180E01A9C45
:1002A000542C7DD80024161CFF221D1C03AB5A7051
:1002B0009A70DA701C701A9B06AF009101903C7026
:1002C0000B950A93A1B2384804AA01F021FC00283A
:1002D00009D1019804A9082204F00CF8002802D1E1
:1002E00003AB9C7002E00134072CEBD103ACA17886
:1002F000FF2955D0009B032B0AD11A9A06AB542A2A
:1003000001D1343A00E040221A701A78032139E012
:10031000264BEB1AC32B10D8254B002E04D10122FB
:100320008A40186810423BD001228A4019689143E4
:100330002022196006AB1A701EE01E4BEB1A1B2B15
:1003400008D8202306AA1370002262700CAA0B9210
:100350000A9311E018482D1A172D21D830233B702D
:10036000002363700133E370144B997A0223194020
:1003700002D1182204F024F8009A06AB022A0CD10C
:1003800001211A780A431A7009AB0793054B201C08
:100390001B6806A9321C984702E01A780221F1E78F
:1003A00015B0F0BD183F0020283F0020203E00205F
:1003B000243F0020E43E0020003F0020123E0020A9
:1003C00070B51C2444430D4E051C3019002134190E
:1003D0000622113003F0F4FF201C0021102203F04C
:1003E000EFFF0120FF23A840054A2374A376013BB9
:1003F000FF3B238313688343136070BD203E0020BE
:10040000243F002037B581B2051C6A46074801F039
:100410007FFB041E08D16846542101F067FC041ECE
:1004200002D1281CFFF7CCFF201C3EBD283F002036
:10043000F0B585B0002856D000252C4B041C1D605B
:100440005D729D7201232A48291C8372023B072298
:100450000381C37203F0B4FF2648291C182203F05D
:10046000AFFF281CFFF7ACFFFF22234BEA540135F6
:10047000072DF6D16A465423204F9380204B6846BF
:10048000391CD580009301F0E1FA3E1C00282BD1E5
:1004900001231C4D24782B70002C1AD1A1B2301CE2
:1004A00002AA01F035FB071E0CD11C22131C63436A
:1004B000154802A9C0183B1C01F0CCFB002804D051
:1004C0002F7011E000232B700EE00134072CE5D1D2
:1004D0000AE06B466A46DB889188381C594389B22A
:1004E00001F004FC00E0094805B0F0BD183F002011
:1004F000123E0020003F0020093E0020283F00203F
:1005000091020200103E0020203E00200E800000DC
:10051000F8B5174B1B78002B24D0002824D00029D5
:1005200022D00B68002B1FD0124D2C68002C1DD13F
:10053000061C281C0F1C08C00531052203F002FF11
:100540003B790220AB72012304212A7A9A430243A9
:100550008A432A72EA79134303438B43EB71201CCD
:10056000347004E0044802E0044800E00448F8BDA8
:10057000103E0020183F0020088000000E80000080
:1005800004800000154B1B78002B22D000281ED0C1
:1005900000291CD00378002B1BD1114B1B68002BAA
:1005A00017D04278002A16D10E4B9B7A012B12D01D
:1005B0002420184003D00123101C0B700CE05BB208
:1005C000002B02DA02230B7006E0087004E00648F4
:1005D00002E0064800E006487047C046103E002092
:1005E000183F0020123E00200E800000088000000E
:1005F00010800000234BF0B51B78002B25D000287D
:1006000021D000291FD00B68002B1CD08B68002B39
:1006100019D00378002B18D11B4A1268002A14D075
:100620001A1C181C194D1035194CE67AB3420ED11C
:10063000A47AA4070BD501331C35072BF4D108711C
:100640000A7300201CE013481AE0134818E00C7BE2
:10065000A2420AD2AC7AE40707D42E1C8F68940019
:10066000103EE6510D4CA35401320C79A042E2D267
:10067000AC7AA407DFD40E688400A5510130DAE714
:10068000F0BDC046103E0020183F0020203E002054
:10069000123E00200E80000008800000093E00206D
:1006A000104B10B51B78002B19D0002815D00478FA
:1006B000002C14D10C4B1B68002B10D0201C1C23C9
:1006C00063430A4AD3189B7EFF2B02D0201CFFF7FE
:1006D00099FE0134072CF2D102E0054800E00548FC
:1006E00010BDC046103E0020183F0020203E0020D4
:1006F0000E8000000880000013B5041C81786A4653
:100700000B4801F005FA002810D11C236078094A33
:100710005843694610181A1C01F09CFA064B074A08
:100720009B7A68469B009B58211C984713BDC04686
:10073000283F0020E43E0020183F0020A8D20200FD
:10074000FF23F0B5C44A91B012780393002A00D178
:10075000BDE1C24A11680192002900D1B7E104ACA1
:1007600005AF6370A370E370031D7B602C23002230
:100770003B810388051C2270102B0CD0B84A80885E
:10078000927AB74E910741D5B649884209D031894E
:1007900081423BD105E00126B14B9B7A334206D121
:1007A00095E1AF49C97AA170002161702EE0112353
:1007B00062703B708388AA4A071C138102230837A2
:1007C0009372101C391C072203F0BCFDEB7D1E4008
:1007D00006D0A54A5B08D35CFF2B49D0039347E0C2
:1007E000A24D1035002F05D12A899E4B9A4208D17F
:1007F00003963DE0281C391C072203F07BFD0028EE
:10080000F6D001361C35072EECD116E0192B75D128
:1008100001260424101C1427019B01995B7AA04334
:10082000B3434B728E4B05A90F7098722F7A191C27
:10083000002F2AD16B7A23422ED10024019B05ADD3
:100840001B6804A8291C221C98472B78122B00D067
:100850003DE18348837A012B00D138E10123837283
:10086000023B0381C3720021072203F0A9FD2EE1A0
:1008700008207B4A039B917ADBB20143D3729172C9
:10088000201CA370FFF738FFD7E75206D5D4D87ADB
:10089000FFF7B8FD2C7AD1E704ACA378FF2BCCD0BE
:1008A000082202438A726A7B920706D51C205843AD
:1008B0006E4A1018827EB2438276CA7AFF2ABCD072
:1008C0001C220D7869485A43022D09D08518281C2E
:1008D0000722103003F036FD2A1CAB7E022106E011
:1008E00063498318498A1A1C198301219B7E8B4313
:1008F0009376201C0121FFF78DFB9EE7192B00D971
:100900009BE0132B53D1132304213B70544B114311
:10091000DE7A9972191CFF2E3BD100261C207043F1
:10092000524F3818837EFF2B16D1031C0A781833D8
:10093000022A06D0FD2210309A70F63A03F002FD2A
:1009400001E0FE229A7003AB1E70039B444ADBB2A7
:10095000A370D372002403E00136072EDED1454C8C
:1009600000213F4B0C91DA7A1C235343FF18404B74
:100970000D970893019B0E910F9109910A910B918C
:100980001A1DA88808ABFFF72DFB002800D155E7FA
:100990009DE044210A439A72162300223B704131A4
:1009A000131CFFF71FFB041E00D090E046E7142B3A
:1009B00027D12B4FFB7A0197FF2B16D10023288AD2
:1009C0001C212A4F5943BC466144098B814209D1FD
:1009D0000821DBB20A43F372B272201CA370FFF746
:1009E0008BFE02E00133072BEAD1019B0021DB7A69
:1009F000FF2B00D01E49A8881C4A0023FFF7F4FAF9
:100A000065E0112B63D10223111C154D9943A97286
:100A1000120707D54BB2002B0BDA201C0021FFF781
:100A2000F9FA06E0A078FF2803D0FFF7C9FCFF23FE
:100A3000A3701023AB72023302E01E2B02D11323EA
:100A40003B70FAE6522B19D1019B0B4A9B7A201C72
:100A50009B009B5898473AE0103E0020183F00202A
:100A6000123E0020FFFF0000093E0020203E002033
:100A7000E43E00204380000088D202001A2B26D1D9
:100A80002B7A112B14D1130712D512480E220830DD
:100A9000002103F095FC162360223B70B37A1343C8
:100AA000B372019B5E3A5B7A1343019A5372C4E6B8
:100AB00080235B421A43084B201C9A7215233B701B
:100AC000019B064A9B7A9B009B589847B5E611B05C
