:020000021000EC
:10B000000080002091F30100D9F30100DBF301007F
:10B010000000000000000000000000000000000030
:10B02000000000000000000000000000DDF301004F
:10B030000000000000000000DFF30100E1F3010068
:10B04000E3F30100E3F301006D160200951D020019
:10B05000A51D02000000000009070200E3F3010043
:10B06000E3F30100E3F30100E3F30100E3F3010084
:10B07000E3F30100E3F30100E3F30100E3F3010074
:10B08000E3F30100B5270200E3F30100E3F301005D
:10B09000E3F3010031F70100B5150200E3F301000D
:10B0A000E3F30100E3F301000000000000000000F2
:10B0B0000000000000000000000000000000000090
:10B0C00008B5054B054803331B1A062B03D9044B5F
:10B0D000002B00D0984708BD903700209037002003
:10B0E000000000000648074908B5091A8910CB0F6F
:10B0F0005918491003D0044B002B00D0984708BDC5
:10B1000090370020903700200000000010B5074C59
:10B110002378002B09D1FFF7D3FF054B002B02D07A
:10B12000044800E000BF0123237010BDA0370020B9
:10B1300000000000589B020008B5094B002B03D00B
:10B140000848094900E000BF08480368002B02D105
:10B15000FFF7C8FF08BD064B002BF9D09847F7E76B
:10B1600000000000589B0200A43700209037002008
:10B1700000000000144B002B00D1124B9D464022D2
:10B1800092029A1A924600218B460F461148124AA3
:10B19000121A07F079FD0D4B002B00D098470C4B8D
:10B1A000002B00D098470020002104000D000B4820
:10B1B00007F04EFC07F088FC2000290004F066F838
:10B1C00007F058FC0000080000800020000000008C
:10B1D00081F20100A0370020D03F0020952A020014
:10B1E00008B50368002B01D0081C984708BD08B5B6
:10B1F0000368002B01D0081C984708BD08B50B68F0
:10B20000984708BD08B50368002B01D0081C984773
:10B2100008BD08B50368002B01D0081C984708BD7D
:10B2200008B50368002B01D0081C984708BD000032
:10B2300038B50023C356051C0C1C013304D1094842
:10B240000949202206F05AFC00210123A022695658
:10B25000D2058B40002C02D0A121C90000E0034997
:10B26000535038BDCA8F0200E28F02000C05000067
:10B2700010B5054C201C04F0EDF941424141201C61
:10B28000FFF7D6FF10BDC046E837002010B5041CFC
:10B29000044B036006F0AEFB201C06F023FC201CD0
:10B2A00010BDC046B096020008B5074B42881B6827
:10B2B0005B8C9A4207D10389012B04D1C3680348F0
:10B2C0001978FFF7B5FF08BDE4370020E937002003
:10B2D00010B5041CFFF7DAFF201C04F053F8201C03
:10B2E00010BDF7B5041CC07F0126C5181D2D1DDC3F
:10B2F0000F1C01929919321C20181D1C07F0C4FC68
:10B30000E07F321C8019C0B2E077391C201807F0AA
:10B31000BBFCE07F2A1C80190026C0B2E0770199AF
:10B32000201807F073FCE37FED18E577301CFEBDB5
:10B33000F7B58E1EF6B2041C0191089D132E22D87B
:10B340000120071CB7403E1C254F3E421BD0E17F29
:10B35000CE1861181F2E41DC681C814203D9087881
:10B36000C8540139F8E70021C8B2984204D2565CAB
:10B37000681886700131F7E72A789A182A70E27FF8
:10B380009B18E3770DE02E78771EFFB2BB420AD1FF
:10B390000021C8B2984204D2545C6818847001310C
:10B3A000F7E700201AE0E07FC01BC0188446614622
:10B3B00001201F2912DCB81C2818E57F611988427A
:10B3C00005D20178C51B023D29700130F5E7F6432F
:10B3D000AD190199201CE577FFF783FFFEBDC0463C
:10B3E0003F000800F7B50024C67FB4420ED205190D
:10B3F0006F788F4205D1002D08D00095FFF798FF98
:10B4000006E0055D01356419E4B2EEE7FFF769FF78
:10B41000FEBD011C08C910B5DB6F041C984700284D
:10B4200004D10122583423781343237010BD08B58A
:10B43000002000F01FFA00F059FAFFF7EAFF08BDFC
:10B4400070B5061C8AB00A360C1C2222311C051C61
:10B4500001A807F0DBFB6B460121DA1C01A80B1CDD
:10B460001470FFF7BFFF041E0DD12A1C2B68343265
:10B470009B6F281C01A99847041E04D1301C01A908
:10B48000222207F0C3FB201C0AB070BDF0B5051CDA
:10B49000161C0F1C8DB00A35291C2222041C03A87F
:10B4A000019307F0B3FB321C03A8391C019BFFF783
:10B4B00099FF061E0DD1221C236834329B6F201C7D
:10B4C00003A99847061E04D1281C03A9222207F0CD
:10B4D0009DFB301C0DB0F0BDF0B591B06B46DA713C
:10B4E0000022041C08AE016032700025B31801323E
:10B4F0005D70102AF9D12C4B31787382E382631D81
:10B500001F1C181C21236B442171191C07F07EFBA2
:10B510006B460733A3610123E218A383E383D37748
:10B520000A226584FA77A21DD377231C201C2C33B2
:10B53000A562291C1D705D709D700C22303007F0D3
:10B54000A3FB201C194B0C22E36325644430291C07
:10B5500007F09AFB2A1C164B271D236503AB656574
:10B5600002971D700027991801324F70102AF9D1E7
:10B57000104959821B787182337021230D216B444D
:10B580006944181C07F042FB01232068337502ABA5
:10B59000B361B78300F0BAF90368311C1B689847A0
:10B5A000201C11B0F0BDC04601A0FFFFEFB10100AB
:10B5B000E1B1010000A0FFFFF0B5037989B0056893
:10B5C000002B7BD12B680093002B77D1281C00F037
:10B5D0008DF903AC00990C220190201C07F054FB5C
:10B5E000142003F0C3FE364B221C0393031CC2CA73
:10B5F000C2C3344B019EC360009BA4360361336811
:10B60000002B00D003613060281C00F07FF900217E
:10B610000C22061C201C07F037FB142003F0A6FEAA
:10B62000294B0393031C86CC86C3284BC36000239D
:10B630000361B369002B00D00361B061582003F0AF
:10B6400095FE041C0022291CFFF746FF204B281CF6
:10B650001C6000F04BF90621FFF7F2FE281C00F0F9
:10B6600045F903211B4A0223FFF710FF281C00F0B5
:10B670003DF90921184A0423FFF708FF281C00F0B0
:10B6800035F900230371281C00F030F90368FA260D
:10B690009B68041C9847B600031C301CB34203D9B6
:10B6A0002368201C9B6898470C4970430AF054FC9F
:10B6B000E080281C00F01AF9FFF7ABFE09B0F0BDDE
:10B6C0002FB4010021B20100A9B2010013B20100A0
:10B6D000E4370020C88F02002290020071020000AF
:10B6E00013B50422019101A9041C07F08FFA019BF4
:10B6F000034A591E8B415B421A40E26013BDC046AB
:10B70000FDB1010070B58AB068461E4905ACFFF76F
:10B71000E7FF029B69460822201C079307F076FA90
:10B72000194E039B301CE360A36808223362211C7E
:10B73000183007F06BFAE368301C7362134906F0A7
:10B7400075F9002000F096F80021061C0C226846CE
:10B7500007F09AFA0E4B6D460093231C07CD07C3E2
:10B760000C4B301CE3600023211C236100F048F8DF
:10B77000301C00F0ABF80028FAD0301C00F0D6F8EE
:10B78000FBE7C04671B20100BC37002040420F0009
:10B79000B9B5010005B2010038B500240E48221CDD
:10B7A0001521047006F03CFA0C48221C1621047086
:10B7B00006F036FA0A4D281C06F070F9281C094BD1
:10B7C000211C18302B60FFF78BFF281C0649074A05
:10B7D00007F036F938BDC046E8370020E9370020C9
:10B7E000BC370020B09602008DB20100F82E002078
:10B7F000704708B50368002B01D0081C984708BDA6
:10B80000021C0B1CF0B5126889B0019203AA151C2A
:10B810001E1C4068016889688C4692CE92C5DB6820
:10B820000199D36000231361E04709B0F0BD000027
:10B8300070B5041C002521600E1C4560291C0830D1
:10B840000C2207F021FA094BA5616361AE420AD1CF
:10B85000074D2B68002B02D102F07CFD2860236885
:10B860009B00EB586360201C70BDC046F3B701001D
:10B870000C38002070B500280DD1114C2668002E20
:10B8800007D11C3003F072FD051C311CFFF7D0FFFF
:10B890002560206812E001260A4D0B4C2B683342CC
:10B8A0000BD1281C03F02CFD002806D0201C311CD5
:10B8B000FFF7BEFF281C03F03FFD201C70BDC046F3
:10B8C000EC37002010380020F0370020436810B516
:10B8D000041C002B02D1044806F078F96068036864
:10B8E000DB68984710BDC04654900200436810B50D
:10B8F000041C002B02D1044806F068F96068036854
:10B900009B69984710BDC04654900200436810B52B
:10B91000041C002B02D1044806F058F96068036843
:10B920001B6A984710BDC04654900200436810B58A
:10B93000041C002B02D1044806F048F96068036833
:10B940005B6B984710BDC0465490020007B5021CBF
:10B9500083680832002B07D0044B002B04D00190E1
:10B96000436901A9101C984707BDC046F1B7010003
:10B97000F7B5FA26B6007143009308AB1B78041C98
:10B98000081C1549171C01930AF0E6FA85B2301C11
:10B990002580784310490AF0DFFA6B461B8880B295
:10B9A000A3806B461B796080A371032D01D804230B
:10B9B000238080232288DB019A4200D92380032838
:10B9C00001D80422628062889A4202D98023DB0176
:10B9D0006380201CFEBDC04671020000704708B5A0
:10B9E000081CFFF747FFFFF7B1FF08BD93DF704763
:10B9F00094DF704708B50368002B01D0081C9847F6
:10BA000008BD08B50368002B01D0081C984708BD85
:10BA10000023021C10B503701132431C00241C705B
:10BA200001339342FAD1418210BD38B50A680368E8
:10BA300093422DD103790C1C051C002B0CD10B79E2
:10BA4000002B25D1C28ACB8A9A4221D12B7E227E1D
:10BA500053405B060DD01BE0012B19D10B79012B54
:10BA600016D105300531102207F0A8F80028EDD0D6
:10BA70000EE06A8B638B9A420AD1EB69E2699342CA
:10BA800006D12B8C208C181A42424241D0B200E0E1
:10BA9000002038BD70B5061C0D1C041CE436201CAB
:10BAA000291CFFF7C2FF002802D14C34B442F6D162
:10BAB00070BD000007B501AB1980191C5A80FFF753
:10BAC00095FF032310280CD003D80023984208D0F8
:10BAD00006E00523112804D0034A013B904200D020
:10BAE0000B23181C0EBDC0460230000007B501AB89
:10BAF0001980191C5A80FFF77BFF032310280FD0F1
:10BB000006D8002398420BD00633082808D006E058
:10BB10000523112804D0034A013B904200D00B2397
:10BB2000181C0EBD0230000070B50025041C291C35
:10BB300020C0FFF76DFF0C26201C291C321C257627
:10BB40006583A583E5832584243007F09DF8201CB8
:10BB5000064B65632363291C321C383007F094F8C8
:10BB6000034BA564201C636470BDC046F5B9010099
:10BB700003BA010010B5041CFFF7D6FF201C4C309F
:10BB8000FFF7D2FF201C9830FFF7CEFF201C10BD1E
:10BB9000F8B50D1C041C171C1E1C0B68102203603A
:10BBA0000B790371CB8A0531C382053007F02EF87B
:10BBB0002B7E3A1C23766B8B6383AB8BA383EB8B3F
:10BBC000E3832B8C2384231C243323CA23C3FB68E5
:10BBD00000222363231C311C62633833A1C9A1C333
:10BBE000F368201C6364A264F8BD70B58AB0041CBD
:10BBF0000190038C0E1C0168132003ADAB801378F9
:10BC00000391AB71538A511C684410222B8306F0B8
:10BC1000FDFF201C6E8302952430236B01A99847F9
:10BC20000AB070BD07B5031C6A4600901171383028
:10BC30005B6C6946984707BDF0B50C1C0B68A9B052
:10BC400002930B79161C02AA1371CB8A501D053181
:10BC5000D382102206F0DAFF237E02AA1376638BCA
:10BC60005383A38B9383E38BD383238C1384221C72
:10BC70000BAB243223CA23C30025236B0F950E93ED
:10BC8000083210AB83CA83C3636C15A81393149551
:10BC9000FFF74AFF15A9201C222206F0B7FF231C3C
:10BCA0001EAA243383CA83C3219B65630193236344
:10BCB000231C23AA383383CA83C3269BA5646364E9
:10BCC00002A8311CFFF7AEFF29B0F0BD30B5041C4F
:10BCD00097B003A8FFF728FF201C03A9FFF7A5FED4
:10BCE000051E19D00F9B226B0193934213D1211C87
:10BCF0000CA824310C2206F061FF00280BD1149B04
:10BD0000626C934207D1211C11A838310C2206F035
:10BD100055FF002800D00025281C17B030BD70B595
:10BD2000051C0E1C041CE435201C311CFFF77DFE95
:10BD3000002806D0201CFFF7C9FF002801D1201CD5
:10BD400003E04C34AC42EFD1002070BD10B5041CB0
:10BD5000FFF7E5FF011E03D0201C0022FFF76CFF58
:10BD600010BD70B5051C0E1C041CE435238CB342B9
:10BD700006D1201CFFF7AAFF002801D1201C03E0F8
:10BD80004C34AC42F2D1002070BD08B5FFF7E9FF9A
:10BD9000431E9841C0B208BD38B5041C151CFFF7FE
:10BDA000E0FF011E03D0201C2A1CFFF745FF38BD11
:10BDB000F0B589B0061C0F1C00920025FFF7D1FFDB
:10BDC000041EAC4235D0009B1A880623954219D236
:10BDD0006B43009AD3189A79012A0DD15A88998811
:10BDE00003A801920135FFF713FE201C019903AA55
:10BDF000FFF7FBFEADB2E6E75A88381C111CFFF7CF
:10BE000075FE10E0013A5343009AD3185988E28B2B
:10BE1000013189B2914203D9301C211C002206E075
:10BE2000381CFFF747FE021E03D0301C211CFFF711
:10BE300003FF09B0F0BDF0B589B000900191141C6A
:10BE40000027FFF78EFF051EBD4246D023889F4284
:10BE50002CD2A3780022012B07D111337B43E318A6
:10BE6000D98803A8FFF7D4FD15E0002103AEB3186D
:10BE700001325970102AF8D10123123179433370FD
:10BE8000611802AB581D063106F0C0FEB37B727B11
:10BE90001B021343738212237B43E3189988281CE7
:10BEA00003AAFFF7A2FE7B1C9FB2CFE71222013B41
:10BEB0005343E418A188EA8B013189B2914203D936
:10BEC0000098291C002206E00198FFF7F3FD021EEE
:10BED00003D0291C0098FFF7AFFE09B0F0BD38B5BC
:10BEE000051C041CE435201CFFF7F0FE002803D1DC
:10BEF0004C34AC42F7D1041C201C38BDF0B51E1CDC
:10BF00004B8B99B002339BB201930392CB8B019A76
:10BF1000041C0D1C0F8C0293934207D2002705913D
:10BF20000697F368301C05A998472EE0391CFFF7E7
:10BF30002CFF002801D0052727E0201CFFF7CFFFAA
:10BF4000041EF8D0381C0199029AFFF7B3FD071EB2
:10BF50001BD1291C331C039A05A8FFF719FE05A95C
:10BF60002222201C06F052FE231C0EAA243323CAD0
:10BF700023C3119B13AA23630193231C67633833E4
:10BF800023CA23C3169BA7646364381C19B0F0BD91
:10BF90000284012230B503AC258804AC4583151C0E
:10BFA00024881D408483047E016094435908114015
:10BFB0002C4302259140AC430C4304219D081540BD
:10BFC000AD008C432C430825D9081140C900AC436F
:10BFD0000C4310211D0915402D018C432C432025B5
:10BFE00059099B09AC4311401A409301221C490195
:10BFF0000A4340218A431A43027630BDF0B589B026
:10C000001C1C0EAB1D780FAB1B8810AE0093338841
:10C010000026028403AA019301601670002303A97D
:10C020008A1901365370102EF8D14C82041D8CC928
:10C030008CC40CC90CC46B461B88047E43836B46BE
:10C040009B886908838301231A1C9C432A4019405A
:10C0500014430222994094430C430421AA081A4035
:10C0600092008C4314430822E9081940C900944304
:10C070002A091A400C431201B443144320226909CF
:10C080009443AA09194013409A01231C49010B4308
:10C0900040218B431343037609B0F0BD70DF704736
:10C0A00071DF704772DF704773DF704774DF70476E
:10C0B00075DF704776DF704777DF704778DF70474E
:10C0C00079DF70477ADF70477BDF70477CDF70472E
:10C0D0007DDF70478ADF70478BDF70478CDF7047EA
:10C0E0001420704764207047A0208001704708B575
:10C0F000FFF7F2FF031E00D00523181C08BD10B582
:10C10000041CFFF7D3FF0323002806D1231C0121C1
:10C1100058331A788A431A70031C181C10BD08B5CE
:10C120003B239A4200D0283B081C191CFFF7C2FF92
:10C13000031C5A1E934103205B42184008BD0A1C91
:10C14000011C08B50368FE31C98B1B6A984708BDFE
:10C1500008B5081CFFF7B8FF031C5A1E93410320C3
:10C160005B42184008BD08B5081CFFF7ABFF031C75
:10C170005A1E934103205B42184008BD08B5081CB5
:10C18000111CFFF795FF031E00D00323181C08BDE8
:10C1900008B5081C111CFFF79BFF031E00D00323EA
:10C1A000181C08BD08B5081CFFF788FF031E00D047
:10C1B0000323181C08BD08B5081CFFF781FF031EE8
:10C1C00000D00323181C08BD08B5081CFFF774FF36
:10C1D0000023984203D00533112800D0023B181CDD
:10C1E00008BD0000024B0B60082313607047C04677
:10C1F0007790020008207047B83001700020704727
:10C20000B93001700020704702207047B8300078C4
:10C210007047B930007870470020704708B5036850
:10C22000002B01D0081C984708BD08B50368002BF7
:10C2300001D0081C984708BD08B5031C1A1CF3322E
:10C240006C3011789B6F984708BD10B518C9621003
:10C25000E10701D58158CB588018984710BD13B518
:10C260000C1E012C07D86B46111C581C062206F028
:10C27000CDFC002005E08B1E012B01D9032007E037
:10C2800001206B4669461C70FFF708FF0028F5D1B6
:10C2900016BD37B568460D1C141CFFF701FF0323BC
:10C2A00000280DD1002D02D06B461B782B70231E69
:10C2B00006D06B46201C591C062206F0A7FC002362
:10C2C000181C3EBD70B5061C0D1C0024331CBA336F
:10C2D0001B78A3420ED96B79A3420BD90722111CFC
:10C2E00061432B68013458187118BB3106F08EFC7D
:10C2F000E4B2EBE72C71002070BD112337B5081CA8
:10C3000001AD2B700C1C06F047FD211C82B2281CCD
:10C31000FFF7DCFE031E00D00323181C3EBD000007
:10C32000012008B5011C044A03F012FA031E00D0D4
:10C330000B23181C08BDC046D1C30100F8B5036823
:10C34000061CDB6C0D1C0C7998470323844226D80D
:10C3500000232979DAB28A4208D207225A43286890
:10C360000133125C032AF5D1042318E0371C0024A2
:10C37000BA373C702B79A34210D90722111C3878A8
:10C38000614350432B6830185918BB3006F03EFC0F
:10C390003B78013401333B70E4B2EBE70023181C17
:10C3A000F8BD38B5CD7F01201F2D10D8002D01D14B
:10C3B00003200CE00C1C081CD37F291CFFF772FE25
:10C3C0000028F5D1208CFFF779FE0028F0D138BD88
:10C3D00070B5051C88B0002001F0C0FF036800267E
:10C3E0009B699847031C041CF3331D70251C0F4BDD
:10C3F000069002A904A808220293039606F006FC00
:10C400000B4B0D350793069BFF35AB6004A9082243
:10C41000281C019306F0FAFB201C079BF430EB600C
:10C42000311C05F003FB08B070BDC04639C20100E5
:10C430004BC20100F0B5051C041C87B0AC356B681D
:10C44000AB60A868002807D0C368211C9847AB6878
:10C45000002BF4D01B69F3E7261CB0363568002D9D
:10C4600005D02F69281C02F08DFF3D1CF7E7221C28
:10C47000FC235832117835600B401370261C231CA6
:10C480000A3656331D709D71301C291C1F2206F080
:10C49000FBFBF5772A36301C291C1F2206F0F4FB23
:10C4A000F577606E002804D0056902F06BFF281C48
:10C4B000F8E7251C606698352868002804D00669CE
:10C4C00002F060FF301CF8E72860251CA4352E68B8
:10C4D000002E05D03769301C02F054FF3E1CF7E7F0
:10C4E0002E6001AD311C281C0C2206F0CDFB231C54
:10C4F0002A1C6C3383CA83C3094BE667A367311CCC
:10C500000C22281C06F0C0FB231C803307CD07C378
:10C51000301C044A90341A60266007B0F0BDC04653
:10C520002BC201001DC2010010B5041CFFF782FFE1
:10C5300000280AD1231C0122FE335242DA83BA3486
:10C54000463B18705870207000E0062010BDFE3089
:10C55000C1837047FE30C08B70470000F0B593B0C8
:10C56000019000200C1C01F0F9FE0368DB6A98477B
:10C5700002F090FB06AB00280DD000221A7105AA2C
:10C5800006920822181C1A730AAA9A6002F04EFC3E
:10C59000002802D052E01871187300231F1C237367
:10C5A0002371019BBA331B78BB4246D907237B43D7
:10C5B000019AD218B832D278022A31D1002506AEBB
:10C5C000337BAB4236D907207843AB000293019B03
:10C5D000029A1818B368BB30995802F03FFC002843
:10C5E0001BD0B368029AA1689A58237B9B005A50CB
:10C5F000237B01332373337B5A1E954208D01049A5
:10C60000B2685B189B009B5803930399029BD1501F
:10C6100006AA137B013B13730CE00135EDB2CEE7A4
:10C6200001992279CB182168BB33920053502379AA
:10C63000013323717B1CDFB2B3E7002013B0F0BDE0
:10C64000FFFFFF3F70B50C789AB00222012C3ED05C
:10C650004B88032C04D1A03B221C9BB21D4C03E051
:10C660000322203B1C4C9BB2A34230D88C881B4B2E
:10C6700003229C422BD80AAB009312AB02936A466A
:10C680000023061C13711373B83633780C1C002B6F
:10C6900004D06946FFF762FF021E18D104AD1822CC
:10C6A0000021281C06F0F0FA2378281C2B70337820
:10C6B0002B726B46EB6063882B82A3886B82FFF73B
:10C6C000F3FC021E03D00722042800D0043A101CF9
:10C6D0001AB070BD603F0000E03F0000FF3F000067
:10C6E00070B598B008AB009310AB02936A46002374
:10C6F000051C13711373B9352B780C1C002B1ED13C
:10C70000012304A82A780678A1799E431940134092
:10C710005A00331C0B4302218B43134303706B46B7
:10C7200043602388038163884381A3888381FFF763
:10C73000D1FC421E904103234042034005E069467C
:10C74000FFF70CFF0028DBD0031C181C18B070BDCD
:10C75000F0B59DB01F1C6B46051C1A70581C0622B4
:10C76000229E02AC06F052FA002F07D03B882380AD
:10C770007B886380BB88A380FB8806E0322323800C
:10C78000DB186380F533A780FF33E3800CAB04A98B
:10C79000049314AB8B602F1C0023B9370B710B7300
:10C7A0003B78002B17D101203B78022708A90340D2
:10C7B0005A000B78BB4304AF4F601343002E10D0D8
:10C7C000B2798343024013430B7033880B81738823
:10C7D0004B81B38811E0281CFFF7C0FE0028E2D08F
:10C7E00029E02A1C323212788343024013430B7033
:10C7F000AB8D0B81EB8D4B812B8E6846221C8B8180
:10C80000FFF76CFC031C0020834214D00630082B79
:10C8100011D005D80130042B0DD0834208D109E096
:10C820000520112B07D0054A934203D0102B01D0CD
:10C830000B2000E004201DB0F0BDC0460232000015
:10C840000220704700207047704790DF704796DFE6
:10C85000704798DF704793300078431E9841C0B20C
:10C86000704708B5081C111C1A1CFFF7F0FF031CC9
:10C870000020834204D0113B5A425A410630801AAC
:10C8800008BD000030B5002485B001AD6B80089B69
:10C890002970EB80099B101C291C6C70AC800393E1
:10C8A000FFF7D7FFA04207D00534112804D0044B6E
:10C8B000C418604244410634201C05B030BDC04657
:10C8C000FCCFFFFF08B50368002B01D0081C984778
:10C8D00008BD08B50368002B01D0081C984708BDA7
:10C8E00008B50368002B01D0081C984708BD08B59F
:10C8F000ED30FF30FFF702FB08BD08B5ED30FF302B
:10C90000FFF7C8F808BD08B5ED30FF30FFF71EFA95
:10C9100008BDF0B587B001AB1A1C0C1CE0CCE0C21E
:10C92000021CB532FF32C96870CB70C20023B5302B
:10C93000FF30C160036107B0F0BD0000F0B5061C18
:10C940009446041C101C8FB03436029301960F1CC1
:10C9500004A92CC82CC16346DA680299039209AA7B
:10C9600029C929C2029B0198DB68029301F0BFF933
:10C97000051C0620002D3AD1231C04AA503343CABB
:10C9800043C3039B2566E365231C09AA783343CA86
:10C9900043C3201C029A14991A6004331D601422A8
:10C9A0003A3006F033F9201C15991422643006F051
:10C9B0002DF9231C012191332787013B5D709334AE
:10C9C0001D70381C21702A1CFFF73FFF041C281C17
:10C9D000002C0CD0019801F0B8FC0520112C06D0D9
:10C9E000044B9C4202D00130072C00D104200FB030
:10C9F000F0BDC04602300000F0B597B00593036863
:10CA000007AC1B6804910393111C231C061CA1C9CD
:10CA1000A1C30025D368291C0C220CA80A9311AFCE
:10CA20000B9506F031F9094B291C381C0F93109512
:10CA3000FEF7EEFF059B221C00930197301C049922
:10CA40000CAB039CA04717B0F0BDC046D3C8010093
:10CA5000F0B50026051C89B003AC8680311C201C73
:10CA6000FEF7D6FF211CA81D142206F0CFF8311CBA
:10CA7000201C0C2206F008F92B1C221C1C3383CA34
:10CA800083C30F4B311CAB62EE62201C0192FEF798
:10CA9000BFFF2B1C221C303383CA83C3019A03CAF5
:10CAA00003C3311C0C22201C06F0EEF82B1C44336F
:10CAB00007CC07C3301C034B6E652B6509B0F0BD76
:10CAC000C5C80100D3C8010070B586B0041CFFF7CB
:10CAD000BFFF051E2AD1231C5C3318705870987054
:10CAE000D870A8235B00E050E218523BFF3B536034
:10CAF0009360D3601361B4225200A050221C6932AB
:10CB0000FF3201AE53609360D3601361301C291C67
:10CB10000C2206F0B9F8231C8133FF3307CE07C37C
:10CB20008134044BFF34E360256100E00625281CB6
:10CB300006B070BDE1C8010070B5041CE36A236350
:10CB4000206B002807D0C368211C9847236B002B5B
:10CB5000F4D01B69F3E7E06A002804D0056902F00D
:10CB600011FC281CF8E7E062A068002804D00569E1
:10CB700002F008FC281CF8E7A0606069002804D0D7
:10CB8000056902F0FFFB281CF8E7256A6061002DAB
:10CB900005D02E69281C02F0F5FB351CF7E7201C98
:10CBA00025623430FFF790FF281C70BD70B5041C5F
:10CBB0008AB001AD24220021281C06F065F800216E
:10CBC00002A8FEF725FF201C00269530291C2222F2
:10CBD000FF302E766E83AE83EE832E8406F016F839
:10CBE0002368201C5B689847231C5F331E70B0428B
:10CBF0000DD0C0235B00E358B34208D0054BB342CD
:10CC000005D0201C8130FF30A188C36898470AB046
:10CC100070BDC046F1B7010008B53430FFF7C6FF5C
:10CC200008BDA0DF7047A4DF7047A5DF7047A6DF0F
:10CC30007047A8DF7047A9DF7047002070470000E9
:10CC400073B50E1C151C0268009394682B1C321CD3
:10CC50000149A04776BDC046FFFF000037B5002060
:10CC60006D46069C0090208801932880081C111CAA
:10CC70006A46FFF7DAFF0323002802D12B882380BE
:10CC8000031C181C3EBD000073B50E1C151C06AA23
:10CC9000117802680093019114692B1C321C014920
:10CCA000A04776BDFFFF0000F8B5041C00200E1C55
:10CCB000151C01F053FB03689B69984723689F6923
:10CCC000FFF748FC321C011C2B1C201CB847F8BD88
:10CCD000F0B5051CD78B0022467985B0C435B24229
:10CCE00019D208352C1C083C2488BC4211D10E25D1
:10CCF0001C1C02231832D20082186D4412892B802A
:10CD0000036803AE00959F68331CB847021E04D029
:10CD10000DE00132E3E7042009E02B880620022B16
:10CD200005D13388101C9B0701D00123237005B067
:10CD3000F0BD0000F0B50C1C002187B06E460091DC
:10CD4000151C0CA90DAA0988127831800193002ABC
:10CD500003D1011C4679C43111E06A46201C291C0C
:10CD6000FFF761FF421E90410323404203406DE004
:10CD700008310F1C083F3F88AF4203D00132B24256
:10CD8000F6D33FE030211C32920080184268013215
:10CD9000D27F0A4236D00221002002AED206F360D2
:10CDA0000CABD20FB3602B4B8A1A3580B270B080B7
:10CDB0009C4207D101F0D2FA03689B699847FFF7BC
:10CDC000C9FB041C201C311CFFF731FF83B2002B70
:10CDD0003CD0181E112813D0112B02DC082B06D0D2
:10CDE00007E01D4B98420BD01C4B984201D1062303
:10CDF0002CE0201C291C6A46FFF715FF002808D1EB
:10CE0000052323E0201C291C6A46FFF70CFF0C2891
:10CE100001D103231AE00C2808D80528F9D00728E7
:10CE200013D00023984211D00B230FE010280CD010
:10CE300003D808230F2809D0F6E7094B9842E8D019
:10CE4000D0239B019842E4D0EEE70423181C07B0DE
:10CE5000F0BDC046FFFF00000330000001340000B9
:10CE60000230000008B50378002B08D10B78002BA6
:10CE700011D1428A4B8A9A420DD101200CE0012B3C
:10CE800009D10B78012B06D101300131102205F0B8
:10CE900095FE0028F1D0002008BD0000F0B5051C6B
:10CEA00097B0081C2E240B9102F010F804ABE41884
:10CEB000109010A90120221CFFF7B3FE002801D01A
:10CEC0000320D3E023880B9A0A9093830B9B0A9A42
:10CED0001B7D934253D96B79132B01D90720C5E0F1
:10CEE0000B9B9B690C930A9B0C9A9B009C58636953
:10CEF000002B49D1638B002B46D1631CDB7F022BB7
:10CF000042D137E06169631CDA7FA31CDB7F0091AB
:10CF1000618B00200191218B0291217F03910C995B
:10CF200004910D990591211C293109780691211C44
:10CF30002A310978079169791831C90069180431D3
:10CF4000089110A902F01CF80028B9D16B79071CD0
:10CF50001A1C1C3292001833AA18DB005460EB181C
:10CF60009B88E3836B7901336B71231C28331B7817
:10CF7000BB4230D80A980130C3B20A93A6E72B7996
:10CF8000002001332B7171E0201C01F09FFF00266F
:10CF900010900D960C96231C28331B78B342B1D900
:10CFA000626AB3009F58002311AA1370002011A9D0
:10CFB000CA1801335070102BF8D12D4B381C4B82FE
:10CFC000FFF750FF002803D07B690C937B8B0D93F8
:10CFD0000136F6B2DFE7C2235B00EB5C072B00D91A
:10CFE0007CE7626ABB009E58002311AA13700020E0
:10CFF00011A9CA1801335070102BF8D11C4B301CEA
:10D000004B82FFF72FFF0C9000282CD1301C01F031
:10D010005DFF328B738B0092327F10900192C2229F
:10D020005200AA5C0C98C0325200AA180632029232
:10D0300010A9726902F061F8002800D040E7C2230D
:10D040005B00EB5C1A1C58329200C033AA185B00DC
:10D050005660EB18DB88C222F383C2235B00EB5CD3
:10D0600052000133AB54781CC7B27EE717B0F0BD55
:10D0700001290000F0B5041C87B0236B6363606B6B
:10D08000002807D0C368211C9847636B002BF4D09D
:10D090001B69F3E7206B002804D0056902F072F9E0
:10D0A000281CF8E7206320716071E068002804D034
:10D0B000056902F067F9281CF8E7E060A06900281C
:10D0C00004D0056902F05EF9281CF8E7666AA061E1
:10D0D000002E05D03569301C02F054F92E1CF7E7FC
:10D0E00001AD311C6662281C0C2205F0CDFD231C0D
:10D0F0002A1C383383CA83C30F4B311C6364A66474
:10D10000281C0C2205F0C0FD231C2A1C4C3383CAAA
:10D1100083C3094B311CA3650C22E665281C05F06E
:10D12000B3FD231C603307CD07C3301C024B2667B9
:10D13000E36607B0F0BDC046E1C8010038B5051C84
:10D14000FFF798FF041E1DD1281C211C50227430AB
:10D1500005F09AFD281C6530211C2022FF3005F0C7
:10D1600093FD281C211C0822C43005F08DFD281CCD
:10D170008730FF30211C102205F086FDC2235B00A2
:10D18000EC5400E00624201C38BD00000B68002B86
:10D1900001D1036002E0024B03600023436070474B
:10D1A000F1B7010038B5041C0D1C6368A360A068CA
:10D1B000002807D0C368291C9847A368002BF4D027
:10D1C0001B69F3E738BD08B5C368984708BD30B59B
:10D1D000151C87B004290ED0052917D0032925D1A5
:10D1E0003830041C04A8211CFFF7D0FF049B002B3F
:10D1F00018D1059B14E04C30041C6846211CFFF735
:10D20000C5FF009B002B0DD1019B09E06030041C81
:10D2100002A8211CFFF7BAFF029B002B02D1039B3F
:10D22000DB0703D5201C291CFFF7CDFF07B030BD5D
:10D23000F0B50B888FB0051C0C1C512B3FD00AD8C1
:10D24000012B26D0502B00D012E1021CCE88C83210
:10D25000417900230EE0522B2AD0532B00D007E156
:10D26000CE88052136E00832101C08380088B0420C
:10D2700003D001338B42F6D309E030221C339B00EC
:10D28000EB185868431CDB7F134200D0DBE002211F
:10D2900020E00C7AEB682B612869002800D1E7E0D8
:10D2A000C368211C98472B69002BF3D01B69F2E758
:10D2B000888800210A1C0B1CFFF7BDFCD8E08B7985
:10D2C000012B05D0022B00D0D2E00E89072101E00E
:10D2D0000E8906212B1C00206A79C4330090009827
:10D2E000904200D3C4E00833181C08380088B042CC
:10D2F00013D1062969D0072912D0022900D09DE058
:10D30000A3880AA90B804E80237B0B71E389CB8015
:10D31000238A12340B81CC6052E000980130DDE7A3
:10D320000021102202A805F0AFFCA38802AA1380F6
:10D330005680238A06AF9380638A0021D380231C02
:10D3400010221433381C0193049305F09DFC022332
:10D350003B70013BBB71009B1C339B00EB185A6870
:10D36000131C2A3319780023994206D0101CD36C61
:10D37000403002A9984702AB9B8906AFBB8002AA46
:10D3800092883A8102AAD2887A81049AFA60002BA4
:10D3900003D00122BB799343BB71A088391CFFF7EE
:10D3A00048FCBB88002B63D1A3880AA90B804E8060
:10D3B000A37B0B71238ACB80638A0B81019BCB609B
:10D3C000281C1430FFF7EEFE52E006AF00211022B9
:10D3D000381C05F059FCA3887E803B80E3890AAEA7
:10D3E00000211022301CBB8005F04EFC0123009868
:10D3F00033701C3080002D186B681A1C293211788C
:10D400000022914205D0181C391C2C309B6B984788
:10D41000BA89B280BB89002B0BD1BA68002A08D028
:10D420000121B3790B43B371BB883381FB88F26070
:10D430007381A088311CFFF7FCFB19E0281C321C0B
:10D44000FFF7C5FE14E0E17CA27C09020A439906BD
:10D4500002D50321940708D40421DB0605D5012356
:10D460001A40131C594259410331C28B281CE7E76B
:10D470000FB0F0BD90DF704792DF704795DF7047C7
:10D4800038B50A680368934201D000201AE00C1CEA
:10D49000051C04310430FFF7E5FC0028F5D02B7E95
:10D4A000227E53405B06F0D16A8B638B9A42ECD1AB
:10D4B000EB69E2699342E8D12B8C208C181A424226
:10D4C0004241D0B20123584038BD38B50025041C74
:10D4D000291C20C0FEF79CFA25766583A583E58389
:10D4E0002584201C38BD0268031C002A0AD0511E66
:10D4F000920040689A1819600433934204D0596826
:10D500001960F9E70120404270470268031C002AB5
:10D510000AD0511E920040689A1819600433934251
:10D5200004D059681960F9E70120404270470000B3
:10D5300073B5051C2B686C69002B1CD0231C0322BF
:10D540005F331A700F49013268466E6805F05EFB62
:10D5500018237343E3187033998801AA1180DB887C
:10D5600069465380A088FFF789FF002809D0281C4E
:10D57000FFF7B9FFDEE75F342378032B01D1023BCD
:10D58000237073BD7C910200031C0022F0B55C3354
:10D590001A700A7889B0041C0133042A00D90422C5
:10D5A0001A70A82300205B00E050231C0122271CD6
:10D5B000061C51335242FF335A609A60DA601A6196
:10D5C0008D1C6037231C5D331B789E4226D2AB78BE
:10D5D000002B0CD1A8225200A358591C9B00E31821
:10D5E000A1509B18AA885E60EB88BA8211E0298856
:10D5F00003A8FEF70DFAAB88381C0093EB8803A94B
:10D600001422019305F002FB6B461B88BB826B461C
:10D610009B88FB82013608351837D3E7231CFC337F
:10D620005B6D002B04D0201C5130FF30FFF780FFD2
:10D6300009B0F0BD73B5051C2B686C69002B1CD0BC
:10D64000231C042210495F331A70891868466E68DB
:10D6500005F0DCFA24237343C033E3185B8B01AA83
:10D66000138001335380A0886946FFF707FF002825
:10D6700009D0281CFFF749FFDEE75F342378042B2D
:10D6800001D1023B237073BD7C910200031CF0B5F5
:10D690000A7887B0041C0F1C5E33042A00D90422C8
:10D6A0001A70B42300255B00E550231C0122693366
:10D6B000FF3352425A609A60DA601A61A83B0593C0
:10D6C000BE1C231C5E331B789D422FD2B378002BE7
:10D6D00016D1B4225200A3580598591C9B00E31898
:10D6E0009B18A1505D600A23F1886B43009131893A
:10D6F000FB180191A288A16D9B79FEF749FC0FE010
:10D700000A2168466943791889793388A2880170AB
:10D71000F1880598019131890291A16DFEF76EFCA7
:10D72000059B0135243305930A36CAE7231CFC33D5
:10D73000DB6E002B04D0201C6930FF30FFF77AFF2E
:10D7400007B0F0BD7FB5031C5F331B78061C032BAD
:10D750002DD1051C2E4B0A685135FF359A4222D136
:10D7600089681022684605F051FA281CFFF7BBFEB5
:10D77000182358433418231C0122201C60331A70CC
:10D7800069460F32613005F041FA231C221C6D33CB
:10D790005B786C3461781B0270320B435380281C19
:10D7A000FFF7C6FE33E0281CFFF79DFE2FE0042B99
:10D7B0002DD1051C174B0A686935FF359A4223D1D4
:10D7C000896810220331684605F020FA281CFFF70B
:10D7D0009CFE242358433418231C0122201CC033F0
:10D7E0001A7169460F32C53005F010FA231C221C4D
:10D7F000CD335B79CC3461791B02D0320B43D380BB
:10D80000281CFFF717FF02E0281CFFF77EFE7FBDF4
:10D8100001001000010013000B68002B01D1036010
:10D8200002E0024B0360002343607047F1B7010040
:10D8300008B5C368984708BD031CF0B5061C5F33E4
:10D8400091B001931B785C36022B5DD1031C95339C
:10D85000FF3324220D1C041C002107A8009305F0AF
:10D8600013FA07A8FFF731FE009807A9FFF708FE93
:10D87000002846D0002D35D118233278271C534379
:10D88000E3187033DA88D9235B00291CE252303761
:10D8900002A8FEF7BDF8381C02A9FFF7E3FA051E3F
:10D8A00014D1211C9931381CFF31FFF7DBFA002815
:10D8B00018D0291C07A8FEF7ABF8A01D07A9FFF791
:10D8C000D1FA01235840C0B200280BD0251C4435A2
:10D8D00002A8291CFFF7A0FF029B002B19D1039B74
:10D8E000DB0716D40021242207A805F0CDF907A8EC
:10D8F000FFF7EBFD201C9530FF3007A9222205F031
:10D9000085F90123019A137033780133337011B014
:10D91000F0BD281C0099FFF78BFFE3E773B50226E3
:10D9200000248180051C5E30467001AE0470081C26
:10D93000311C32807380FFF79FFD10280ED005D870
:10D94000A04210D00634082809D005E0052411288B
:10D9500005D0064B984201D00B2400E00424281C7B
:10D96000211CFFF769FF201C76BDC0460230000075
:10D97000F0B5041C89B0261C5F363378012B6FD1BB
:10D98000251C201C5C355D302B78027893424CD2EC
:10D990000021A71D03A8FEF73BF8381C03A9FFF7D9
:10D9A00061FA002809D118232978381C59436031BD
:10D9B0006118FFF757FA002827D0E369002B16D02B
:10D9C000284B002B13D0002103A8FEF721F8201CC0
:10D9D00003A93030FFF746FA002808D01823201C8E
:10D9E00029781C30594360316118A36A984736780A
:10D9F000012E0AD1211C01A84431FFF70DFF019B24
:10DA0000002B06D1029B334203D12B7801332B70BC
:10DA1000B1E718232A78A1885343E31870339A8812
:10DA2000201CDB88FFF77AFFA5E7002A18D0002B1F
:10DA300016D01822013B53430022E3187033D988D3
:10DA4000094B02702A70994203D1201CFFF7AEF8EF
:10DA500006E00131A08889B2FFF70CFD0028F4D15F
:10DA600009B0F0BDF1B70100FFFF0000031CF0B5E5
:10DA70005F3397B001931B78022B00D0D6E0071CD0
:10DA800000212422041C95370DA805F0FDF8FF376E
:10DA90000DA8FFF71AFD381C0DA9FFF7F1FC0028AF
:10DAA0003AD0231C5E331B78002B35D0231CD9229F
:10DAB000261CDA331B885200013BA352002130366A
:10DAC00008A8FDF7A5FF301C08A9FFF7CBF9051E34
:10DAD00014D1211C9931301CFF31FFF7C3F9002804
:10DAE0001AD0291C0DA8FDF793FFA01D0DA9FFF763
:10DAF000B9F901235840C0B200280DD0251C443587
:10DB000004A8291CFFF788FE049B002B00D083E0AB
:10DB1000059BDB0700D57FE00025231C5E330293C5
:10DB20001E78B5424CD2019B1B78022B00D07DE0C1
:10DB3000731E24219D4207D16943C0316118381CEE
:10DB4000222205F063F83BE00E1C6B1C59436E4328
:10DB5000C03161184B8BC036013BA619F383231CDF
:10DB60000021303308A80293FDF752FF029808A95C
:10DB7000FFF778F90390002812D1311D0298FFF7C2
:10DB800071F9002819D003990DA8FDF741FFA01DD8
:10DB90000DA9FFF767F901235840C0B200280CD047
:10DBA000231C4433191C06A80293FFF735FE069B7D
:10DBB000002B36D1079BDB0733D40135EDB2ACE740
:10DBC000019B1B78022B31D1002E08D0013E22335D
:10DBD0005E43C036A619B28B013292B200E0144AFD
:10DBE000231C5C33197818234B430021E31870334E
:10DBF000DB88029801709A420AD20DA90A804B80F4
:10DC0000A088FFF739FC002810D0201C0B2100E071
:10DC1000201CFFF711FE09E0281C391CFFF708FE45
:10DC20007AE70298311CFFF703FEC6E717B0F0BD94
:10DC3000FFFF00000220704702207047002070475D
:10DC40000020704700487047FFFF00000220704727
:10DC50000220704702207047022070470220704760
:10DC60000220704702207047022070470220704750
:10DC70000220704702207047022070470220704740
:10DC80000023136070470020704702207047022075
:10DC90007047022070470220704702207047002022
:10DCA0007047002070470020704702207047022014
:10DCB00070474160704781607047C1607047016183
:10DCC0007047416170470220704702207047022070
:10DCD00070470220704702207047022070470220E0
:10DCE000704790DF704766DF704748DF70475F30EE
:10DCF0000078431E9841C0B27047007970470C30DD
:10DD000070470C30704708B503689B6B9847FFF766
:10DD1000ECFF08BD08B5044B1A78002A03D0002296
:10DD20001A7003F097FB08BD70390020082370B506
:10DD300096B002AA137106AA029202AA1373101CCB
:10DD40000EAB04930C1C01F071F80023061C1D1C83
:10DD500098420FD0237130E00722101C68432368DB
:10DD60001818029B01930199AB00595804F04EFF1B
:10DD70000135EDB202AB1B79AB4204D96379AB42FA
:10DD8000EAD8257119E02571002502AB21791B7BAA
:10DD90006918AB4210D9637999420DDA049BAA0045
:10DDA000019307235943236801355918019BEDB2AC
:10DDB000D05801F057F8E8E72171301C16B070BD5B
:10DDC00008B500F0D9FF08BD08B5081C111C01F00A
:10DDD00009F808BD08B5081C111C00F0DFFF08BDDC
:10DDE00008B5081C111C1A1C029B00F059FF08BD45
:10DDF0007FB503791648002B28D0164D164C2B788A
:10DE0000201C002B22D102AE301CFFF76CFF002833
:10DE100016D17388592B13D13378B288D91F0129B1
:10DE200004D80092201C20210C4A03E0201C202151
:10DE300000920B4A04F06EFF01232B70201C05E0BA
:10DE4000201C0849202204F0DBFFF7E704B070BD76
:10DE50004C930200143800205039002066930200D1
:10DE600083930200A893020070B503790924002B64
:10DE70002AD0051C03F07EFB043C002824D12E1C74
:10DE8000FC36306B002803D1B06B002806D10AE0C5
:10DE900003681B6A9847041EF6D015E003689B6A66
:10DEA0009847041E10D1706B002804D00368DB6A09
:10DEB0009847041E08D1281C0C30FEF735FB041EC1
:10DEC00002D100F0E5FF2C71201C70BD38B5041C98
:10DED000E3692362206A002807D0C368211C9847A1
:10DEE000236A002BF4D01B69F3E7E069002804D013
:10DEF000056901F047FA281CF8E7E0616060A0605E
:10DF0000E0602061606138BD08B5FFF7DFFF0028E1
:10DF100000D0062008BD38B5041C0068002804D0D5
:10DF2000056901F02FFA281CF8E7206038BD0000D1
:10DF300010B5041C024B08C0FFF7EDFF201C10BDFC
:10DF40008092020010B5041CFFF7F2FF201C01F0C4
:10DF500019FA201C10BD38B5041C0068002804D034
:10DF6000056901F00FFA281CF8E7206038BD0000B1
:10DF700010B5041C024B08C0FFF7EDFF201C10BDBC
:10DF80009092020010B5041CFFF7F2FF201C01F074
:10DF9000F9F9201C10BD000038B5064B041C0360C5
:10DFA0004068002804D0056901F0ECF9281CF8E766
:10DFB000201C38BDE092020010B5041CFFF7ECFFF6
:10DFC000201C01F0DFF9201C10BD000038B5064B05
:10DFD000041C03604068002804D0056901F0D2F9F0
:10DFE000281CF8E7201C38BDF092020010B5041C74
:10DFF000FFF7ECFF201C01F0C5F9201C10BD00004C
:10E0000038B5064B041C03604068002804D005693D
:10E0100001F0B8F9281CF8E7201C38BD90910200E7
:10E0200010B5041CFFF7ECFF201C01F0ABF9201C1D
:10E0300010BD000038B5064B041C03604068002882
:10E0400004D0056901F09EF9281CF8E7201C38BDB2
:10E05000A091020010B5041CFFF7ECFF201C01F09A
:10E0600091F9201C10BD000038B5064B041C03605C
:10E070004068002804D0056901F084F9281CF8E7FD
:10E08000201C38BDB091020010B5041CFFF7ECFF56
:10E09000201C01F077F9201C10BD000038B5064B9C
:10E0A000041C03604068002804D0056901F06AF987
:10E0B000281CF8E7201C38BDC091020010B5041CD4
:10E0C000FFF7ECFF201C01F05DF9201C10BD0000E3
:10E0D00038B5064B041C03604068002804D005696D
:10E0E00001F050F9281CF8E7201C38BD60920200AE
:10E0F00010B5041CFFF7ECFF201C01F043F9201CB5
:10E1000010BD000038B5064B041C036040680028B1
:10E1100004D0056901F036F9281CF8E7201C38BD49
:10E120007092020010B5041CFFF7ECFF201C01F0F8
:10E1300029F9201C10BD000038B5064B041C0360F3
:10E140004068002804D0056901F01CF9281CF8E794
:10E15000201C38BDA092020010B5041CFFF7ECFF94
:10E16000201C01F00FF9201C10BDF7B50379071C26
:10E170000E1C151C002B06D000230A2401930093CB
:10E180006B461C7109E000F0E5FB041C0C20002C20
:10E190000CD1012300943B710194301CFDF76AFB04
:10E1A000EB6800906946281C9847201CFEBD0000C3
:10E1B000F7B50193036800915B68041C171C98472E
:10E1C000051C0620002D3BD1231C3A1C1C3343CADE
:10E1D00043C3FB68019AA362231CE562443343CA2C
:10E1E00043C3019B0899DB68142223656565A01D64
:10E1F00004F00CFD201C09991422303004F006FDB7
:10E200006B461B880121A380231C5D331D70013BDD
:10E210001D70D97000982A1CFFF763FD061C281C8E
:10E22000002E0DD02368201C9B6898470520112ED6
:10E2300006D0044B9E4202D00130072E00D10420AC
:10E24000FEBDC04602300000FC3038B5846B051CB2
:10E25000002C0DD1242001F089F8064B4460836125
:10E26000054B8460C46004614461C4610360A863B9
:10E27000A86B38BD6092020020930200FC3038B5D4
:10E28000846B051C002C0DD1242001F06FF8064B87
:10E2900044608361054B8460C46004614461C4616F
:10E2A0000360A863A86B38BD60920200209302004F
:10E2B000124B10B508330360114B041CC36080235C
:10E2C000104A5B00C250C018FCF7E0FF201C0E4B48
:10E2D000B830E360FFF7E2FE201CAC30FFF7C4FE6D
:10E2E000201CA030FFF7A6FE201C6C30FFF788FE34
:10E2F000201CFDF773FB201C10BDC046B09302002C
:10E3000088900200C8960200D091020010B5041C4B
:10E31000FFF7CEFF201C01F035F8201C10BD011CBA
:10E32000031C1F3100221A7001338B42FAD1802363
:10E330009B00C2770384704710B500211F22041C84
:10E3400004F0A2FC0023E37710BD08B5FEF72EFC15
:10E3500008BD00000048704718380020004870478A
:10E3600018380020424BF0B508330360414B071CBE
:10E370000025C360A023041C163787B00571856093
:10E38000057443828582381CFFF7C9FF8021201C59
:10E39000C9010A1C2B1C00953830FDF7E9FA231C33
:10E3A0004033181C0393FFF7BAFF231C221C62336F
:10E3B0001D70FC2364321178201C0B401370231C49
:10E3C00068331D702C4B291CE36625670C227830BE
:10E3D00004F05AFC231C261C88331D60274B08368A
:10E3E000F3678436291C301C0C2204F04DFC244BAE
:10E3F000244AF360231CA03335611A60224A5D6011
:10E40000DA60224A1D619A61DD61381CFFF794FFD2
:10E410000398FFF791FF1E4B8026E360231C601CCE
:10E42000C4331D705D709D70FF3003F037FB033700
:10E43000184B7600FF37A35105A9381C0422059517
:10E4400004F0E4FB059B144A591E8B415B421A40C1
:10E45000124BFA60A3510122231C201CFE335242AE
:10E460005A85023B1D635D639D6307B0F0BDC046E6
:10E47000B0930200D0910200909102002BC20100E3
:10E480001DC20100A0910200B0910200C0910200E3
:10E4900088900200B0960200FDB10100C89602000B
:10E4A00038B50C220D1C0021041C04F0EDFB0023E8
:10E4B0002361024B2560201CE36038BDE1C80100E8
:10E4C00070B50025041C0E1C85710583291C0C22C7
:10E4D0001C3004F0D9FB2B4B201CA362231C3033CF
:10E4E000E5621D70231DDD87291C44300C2204F0D9
:10E4F000CBFB254B65652365244BA6652360231C58
:10E500005C331D705D709D70DD70261C251CC0364F
:10E510006035281C0021FDF77BFA0023AB82EB82DB
:10E520001835B542F5D1261C5136FF36281C00217E
:10E53000242204F0A9FB281C2435FEF7C6FFB542AF
:10E54000F4D1A82300215B00E150B422231C201C3D
:10E55000FC3352009965D9651966596681306C6142
:10E56000A150196759679967D967A3185C61FF3093
:10E57000FFF796FF201C9530FF30FEF7A6FF201C0A
:10E5800070BDC046C5C80100D3C801000093020099
:10E59000FC3070B5466B051C002E1CD1B4208000E9
:10E5A00000F0E4FE041C0D4B866043600C4B46619A
:10E5B00003610C4B0662C3610B4BC66283620B4B5B
:10E5C000211C03603430FFF77BFF201CED30FF304F
:10E5D000FDF7D0FA6C63686B70BDC0469092020084
:10E5E00080920200E0920200F09202001891020074
:10E5F00070B50025041C254B05710360244B457143
:10E600008360244BC5604361234B85610362234BC8
:10E610004562C3620563291C3830FFF741FF201CA7
:10E62000291C4C30FFF73CFF201C291C6030FFF7F1
:10E6300037FF1B4B251C2360231C7435C433002279
:10E6400004C59D42FBD1261C6536FF36281C0021DF
:10E650000822083504F018FBB542F7D1221C853298
:10E66000FF32002308C59542FBD1C2225200A354B9
:10E67000231C221C87339732FF33FF32002119807D
:10E6800002339342FAD1201C70BDC046B092020002
:10E69000709202008092020090920200A09202000A
:10E6A00058910200FC3038B5036B041C002B07D1D5
:10E6B000CC20400000F05AFE051CFFF799FF2563AF
:10E6C000206B38BDFC3038B5036B041C002B07D120
:10E6D000CC20400000F04AFE051CFFF789FF2563AF
:10E6E000206B38BD031C0A1C70B570CA70C3CB68A0
:10E6F000C3600023036170BD08B58130FF30FFF7B0
:10E70000F1FF08BD10B5054C201CFFF72BFE201CA7
:10E710000349044A04F094F910BDC046183800209B
:10E72000B1E20100F82E002070DF704771DF704702
:10E7300008B502F06BFC08BD074B10B51C78002C27
:10E7400007D10122201C1A70FFF708FE211CFDF7DB
:10E7500046F9002010BDC04670390020F0B5051CF8
:10E760008BB001F0D5FB281C00F042F90020FFF728
:10E77000F5FD0368061C9B6998473368041C1B6AF7
:10E78000301C984733680090DB6A301C9847031CA4
:10E79000288810380D2800D9D2E007F0C9FB0751AE
:10E7A000D1D1D18AD1D1D1D1D192D1AFAE88201CD3
:10E7B000311CAF7DFDF7CBFE221C0121EB7B5832D3
:10E7C00001931378287A8B4349180B431370023A4C
:10E7D000137869460133137004ABD8701E809F70A4
:10E7E0000023097904AA137153719371D3711372C1
:10E7F0005372D372137353739373D37313749172ED
:10E800002B1C291C18330931062205A8099304F092
:10E81000FDF90B20291C04ABC0181031062204F0AE
:10E82000F5F994346368A360A068002800D187E0FC
:10E83000C36804A99847A368002BF3D01B69F2E7CB
:10E840004249201CAF88FDF782FE2B7A301C0193D1
:10E8500033689B6A9847061CED30FF30391C06224E
:10E86000FDF79AFA338FBB4204D1301C736B3430FE
:10E870009B689847221C56321378013BDBB2137019
:10E88000002B03D1022193788B4393706A4612794F
:10E8900004AB1F809A70A0346368A360A06800284E
:10E8A0004ED0C36804A99847A368002BF4D01B6915
:10E8B000F3E7291C5B69A8880831002B40D09847F2
:10E8C0003EE02E7A002E05D1221C01215832137809
:10E8D0008B431370636E002B32D01D4A002A2FD059
:10E8E000A366A06E00282BD0C368311C9847A36E86
:10E8F000002B01D1636EF3E71B69F1E70126291CA8
:10E900002B7C09315A07920F1E400192DB08062228
:10E9100004A8EF7B029304F079F96A46127904ABFC
:10E920001A726A46127A9F71DE715A722B1C113369
:10E930000793231C201C8C3380301B6804A9984744
:10E940000098291CFEF774FC0BB0F0BDFFFF00001F
:10E95000F1B7010010B588B06A4601231370063381
:10E96000D37000236846537093701D4948221D4B95
:10E9700002F0C4FD002801D002F050FD03AC221CBF
:10E980000320012102F026FEC0230122DB002361C7
:10E99000237B1343237304232380002801D0072003
:10E9A0001CE0201C02F02EFE0028F8D101A8FFF781
:10E9B000BDFE0028F3D101A9FFF7B6FE0028EED175
:10E9C000094802F0E3FD80B2002807D1074802F0B1
:10E9D000E7FD80B2002801D100F0D4F808B010BDE6
:10E9E0007439002039E701005DE7010031E70100DB
:10E9F0007FB5041C0020FFF7B1FC051C03689B6970
:10EA000098472B68281C9B6A9847031C061C051C0A
:10EA10002088ED3330383436FF33092800D99FE0A1
:10EA200007F086FA059E137F90212E9E4660E388AC
:10EA3000002B05D1211C301C0C31FEF7A5FD8FE009
:10EA40006B6B301C9B6898478AE0E388002B05D1EC
:10EA5000211C301C0C31FEF719FE81E0301C002116
:10EA6000FEF7EAFE7CE06B6B301C5B689847002881
:10EA700000D175E0211C301C0C31FEF763FE6FE005
:10EA80006A46A3881380A3895380E3899380238AED
:10EA90001234D3800294AB68EB60E86800285FD042
:10EAA000C36869469847EB68002BF4D01B69F3E70D
:10EAB0006A46A3881380A3895380A37B1371238A9A
:10EAC000D380638A1434138103946B69AB61A869A2
:10EAD000002845D0C36869469847AB69002BF4D03D
:10EAE0001B69F3E76A46A3881380A3895380A37B3D
:10EAF0001371238A12340294D3802B6A002B2FD0F7
:10EB00001B4A002A2CD06B62686A002828D0C36890
:10EB1000694698476B6A002B01D12B6AF3E71B69A2
:10EB2000F1E7E288A188002A06D0852040008242D1
:10EB300012D1181C002211E0221C181C0C32FDF707
:10EB400037F90DE0E288A188002A05D1221C181CA3
:10EB50000C32FDF770F903E0181C0B22FDF71CF9CD
:10EB6000301CFEF783FF301CFEF702FF7FBDC0465E
:10EB7000F1B7010077DF704778DF70477ADF7047C1
:10EB80007CDF70477FB5002302AC039328332380DA
:10EB90006933FF33114D6380E380803BFF3B01AE5F
:10EBA000281C337004F0F8F8291C82B2301CFFF7DF
:10EBB000E7FF80B200280FD180208000FFF7DCFF44
:10EBC00080B2002808D1201CFFF7D8FF80B20028AF
:10EBD00002D1FFF7CFFF80B204B070BDF493020002
:10EBE0007EDF704768DF704738B500200D1CFFF7E7
:10EBF000B5FB0368DB6A98472B78041C142B17D0ED
:10EC000002D8132B05D041E0152B16D0222B37D07C
:10EC10003CE06B68012218881B796468191C5D0848
:10EC20005B0611405B0F2A40002C2FD0A0472DE03F
:10EC30006B6818881979A3681EE06A6811790B0956
:10EC40000907090F012902D0022908D011E0013B70
:10EC5000DBB20021022B0DD80D49C95C0AE004216A
:10EC6000012B07D0023B5842434101315B4219401E
:10EC700000E000211088E368002B07D0984705E0EA
:10EC80006B6818882369002B00D09847002038BD96
:10EC9000FA930200014B18787047C046BD39002036
:10ECA000F0B5314E87B0347800960026B44257D183
:10ECB0001C1C01920D1C071C02F0DAF9B04201D0B5
:10ECC0000B264DE0002C0FD0222003A90394FFF760
:10ECD00089FF002808D00626082841D01138061CD4
:10ECE0007042464104363BE0002302AA101C137018
:10ECF00000F086FF011EE3D101241C4E274030782E
:10ED00002540A04338436B000227051C0720BD4364
:10ED10001D437023019A9D43024012011543357033
:10ED200003AD0C22281C03F0AFFF0920104B311C4F
:10ED3000039302ABC01805222F7103F067FF0D4843
:10ED4000291C00F0CDFF002807D00726042807D093
:10ED5000013E082804D0053602E0061C009B1C700A
:10ED6000301C07B0F0BDC046BD390020FC2E00208D
:10ED7000E9EB0100BC39002008B5074801F078F83C
:10ED80000023984206D00733042803D0013B08280B
:10ED900000D00533181C08BDBC390020002373B512
:10EDA00001930F4B01AD1B780E1C291C2B7001F039
:10EDB0007FFA041E04D0042305280FD007330DE08A
:10EDC000281C311C00F0C6FF231C002806D0072396
:10EDD000042803D0013B082800D00533181C76BD59
:10EDE000BC39002073B5104C0E1C051C211C684654
:10EDF000052203F00BFF012E06D0022E11D10122B5
:10EE000023781343B34303E002222378B3439343AD
:10EE1000281C69462370FFF7E3FE031E02D00B2374
:10EE200000E00223181C76BDFC2E002008B5094B1B
:10EE30001A780923002A0AD0011C074800F0C2FFF3
:10EE40000023984203D003330E2800D00333181C4C
:10EE500008BDC046BD390020BC39002008B501F00E
:10EE600076FA08BD08B502230A1C0B708C330B71AF
:10EE70003F3B4B712D338B710132043101F03EFA6F
:10EE800008BDA2DF7047A3DF704763DF7047000053
:10EE90000022014B1A607047C039002010B586B0BF
:10EEA0006B46DC1D00232370C15C02AA9954013318
:10EEB000102BF9D1101C211CFFF7E7FF002398420B
:10EEC00000D12378181C06B010BD00000122F0B557
:10EED000438A87B0039303780192002B41D0264BDD
:10EEE00087181A681D1C02920022029B9A4217D0B2
:10EEF000112100235143214E71189C1E012C04D96D
:10EF0000CC5CA446FC5CA44508D10133102BF4D1A1
:10EF100011235A43B618337C019322E00132E4E70F
:10EF2000041C381CFFF7BAFF2378061C0190002B45
:10EF300001D11234271C029B042B12D01124181C5F
:10EF400060430E4B391C1818102203F05FFE2B682B
:10EF50000A4A5C43171900220133BA70FA703E74F2
:10EF60002B606A46127905AB9A705888039B00049F
:10EF70000343181C07B0F0BDC0390020C43900207D
:10EF8000F0B599B01F1C1EAB029102CB09AD1B88D6
:10EF90000190039320AB1B88281C049321AB1B78A2
:10EFA000059323AB1E8824AB1C7825AB1B780693F6
:10EFB00006ABD91D0A70012203F028FE30232A78FF
:10EFC0001A4211D00AAD00210322281C03F05CFE76
:10EFD0000622AB789343043A13430E32AB70111CF4
:10EFE000012319432970697011AD00211C22281CCE
:10EFF00003F04AFE09AB1A7830231340581E8341B0
:10F000000AA95B4219402A706961002E05D0229B33
:10F01000002B02D06B602E816E81012000230BAD8E
:10F020002B800440069BE4000340E4B21901231C3A
:10F0300002240B431C433223059901400C43AC705E
:10F040001A421ED0781E04281BD82978233B9943E6
:10F0500006F06EFF0305070C1100012007E00120F8
:10F060000AE0012001430B40302108E00220014367
:10F070000B40102103E0022001430B4020210B43F1
:10F080002B700C231A421ED0781E04281BD86A78D5
:10F0900003339A4306F04CFF0305070C11000121CE
:10F0A00007E001210AE001210A431340302208E071
:10F0B00002210A431340102203E002210A431340B5
:10F0C000202213436B700CAC201C0021142203F08F
:10F0D000DBFD029B01980C936B469B8911A9238150
:10F0E0006B461B8A221CA3811E9B65602361269BA5
:10F0F000FFF7C7FE80B219B0F0BDF0B589B000933C
:10F100000EAB1B88161C01930FAB1A7801230F1C42
:10F1100002211A400A4302A98A70191C1022051CF8
:10F1200002A81143021C03AC01705170201C002185
:10F13000142203F0A9FD02AB63606B461B88281CF8
:10F1400023816B469B88211C109A0397A38126611B
:10F15000FFF799FE80B209B0F0BD000038B500237A
:10F16000C356051C0C1C013304D10948094920224F
:10F1700002F0C4FC00210123A0226956D2058B4075
:10F18000002C02D0A121C90000E00349535038BD32
:10F19000CA8F0200FD9302000C0500001FB5152167
:10F1A000684602F052FD01A8162102F04EFD02A8A9
:10F1B000172102F04AFD03A8182102F046FD684617
:10F1C0000121FFF7CBFF01A80021FFF7C7FF02A82D
:10F1D0000021FFF7C3FF03A80121FFF7BFFF96201F
:10F1E00002F0C1FD68460021FFF7B8FF01A8012128
:10F1F000FFF7B4FF02A80121FFF7B0FF03A8002129
:10F20000FFF7ACFF962002F0AEFDD8E770B5051C05
:10F210000C1CA0B002F08AFC291C6846221C05F0D8
:10F22000B5F8051E03DC02F0AFFC20B070BD0A4B40
:10F230000A4E1B68002B04D1301C09210B2202F05E
:10F2400019FB00246B46301C195D013402F0C8FA2A
:10F25000AC42F7D1E7E7C046303D0020A43F002094
:10F260000FB407B504A901C90191FFF7CFFF03B09F
:10F2700008BC04B0184708B5012003F0FBFB704739
:10F2800008B5FFF7FCFF08BD7047704708B5FFF7EA
:10F29000FCFFFFF7F9FFFCF735FA08BD0C4910B584
:10F2A0000B681818EFF30882904205D30C22012056
:10F2B000084B40421A600AE0074A1268002A04D04C
:10F2C000064C2468A2189042F0D20860181C10BDA9
:10F2D000042F0020CC3F0020083A00200C3A0020E8
:10F2E00008B5002801D0FFF759FFFEE770477047C7
:10F2F00008B5FFF7FBFF08BD08B5FFF7F8FF08BD2D
:10F30000032310B5027813400022012B0CD0041CFB
:10F31000934204D005480649064A02F0EFFB022258
:10F32000237813432370013A101C10BD759402001A
:10F330009B940200DB020000032310B50278041C3A
:10F340001340022B04D006480649074A02F0D6FBB8
:10F35000032223789343023A1343237010BDC0461F
:10F36000DD9402009B940200E302000010B503F05C
:10F37000CFFB041E02D1024802F028FC201C10BD65
:10F380001C95020008B5002801D003F0CBFB08BD96
:10F3900003210A4802680A430260094802680A43D6
:10F3A00002600849084A094B9B1A03DD043BC85810
:10F3B000D050FBDC06488047064800472405004043
:10F3C000540500408C9B0200F82E0020903700204E
:10F3D000E5F3010075B10100FEE7FEE7FEE7FEE799
:10F3E000FEE7FEE7344B10B51A78012A19D1334AEB
:10F3F0001268120715D1324AE0241168F022081C65
:10F40000104021420BD12F490968114209D12E49E0
:10F410002E4A116080212E4A0902116001E0302835
:10F42000F1D01A78012A0DD124490968090709D1B8
:10F43000F020234909680140402903D12149096886
:10F44000014231D01B68DBB2012B1FD11B4B1B6863
:10F450001B071BD11A4B1A68F0231A40A02A04D1AB
:10F46000184A12681A4203D010E0D02A0ED1F7E7EA
:10F47000184B1A68012A03D1C022174B1A6005E005
:10F48000164A1A601A68012AFCD1F5E78022A323E4
:10F4900001210020D205DB00D150114B9860916012
:10F4A0009A68002AFCD005E0C1218020C900C0056F
:10F4B0004250C7E710BDC046E00F00F0E40F00F077
:10F4C000E80F00F0EC0F00F0DFFF07C0040500407C
:10F4D000186C004000EC064014EC064075930000E8
:10F4E000FC00004008B5031CA022C133FF339B0081
:10F4F000D2059B589B039B0F033B59424B41022172
:10F50000C91A0A4B1B68C340DB070ED5084B1B5CAE
:10F51000012902D1DB0902D107E05B0605D5054BC5
:10F52000054A80001B688058984708BD983F002016
:10F53000783F0020103A0020143A0020F7B5324DF1
:10F54000041C2B68314EC340DB0709D5335C9A0796
:10F5500004D59B0602D400F0BBFF01E001F0AEF839
:10F56000335DDA0701D49B0646D5335D01A99A07BE
:10F5700004D59A06D20FD0B200282ED00023032241
:10F58000CB708B700A70335D9F06F80F002F14DA72
:10F590004A70201C1E4A00F0BFFF0123A3401D4AF1
:10F5A00012681A4221D0335DDA0901D15B061CD5FD
:10F5B000201C012101F01AF817E0DB069B0FDAB2DC
:10F5C000012A01D0032A01D14B7000E04870201CB1
:10F5D00001A9002200F0A0FF07E05B070880DB0F15
:10F5E000201C8A704B7000F01DFF0123A3401C1CDF
:10F5F0002B681C432C6005E00123A3401C1C2B68D6
:10F60000A3432B60F7BDC046743F0020783F002025
:10F61000E5F40100983F002010B5041C01704B1C5C
:10F6200010D0C9B21E2904D907480849442202F063
:10F6300065FA00F0CDFE002201200549A2568B5C40
:10F6400003438B5410BDC046B5950200D49502000B
:10F65000783F00200023C35610B5041C013304D1A9
:10F660000D480E494D2202F049FA0022A0210C4B10
:10F67000A256C905985C8007C30F012B04D1A120B5
:10F68000C0000858D04005E0A223DB00CB58D3408F
:10F69000181C0123184010BDCA8F0200D495020027
:10F6A000783F002038B50023C356051C0C1C1F2BC7
:10F6B00004DD0A480A49912202F020FA0321214080
:10F6C00018242878074D42B2CB00A95CC0B2A143F0
:10F6D0001943A954FFF732FF38BDC04633960200E4
:10F6E000D4950200783F002038B50023C356051C8E
:10F6F0000C1C1F2B04DD0A480A49992202F0FEF96E
:10F700000121214002242878074D42B24B00A95C18
:10F71000C0B2A1431943A954FFF710FF38BDC0463A
:10F7200033960200D4950200783F00204CDF7047EA
:10F730000120054A08B513785840044B10701B6827
:10F74000002B00D0984708BD943A0020903A002042
:10F75000134B70B51A608024C022124B5200A403D0
:10F760009C50421E022A0CD802280AD0C525AD00A2
:10F770005E590D4A80033240104358515A59520481
:10F7800001D40A480BE00A4A5068002803D01368E5
:10F790001C43146000E01C600320FFF7C7FF70BD2E
:10F7A000903A002000E100E0FF00FFFF022000008F
:10F7B0009C3F00207FDF704786DF7047A7DF7047E0
:10F7C000A9DF7047AADF704700207047002070470C
:10F7D00000207047002070470020704700207047CD
:10F7E00000207047F0B585B0041C0E1C02AA817879
:10F7F000214801F0E1FC00283CD10C2361781F4A2C
:10F800004B43D3189B7A1E4F01925B0605D4022E00
:10F8100003D01C4F012E00D01B4F1C25A1781B4B81
:10F82000694302A859182A1C0023B847002813D19D
:10F83000022E1FD00C234021627802A85343019A64
:10F84000D3189A7A8A439A726178114B69432A1CB9
:10F8500059182B1CB84701E0022E0BD00C2322783C
:10F8600002A853430B4A211CD3189B7A0A4A9B00D7
:10F870009B58984705B0F0BDB43B00209E3A00204D
:10F880008112020005120200C9F70100AC3A002003
:10F89000703B0020A43B002060960200F7B51822C0
:10F8A0000190437829485A4381184C68284F002C0E
:10F8B0000FD00C2159437918897A4DB2002D07DAFF
:10F8C000490605D4151C0835A6B24519145802E09E
:10F8D0000024261C251C0C225343FB181889291CC4
:10F8E000321C231CFFF76CFF0B2818D10C22019B44
:10F8F000291C5B785343FB181889321C0123FFF73E
:10F900005FFF00280ED00C21019B124A5B784B430D
:10F91000FF183889FFF752FF00280AD115E00028A8
:10F9200003D100E00124002000E00B48012C0CD1A1
:10F93000E9E70222094BC318934303D0082801D0FA
:10F94000112801D1044800E00020FEBD8C3B0020BE
:10F950009E3A0020FFFF000041800000FECFFFFF25
:10F9600008B5FFF79BFF08BDF0B589B002AB9D1D40
:10F970000E230C22019000912B804B7804A9534355
:10F98000224AD31818892A1C0323FFF71BFF0028DB
:10F9900038D11826009B1E4F58782A8870430830AB
:10F9A000381804A903F00AF9009B3C1C5B78002876
:10F9B0000DD10C225A4315498A18917A022211401E
:10F9C00020D17343321CF81803F05EF91AE05E434D
:10F9D000BE1972680F4F002A00D10F4F182603225C
:10F9E0007343E2502A88E11808334A60E01804A9FA
:10F9F00003F00CF9009B01985978321C71433823AD
:10FA00006118B847002009B0F0BDC0469E3A0020FA
:10FA10008C3B0020811202000512020008B5FFF79E
:10FA2000A3FF08BD70B51824031C4878094D604336
:10FA30000E1C2818191C221C382301F05FFC00281A
:10FA400006D173785C432C196368013300D1606080
:10FA500070BDC0468C3B002008B5FFF7E3FF08BD32
:10FA6000F0B5444C95B02468002C00D180E01A9C7D
:10FA7000542C7DD80024161CFF221D1C03AB5A7089
:10FA80009A70DA701C701A9B06AF009101903C705E
:10FA90000B950A93A1B2384804AA01F08DFB002807
:10FAA00009D1019804A9082203F088F8002802D19E
:10FAB00003AB9C7002E00134072CEBD103ACA178BE
:10FAC000FF2955D0009B032B0AD11A9A06AB542A62
:10FAD00001D1343A00E040221A701A78032139E04B
:10FAE000264BEB1AC32B10D8254B002E04D1012234
:10FAF0008A40186810423BD001228A40196891431D
:10FB00002022196006AB1A701EE01E4BEB1A1B2B4D
:10FB100008D8202306AA1370002262700CAA0B9248
:10FB20000A9311E018482D1A172D21D830233B7065
:10FB3000002363700133E370144B997A0223194058
:10FB400002D1182203F0A0F8009A06AB022A0CD1C9
:10FB500001211A780A431A7009AB0793054B201C40
:10FB60001B6806A9321C984702E01A780221F1E7C7
:10FB700015B0F0BDA43B0020B43B0020AC3A0020FF
:10FB8000B03B0020703B00208C3B00209E3A0020C0
:10FB900070B51C2444430D4E051C30190021341946
:10FBA0000622113003F070F8201C0021102203F00F
:10FBB0006BF80120FF23A840054A2374A376013B7C
:10FBC000FF3B238313688343136070BDAC3A00206E
:10FBD000B03B002037B581B2051C6A46074801F0EA
:10FBE000EBFA041E08D16846542101F0D3FB041E31
:10FBF00002D1281CFFF7CCFF201C3EBDB43B0020E7
:10FC0000F0B585B0002856D000252C4B041C1D6093
:10FC10005D729D7201232A48291C8372023B0722D0
:10FC20000381C37203F030F82648291C182203F020
:10FC30002BF8281CFFF7ACFFFF22234BEA540135B9
:10FC4000072DF6D16A465423204F9380204B6846F7
:10FC5000391CD580009301F04DFA3E1C00282BD1B1
:10FC600001231C4D24782B70002C1AD1A1B2301C1A
:10FC700002AA01F0A1FA071E0CD11C22131C634337
:10FC8000154802A9C0183B1C01F038FB002804D01D
:10FC90002F7011E000232B700EE00134072CE5D10A
:10FCA0000AE06B466A46DB889188381C594389B262
:10FCB00001F070FB00E0094805B0F0BDA43B002056
:10FCC0009E3A00208C3B0020953A0020B43B002057
:10FCD00061FA01009C3A0020AC3A00200E8000003E
:10FCE000F8B5174B1B78002B24D0002824D000290E
:10FCF00022D00B68002B1FD0124D2C68002C1DD178
:10FD0000061C281C0F1C08C00531052202F07EFFCE
:10FD10003B790220AB72012304212A7A9A430243E1
:10FD20008A432A72EA79134303438B43EB71201C05
:10FD3000347004E0044802E0044800E00448F8BDE0
:10FD40009C3A0020A43B0020088000000E800000A8
:10FD500004800000154B1B78002B22D000281ED0F9
:10FD600000291CD00378002B1BD1114B1B68002BE2
:10FD700017D04278002A16D10E4B9B7A012B12D055
:10FD80002420184003D00123101C0B700CE05BB240
:10FD9000002B02DA02230B7006E0087004E006482C
:10FDA00002E0064800E006487047C0469C3A002042
:10FDB000A43B00209E3A00200E8000000880000036
:10FDC00010800000234BF0B51B78002B25D00028B5
:10FDD00021D000291FD00B68002B1CD08B68002B72
:10FDE00019D00378002B18D11B4A1268002A14D0AE
:10FDF0001A1C181C194D1035194CE67AB3420ED155
:10FE0000A47AA4070BD501331C35072BF4D1087154
:10FE10000A7300201CE013481AE0134818E00C7B1A
:10FE2000A2420AD2AC7AE40707D42E1C8F68940051
:10FE3000103EE6510D4CA35401320C79A042E2D29F
:10FE4000AC7AA407DFD40E688400A5510130DAE74C
:10FE5000F0BDC0469C3A0020A43B0020AC3A0020F4
:10FE60009E3A00200E80000008800000953A002095
:10FE7000104B10B51B78002B19D0002815D0047832
:10FE8000002C14D10C4B1B68002B10D0201C1C2301
:10FE900063430A4AD3189B7EFF2B02D0201CFFF736
:10FEA00099FE0134072CF2D102E0054800E0054834
:10FEB00010BDC0469C3A0020A43B0020AC3A002074
:10FEC0000E8000000880000013B5041C81786A468B
:10FED0000B4801F071F9002810D11C236078094A01
:10FEE0005843694610181A1C01F008FA064B074AD5
:10FEF0009B7A68469B009B58211C984713BDC046BF
:10FF0000B43B0020703B0020A43B00207096020010
:10FF1000FF23F0B5C44A91B012780393002A00D1B0
:10FF2000BDE1C24A11680192002900D1B7E104ACD9
:10FF300005AF6370A370E370031D7B602C23002268
:10FF40003B810388051C2270102B0CD0B84A808896
:10FF5000927AB74E910741D5B649884209D0318986
:10FF600081423BD105E00126B14B9B7A334206D159
:10FF700095E1AF49C97AA170002161702EE011238B
:10FF800062703B708388AA4A071C138102230837DA
:10FF90009372101C391C072202F038FEEB7D1E40C4
:10FFA00006D0A54A5B08D35CFF2B49D0039347E0FA
:10FFB000A24D1035002F05D12A899E4B9A4208D1B7
:10FFC00003963DE0281C391C072202F0F7FD0028AB
:10FFD000F6D001361C35072EECD116E0192B75D161
:10FFE00001260424101C1427019B01995B7AA0436D
:10FFF000B3434B728E4B05A90F7098722F7A191C60
:020000022000DC
:10000000002F2AD16B7A23422ED10024019B05AD0B
:100010001B6804A8291C221C98472B78122B00D09F
:100020003DE18348837A012B00D138E101238372BB
:10003000023B0381C3720021072202F025FE2EE15C
:1000400008207B4A039B917ADBB20143D372917201
:10005000201CA370FFF738FFD7E75206D5D4D87A13
:10006000FFF7B8FD2C7AD1E704ACA378FF2BCCD0F6
:10007000082202438A726A7B920706D51C205843E5
:100080006E4A1018827EB2438276CA7AFF2ABCD0AA
:100090001C220D7869485A43022D09D08518281C66
:1000A0000722103002F0B2FD2A1CAB7E022106E0CE
:1000B00063498318498A1A1C198301219B7E8B434B
:1000C0009376201C0121FFF78DFB9EE7192B00D9A9
:1000D0009BE0132B53D1132304213B70544B11434A
:1000E000DE7A9972191CFF2E3BD100261C2070432A
:1000F000524F3818837EFF2B16D1031C0A78183311
:10010000022A06D0FD2210309A70F63A02F07EFDE7
:1001100001E0FE229A7003AB1E70039B444ADBB2DF
:10012000A370D372002403E00136072EDED1454CC4
:1001300000213F4B0C91DA7A1C235343FF18404BAC
:100140000D970893019B0E910F9109910A910B91C4
:100150001A1DA88808ABFFF72DFB002800D155E732
:100160009DE044210A439A72162300223B704131DC
:10017000131CFFF71FFB041E00D090E046E7142B72
:1001800027D12B4FFB7A0197FF2B16D10023288A0A
:100190001C212A4F5943BC466144098B814209D135
:1001A0000821DBB20A43F372B272201CA370FFF77E
:1001B0008BFE02E00133072BEAD1019B0021DB7AA1
:1001C000FF2B00D01E49A8881C4A0023FFF7F4FA31
:1001D00065E0112B63D10223111C154D9943A972BF
:1001E000120707D54BB2002B0BDA201C0021FFF7BA
:1001F000F9FA06E0A078FF2803D0FFF7C9FCFF2337
:10020000A3701023AB72023302E01E2B02D1132322
:100210003B70FAE6522B19D1019B0B4A9B7A201CAA
:100220009B009B5898473AE09C3A0020A43B002052
:100230009E3A0020FFFF0000953A0020AC3A0020D3
:10024000703B002043800000509602001A2B26D1FC
:100250002B7A112B14D1130712D512480E22083015
:10026000002102F011FD162360223B70B37A134384
:10027000B372019B5E3A5B7A1343019A5372C4E6F0
:1002800080235B421A43084B201C9A7215233B7053
:10029000019B064A9B7A9B009B589847B5E611B094
:1002A000F0BDC0468C3B00209E3A002050960200D4
:1002B00030B5002912D00A78002A11D10A4B1B68E8
:1002C000002B0DD0FF23094C8B702589FA3B85420A
:1002D00007D14A70E37A8B70131C02E0044B00E0F4
:1002E000044B181C30BDC046A43B00209E3A0020A1
:1002F0000E800000088000004DDF704730B50023FD
:100300000D1C141C8DB06946C21AD27B5A5401339D
:10031000102BF8D1002104A80D2202F0B5FC6A468A
:100320002B786846D3776B789377AB785377FFF762
:10033000E3FF2F236B441B7823702E236B441B7821
:1003400063702D236B441B78A3700DB030BD30B5A6
:100350000378041C85B00020022B17D10D1C03224A
:10036000611C01A802F052FC211D032203A802F027
:100370004DFC281C03A902AAFFF7C0FF01A802A98F
:10038000032202F01BFC43425841C0B205B030BD0D
:10039000A0238000DB05C018E023DB0010B5044A71
:1003A000C45809042240C250C2581143C15010BD64
:1003B000FFFFFCFF0123054A81005B428B500328AD
:1003C00002D910184C3003707047C046BC3B002067
:1003D00038B5124C0820231C58331B78002B1CD135
:1003E0001A1CFF2130320133A154202BF8D10025F3
:1003F000281C0135EDB2FFF7DDFF0C2DF8D10620EA
:10040000032101F0D7FC8021C123054A9B00090686
:10041000D150012300205834237038BDBC3B00204C
:1004200000600040F0B50025254A08231418303438
:100430006557013542D18B78002B2AD000239C00D0
:100440001559013521D1151830352B700023A226FE
:1004500013511C4BF600E3189F591B4C0A783C4083
:100460004D789C5180242D0564032540C02412043E
:10047000A4022240F82415436401020214402A1CFD
:100480009F5922433A439A5105E00133042BD6D1B8
:1004900014E0FE232370A0224B78D205012B03D158
:1004A000A1218340C90002E0012383400749535042
:1004B0000323C130FF30800013500023181CF0BD0F
:1004C000BC3B002000600040FFE0ECFF0C0500009A
:1004D00070B50F4C051C261830363078032809D823
:1004E000FFF768FF00230021F3560A4A4533FF3324
:1004F0009B009950FF236419281C30342370A023DB
:100500000222C130FF308000DB05C25070BDC04602
:10051000BC3B002000600040F7B5314B94461A18F0
:1005200030321278041C019308207F2A57D9CF78E3
:10053000002F02D00025042308E004250C2305E049
:100540002748AA001658013603D001359D42F7D13D
:1005500017E006193036EBB2337066461650002F9E
:1005600002D140194C3004708A78002A0BD0A020A8
:10057000E0250226C005A2001218ED005059B04334
:1005800009E004202BE0221CA0254878C132FF326C
:1005900080009200ED055051C8780A785BB20028BF
:1005A00016D0A2250F499B005B18ED0058590E4943
:1005B000240201405951F820C0214001120489024F
:1005C0005E5904400A40144334435C51002006E065
:1005D00001999201CB184C3319780A431A70FEBD69
:1005E000BC3B002000600040FFE0FCFFF8B5204D60
:1005F0002C183034227853B2032B1ADDEB184C330D
:100600001978890903290CD1A223A022DB00D20585
:10061000D25801238340191C11404B1E99410231CD
:1006200004E001394B4259410323591AFFF7B0FE48
:100630001DE0032A1BD8A2270E489A001218012099
:10064000FF00D6590643D6511A1C002740329200AB
:10065000084E92B29751B94209D00022A256920098
:100660005259BA4203D0C12298409200B050F8BD0E
:10067000BC3B00200060004010B50E4B1B1830330F
:100680001B7859B2032903DD0021FFF781FE0FE03B
:10069000032B0DD8A224084B8A00D2180123E400B2
:1006A000105998431051C2228B40034992008B503D
:1006B00010BDC046BC3B00200060004038B5041CA3
:1006C000FFF7DAFF0E4D2B1930331B78D8B2032811
:1006D00006D800215BB24533FF330A4A9B0099508C
:1006E000231CA0220221C133FF339B00D205995065
:1006F000FFF760FEFF232C193034237038BDC0464D
:10070000BC3B002000600040F0B501220024514BAA
:1007100087B01968012908D1C1214F488900415883
:10072000114202D00021144319604C490433520095
:100730008B42EED14A4B00261A68012A08D11E606E
:1007400080231B061C43A022A223D205DB00D6581F
:10075000230707D1002C7BDA01235B42049300239B
:1007600002932BE0012700253C420DD03A4AAB0012
:100770009918A222D200885889583A4AC00489039D
:10078000C00E890F9B58984701357F00042DEBD18F
:10079000E0E73C7863B2013318D1059B01379F42F3
:1007A000F7D1019B002B53D0A223A022DB00D2055E
:1007B000D358B3424CD01E1C029A0492294B1F1CE2
:1007C00058330593002350370193E2E7E4B2C02386
:1007D000251C9D43049BEB40DB07DED5214AA40981
:1007E000531930331B785BB29B009B580393002B4B
:1007F00001D1032CD1D10122AA40032C02D1029BAA
:10080000134302932B1CA021C133FF339B00C90566
:100810005B589B039B0F164202D0022BBDD102E016
:10082000032BBAD103E0032C0BD1211C02E0032CD3
:1008300007D10221281CFFF7ABFD019B0133DBB27E
:100840000193039B002BA8D0281C211C9847A4E7E8
:1008500007B0F0BD00610040006000401061004042
:100860007C610040BC3B002008B5064B58698023E2
:100870005B05421C04D0196989B205F06DFB00E0EC
:10088000586908BD0010001029DF704728DF704745
:1008900008B5034B034A1B789B009B58984708BD3B
:1008A000003D0020809602000B1C37B50C24021C72
:1008B000181C8968054D4C432D6819780095044D26
:1008C000083064591B69A04737BDC0460C3D002065
:1008D000EC3C0020802252051169142208B50E4814
:1008E00089B203785343C3181A69501EDA881B89EA
:1008F0008018C01805F030FB084A031C126801205C
:100900009A4207D300209A4204D1054B1B685842F3
:100910005841C0B208BDC046183C0020E43C00204D
:10092000E83C002008B50823034A11689943116088
:10093000FFF7AEFF08BDC046043D0020094A08B5D8
:10094000136819070AD4990702D501210B431360D4
:100950000222054B1A70FFF79BFF01E0FFF7E2FF51
:1009600008BDC046043D0020003D002008B5064BF0
:100970001B681B0705D40122044B1A70FFF788FF80
:1009800001E0FFF7CFFF08BD043D0020003D00203F
:1009900008B5002814D0112805D10823094A116888
:1009A0000B4313600CE01423074A11785943511884
:1009B0000431FFF779FF0422044B1A7000F098F815
:1009C00008BDC046043D0020183C0020083D002022
:1009D00008B5FFF759FFFFF7DBFF08BDF8B5142393
:1009E000144A8024167864055E439619371C331C1C
:1009F0002169F28889B23089083710330E4D8A4256
:100A00000FD92169266989B2521AB9684018596804
:100A100080188918B2B29208FFF7DAFF23699BB2F7
:100A200006E0B968920840185968FFF7D1FFF388CB
:100A30002B60F8BD183C0020183D002038B58025FB
:100A40006D052C69084AA3B21468013C5C43FFF7AA
:100A50000BFF2B69411E9BB25943044B201C1A68A3
:100A6000FFF7B6FF38BDC046E43C0020143D00202F
:100A7000142270B580260E4976050B785343CB18A7
:100A80001A89DC881B69A4183169E418201C89B212
:100A900005F0E8FA0D1CFFF7E7FE336901389BB259
:100AA0005843044B41191A68201CFFF791FF70BD91
:100AB000183C0020E83C002008B5FFF7D5FE802256
:100AC0005205136901389BB25843054B11691269ED
