:020000021000EC
:10B000000080002051FE010099FE01009BFE01001E
:10B010000000000000000000000000000000000030
:10B020000000000000000000000000009DFE010084
:10B0300000000000000000009FFE0100A1FE0100D2
:10B04000A3FE0100A3FE0100892302001D0F0200E0
:10B050002D0F020000000000BD1302005902020083
:10B06000A3FE0100A3FE0100A3FE0100A3FE010058
:10B07000A3FE0100A3FE0100A3FE0100A3FE010048
:10B08000A3FE010035440200A3FE0100A3FE01005F
:10B09000A3FE0100BD020200D1220200A3FE0100B6
:10B0A000A3FE0100A3FE010000000000000000005C
:10B0B0000000000000000000000000000000000090
:10B0C00008B5054B054803331B1A062B03D9044B5F
:10B0D000002B00D0984708BDD8370020D837002073
:10B0E000000000000648074908B5091A8910CB0F6F
:10B0F0005918491003D0044B002B00D0984708BDC5
:10B10000D8370020D83700200000000010B5074CC9
:10B110002378002B09D1FFF7D3FF054B002B02D07A
:10B12000044800E000BF0123237010BDE837002071
:10B13000000000002827030008B5094B002B03D0AE
:10B140000848094900E000BF08480368002B02D105
:10B15000FFF7C8FF08BD064B002BF9D09847F7E76B
:10B160000000000028270300EC370020D83700201B
:10B1700000000000144B002B00D1124B9D464022D2
:10B1800092029A1A924600218B460F461148124AA3
:10B19000121A0AF015FB0D4B002B00D098470C4BF0
:10B1A000002B00D098470020002104000D000B4820
:10B1B00009F05AFB0AF05AF92000290004F020FD9A
:10B1C00009F06AFB00000800008000200000000079
:10B1D000F5FB0100E8370020BC440020DD4C0200F4
:10B1E0007047704708B50368002B01D0081C9847CA
:10B1F00008BD08B50368002B01D0081C984708BD9E
:10B2000008B50B68984708BD08B50368002B01D046
:10B21000081C984708BD08B50368002B01D0081C1E
:10B22000984708BD08B50368002B01D0081C984753
:10B2300008BD704738B50023C356051C0C1C0133EC
:10B2400004D109480949202207F064FE00210123A6
:10B25000A0226956D2058B40002C02D0A121C90042
:10B2600000E00349535038BD560E03006E0E030034
:10B270000C050000012210B5054C064B201C1A706D
:10B2800004F048FF41424141201CFFF7D3FF10BDAD
:10B290000C3900200438002010B5041C064B074A66
:10B2A0000360074B9C300360231CA0331A6007F037
:10B2B000FBFC201C10BDC04678170300D417030008
:10B2C0009817030008B4024B9C469C3808BC6047A2
:10B2D00099B2010008B4024B9C46A03808BC6047F4
:10B2E00099B2010038B5134B4288DB8B9A4220D1CA
:10B2F0000189041C01290BD1C3680F481978FFF795
:10B3000099FFE3680D481B78002B10D00C480EE025
:10B310000C480AF0AFFA002523899D4206DAE3685B
:10B320000948595D0AF0A6FA0135F5E707480AF021
:10B33000A1FA38BDB83800205C380020AE0E0300FA
:10B34000B70E0300C10E0300E70E0300BE0E03009C
:10B3500010B5041C04F0D6FC201C10BDF7B5041C6D
:10B36000C07F0126C5181D2D1DDC0F1C01929919E7
:10B37000321C20181D1C0AF023FAE07F321C8019B1
:10B38000C0B2E077391C20180AF01AFAE07F2A1CB4
:10B3900080190026C0B2E077019920180AF086F9DA
:10B3A000E37FED18E577301CFEBD0000F7B58E1E7B
:10B3B000F6B2041C0191089D132E22D80120071C0F
:10B3C000B7403E1C254F3E421BD0E17FCE1861188E
:10B3D0001F2E41DC681C814203D90878C85401390A
:10B3E000F8E70021C8B2984204D2565C681886700B
:10B3F0000131F7E72A789A182A70E27F9B18E377E1
:10B400000DE02E78771EFFB2BB420AD10021C8B2F0
:10B41000984204D2545C681884700131F7E7002028
:10B420001AE0E07FC01BC0188446614601201F2936
:10B4300012DCB81C2818E57F6119884205D2017812
:10B44000C51B023D29700130F5E7F643AD1901999E
:10B45000201CE577FFF782FFFEBDC0463F000800D5
:10B46000F7B50024C67FB4420ED205196F788F421B
:10B4700005D1002D08D00095FFF798FF06E0055D87
:10B4800001356419E4B2EEE7FFF768FFFEBD011C69
:10B4900008C910B5DB6F041C9847002804D10122AD
:10B4A000583423781343237010BD08B5002000F0F2
:10B4B000CDFB00F017FCFFF7EAFF08BD70B5061CD6
:10B4C0008AB00A360C1C2222311C051C01A80AF085
:10B4D000EDF86B460121DA1C01A80B1C1470FFF774
:10B4E000BFFF041E0DD12A1C2B6834329B6F281C11
:10B4F00001A99847041E04D1301C01A922220AF098
:10B50000D5F8201C0AB070BDF0B5051C161C0F1C28
:10B510008DB00A35291C2222041C03A801930AF0CD
:10B52000C5F8321C03A8391C019BFFF799FF061EC2
:10B530000DD1221C236834329B6F201C03A998472D
:10B54000061E04D1281C03A922220AF0AFF8301CE1
:10B550000DB0F0BDF0B5037989B005680093002BFC
:10B5600074D1281C00F0BEFB03AC00990C220190A2
:10B57000201C0AF025F9142004F0B8FB344B221CDF
:10B580000393031CC2CAC2C3324B019EC360009B1B
:10B59000A43603613368002B00D003613060281C9F
:10B5A00000F0B0FB00210C22061C201C0AF008F958
:10B5B000142004F09BFB284B0393031C86CC86C30A
:10B5C000264BC36000230361B369002B00D00361E5
:10B5D000B061281C00F086FB0621FFF76FFF281CD6
:10B5E00000F080FB00230371281C00F07BFB092185
:10B5F0001B4A0523FFF788FF281C00F073FB03217B
:10B60000184A0223FFF780FF281C00F06BFB036839
:10B61000041C9B689847031C6420834203D9236859
:10B62000201C9B689847FA239B0058430E4912F050
:10B63000D9F9E080281C00F065FB03680B491B6802
:10B640009847281C00F04EFBFFF721FF09B0F0BD22
:10B65000ABB4010025B20100E5B2010017B2010050
:10B6600040100300540E0300710200001C3A002039
:10B670000023021C10B503701132431C00241C70FF
:10B6800001339342FAD1418210BDF7B51C1C08ABBF
:10B690000E1C151C1F7800F035FB03680097DF684F
:10B6A000311C2A1C231CB847FEBD0000F0B58DB02C
:10B6B0000AF0F2F80024344A344B354D1070D98B1F
:10B6C000009401232868FFF7E0FF32480AF0D2F81F
:10B6D00006A831491A2204F05DF8089A099B2F4800
:10B6E000009201930A9A0B9B02920393069A079B7E
:10B6F0000AF0C0F80698079912F07EFB6B461227F5
:10B7000058740898099912F077FB6F4438700A98BA
:10B710000B9912F071FB224B1326D98B11236E4427
:10B7200030706B4400941A1C28680123FFF7ADFFAA
:10B730001C4B3A1CD98B009428680123FFF7A5FF06
:10B74000194B1627D98B009428681725321C012322
:10B75000FFF79BFF6D4415480AF08CF82C701534E8
:10B7600005AE6C446F44311C221C3B1C00950A48FA
:10B7700003F0D2FF2878317822783B7800900C488B
:10B780000AF078F80DB0F0BD5D3800206038002078
:10B79000B4380020EA0E0300F83A0020F80E030047
:10B7A0003C3A002010390020083800200C0F03001C
:10B7B000190F0300F8B5041C151C1E1C0B78471C40
:10B7C00003704B8A102243820131381C09F06EFF4E
:10B7D00002226561012300251643A2182383638397
:10B7E0002577E583FE77D377069B0C266362231CBF
:10B7F000201C079A28335D709D70291C1A702C300C
:10B80000321C09F0DDFF201C064BE563A363291CF5
:10B81000321C403009F0D4FF034B2565201CE36443
:10B82000F8BDC046F3B10100E5B1010013B5042233
:10B83000019101A9041C09F039FF019B034A591E1B
:10B840008B415B421A40E26013BDC04601B2010069
:10B85000F0B5002097B000F0F9F907AC0021051C05
:10B860000C22201C09F0ACFF3C4B0CA90793221CB6
:10B870000B1CC1CAC1C33A4B281CCB6000230B610F
:10B8800000F0AAF9374809F0F5FF281C00F00AFA81
:10B890000028FAD096213448890107F03EFA33484F
:10B8A00009F0E8FF324E0C21301C03F0DFFE0028C7
:10B8B00003D1304809F0DEFFFEE72F4809F0DAFF38
:10B8C000FE20800507F05CFC301C03F041FF011CEA
:10B8D0002A4809F0CFFF0121301C03F087FE0CA895
:10B8E00007F0E8FA264B12A800210C93FFF79EFF01
:10B8F00003A82449FFF79AFF059B03A90822201CEF
:10B900000193A36009F0D2FE069B211CE360A368AB
:10B91000082212A8149309F0C9FEE3680CA81A497A
:10B920000193159307F04CF9184809F0A3FF184C40
:10B930002378002B07D1174809F09CFF281C00F042
:10B94000F1F91548F1E7281C00F0BCF9836D9B075D
:10B95000F1D500232370FFF7A9FEE8E755B50100F4
:10B9600009B201004A0F030064390020550F03009B
:10B97000F83A0020780F0300B70F0300CE0F030042
:10B98000E817030075B2010040420F00EA0F030000
:10B99000043800202A1003003610030010B5041CE0
:10B9A000FFF77AFC201C04F0ADF9201C10BD08B490
:10B9B000024B9C469C3808BC6047C0469DB90100BC
:10B9C00008B4024B9C46A03808BC60479DB90100F2
:10B9D00010B5041C04F096F9201C10BDF0B500242D
:10B9E0005E4889B0221C1521047007F025FB5C48D5
:10B9F00001221621047007F01FFB5A4B03AE198871
:10BA0000301CFFF735FE311C574A10230094019477
:10BA10005648FFF7CFFEA121301C0902FFF728FE90
:10BA2000534D311C2A1C1023009401945148FFF7F8
:10BA3000C1FE301C5049FFF71BFE2A1C311C10238D
:10BA4000009401944D48FFF7B5FE301C4C49FFF7B8
:10BA50000FFE2A1C311C0094019410234948FFF763
:10BA6000A9FE494B301C1988FFF702FE474D337879
:10BA70006F1C2B70738A381C6B820D236B44191C4E
:10BA8000102209F013FE424B08226B610123FA7762
:10BA9000AA1C2B836B832B77D3772B1C28331C702A
:10BAA0002B1C29331C702B1C0C27281C2A33EC83DD
:10BAB0006C621C70211C3A1C2C3009F081FE281C81
:10BAC000344B3A1CEC63AB63211C403009F078FE28
:10BAD000314B2C65EB64314B301C1988FFF7C8FDE6
:10BAE0002F4D3378681C2B70738A10226B820D23C4
:10BAF0006B44191C09F0DAFD05232A4E2B752A4BDD
:10BB0000301CAB610921231C0B22AC8307F012F817
:10BB1000264D301C2A1C264908F070FE254E1E2199
:10BB2000301C072206F006FF2A1C301C224908F0B0
:10BB300065FE0121214F331C381C4942282203F0A5
:10BB400031FD1F492A1C381C08F058FE201C00F04B
:10BB50007DF81C4B186009B0F0BDC0465C38002071
:10BB60000C390020122F00205D38002060380020A2
:10BB7000053800203C3A002010A1000008380020C1
:10BB800011A1000010390020102F0020B83800202B
:10BB90000D390020F3B10100E5B10100142F0020A0
:10BBA0001C3A002064390020FC2E0020F82E0020D2
:10BBB00099B20100903A0020E3B10100F83A002068
:10BBC00033B20100B4380020704708B50368002B79
:10BBD00001D0081C984708BD021C0B1CF0B5126868
:10BBE00089B0019203AA151C1E1C4068016889686F
:10BBF0008C4692CE92C5DB680199D3600023136115
:10BC0000E04709B0F0BD000070B5041C00252160BC
:10BC10000E1C4560291C08300C2209F0D1FD094B8F
:10BC2000A5616361AE420AD1074D2B68002B02D19A
:10BC300002F094FD286023689B00EB586360201C91
:10BC400070BDC046CBBB01002C3B002070B5002866
:10BC50000DD1114C2668002E07D11C3004F046F897
:10BC6000051C311CFFF7D0FF2560206812E001267B
:10BC70000A4D0B4C2B6833420BD1281C04F000F802
:10BC8000002806D0201C311CFFF7BEFF281C04F042
:10BC900013F8201C70BDC0460C3B0020303B002038
:10BCA000103B0020436810B5041C002B02D104484F
:10BCB00007F098F960680368DB68984710BDC046D4
:10BCC00073100300436810B5041C002B02D1044814
:10BCD00007F088F9606803689B69984710BDC04603
:10BCE00073100300436810B5041C002B02D10448F4
:10BCF00007F078F9606803689B69984710BDC046F3
:10BD000073100300436810B5041C002B02D10448D3
:10BD100007F068F9606803681B6A984710BDC04661
:10BD200073100300436810B5041C002B02D10448B3
:10BD300007F058F9606803685B6B984710BDC04610
:10BD40007310030007B5021C83680832002B07D06C
:10BD5000044B002B04D00190436901A9101C9847A3
:10BD600007BDC046C9BB0100F7B5FA26B60071434E
:10BD7000009308AB1B78041C081C1549171C019381
:10BD800011F030FE85B2301C25807843104911F047
:10BD900029FE6B461B8880B2A3806B461B796080AE
:10BDA000A371032D01D80423238080232288DB0183
:10BDB0009A4200D92380032801D804226280628835
:10BDC0009A4202D98023DB016380201CFEBDC0465D
:10BDD00071020000704708B5081CFFF737FFFFF736
:10BDE000B1FF08BD93DF704794DF704708B5036863
:10BDF000002B01D0081C984708BD08B50368002B2C
:10BE000001D0081C984708BD38B50A6803689342FA
:10BE10002DD103790C1C051C002B0CD10B79002BA8
:10BE200025D1C28ACB8A9A4221D12B7E227E5340D1
:10BE30005B060DD01BE0012B19D10B79012B16D11C
:10BE400005300531102209F009FC0028EDD00EE084
:10BE50006A8B638B9A420AD1EB69E269934206D1FD
:10BE60002B8C208C181A42424241D0B200E00020B4
:10BE700038BD70B5061C0D1C041CE436201C291CA2
:10BE8000FFF7C2FF002802D14C34B442F6D170BD96
:10BE900007B501AB1980191C5A80FFF7A3FF0323D4
:10BEA00010280CD003D80023984208D006E00523C0
:10BEB000112804D0034A013B904200D00B23181CE8
:10BEC0000EBDC0460230000007B501AB1980191C39
:10BED0005A80FFF789FF032310280FD006D80023CC
:10BEE00098420BD00633082808D006E00523112815
:10BEF00004D0034A013B904200D00B23181C0EBD16
:10BF00000230000070B50025041C291C20C0FFF77A
:10BF1000AFFB0C26201C291C321C25766583A583CB
:10BF2000E5832584243009F04BFC201C064B656317
:10BF30002363291C321C383009F042FC034BA564F2
:10BF4000201C636470BDC046EDBD0100FBBD010057
:10BF500010B5041CFFF7D6FF201C4C30FFF7D2FFB2
:10BF6000201C9830FFF7CEFF201C10BDF8B50D1C2B
:10BF7000041C171C1E1C0B68102203600B79037134
:10BF8000CB8A0531C382053009F090FB2B7E3A1C29
:10BF900023766B8B6383AB8BA383EB8BE3832B8C3D
:10BFA0002384231C243323CA23C3FB680022236376
:10BFB000231C311C62633833A1C9A1C3F368201C60
:10BFC0006364A264F8BD70B58AB0041C0190038C50
:10BFD0000E1C0168132003ADAB8013780391AB7185
:10BFE000538A511C684410222B8309F05FFB201CEC
:10BFF0006E8302952430236B01A998470AB070BD67
:10C0000007B5031C6A460090117138305B6C6946B5
:10C01000984707BDF0B50C1C0B68A9B002930B79CB
:10C02000161C02AA1371CB8A501D0531D38210222F
:10C0300009F03CFB237E02AA1376638B5383A38B08
:10C040009383E38BD383238C1384221C0BAB243286
:10C0500023CA23C30025236B0F950E93083210AB20
:10C0600083CA83C3636C15A813931495FFF74AFF23
:10C0700015A9201C222209F019FB231C1EAA243317
:10C0800083CA83C3219B656301932363231C23AA73
:10C09000383383CA83C3269BA564636402A8311C1A
:10C0A000FFF7AEFF29B0F0BD30B5041C97B003A870
:10C0B000FFF728FF201C03A9FFF7A6FE051E19D0D5
:10C0C0000F9B226B0193934213D1211C0CA82431A6
:10C0D0000C2209F0C3FA00280BD1149B626C934226
:10C0E00007D1211C11A838310C2209F0B7FA002819
:10C0F00000D00025281C17B030BD70B5051C0E1CE3
:10C10000041CE435201C311CFFF77EFE002806D0FD
:10C11000201CFFF7C9FF002801D1201C03E04C348C
:10C12000AC42EFD1002070BD10B5041CFFF7E5FF55
:10C13000011E03D0201C0022FFF76CFF10BD70B55C
:10C14000051C0E1C041CE435238CB34206D1201CB4
:10C15000FFF7AAFF002801D1201C03E04C34AC42B9
:10C16000F2D1002070BD08B5FFF7E9FF431E9841EA
:10C17000C0B208BD38B5041C151CFFF7E0FF011E56
:10C1800003D0201C2A1CFFF745FF38BDF0B589B04D
:10C19000061C0F1C00920025FFF7D1FF041EAC42C5
:10C1A00035D0009B1A880623954219D26B43009A1A
:10C1B000D3189A79012A0DD15A88998803A8019237
:10C1C0000135FFF755FA201C019903AAFFF7FBFE82
:10C1D000ADB2E6E75A88381C111CFFF775FE10E077
:10C1E000013A5343009AD3185988E28B013189B23E
:10C1F000914203D9301C211C002206E0381CFFF7B5
:10C2000047FE021E03D0301C211CFFF703FF09B0BC
:10C21000F0BDF0B589B000900191141C0027FFF724
:10C220008EFF051EBD4246D023889F422CD2A378A4
:10C230000022012B07D111337B43E318D98803A8CF
:10C24000FFF716FA15E0002103AEB318013259705A
:10C25000102AF8D10123123179433370611802ABEF
:10C26000581D063109F022FAB37B727B1B0213437F
:10C27000738212237B43E3189988281C03AAFFF7D3
:10C28000A2FE7B1C9FB2CFE71222013B5343E4186E
:10C29000A188EA8B013189B2914203D90098291C07
:10C2A000002206E00198FFF7F3FD021E03D0291CCF
:10C2B0000098FFF7AFFE09B0F0BD38B5051C041CAF
:10C2C000E435201CFFF7F0FE002803D14C34AC42CB
:10C2D000F7D1041C201C38BDF0B51E1C4B8B99B047
:10C2E00002339BB201930392CB8B019A041C0D1C69
:10C2F0000F8C0293934207D2002705910697F368AB
:10C30000301C05A998472EE0391CFFF72CFF0028A8
:10C3100001D0052727E0201CFFF7CFFF041EF8D02F
:10C32000381C0199029AFFF7B3FD071E1BD1291C87
:10C33000331C039A05A8FFF719FE05A92222201C29
:10C3400009F0B4F9231C0EAA243323CA23C3119B7A
:10C3500013AA23630193231C6763383323CA23C3BF
:10C36000169BA7646364381C19B0F0BD02840122D7
:10C3700030B503AC258804AC4583151C24881D40CA
:10C380008483047E01609443590811402C430225A4
:10C390009140AC430C4304219D081540AD008C43F3
:10C3A0002C430825D9081140C900AC430C43102187
:10C3B0001D0915402D018C432C43202559099B094B
:10C3C000AC4311401A409301221C49010A43402109
:10C3D0008A431A43027630BDF0B589B01C1C0EABFF
:10C3E0001D780FAB1B8810AE0093338800260284A3
:10C3F00003AA019301601670002303A98A1901366C
:10C400005370102EF8D14C82041D8CC98CC40CC9F9
:10C410000CC46B461B88047E43836B469B8869086B
:10C42000838301231A1C9C432A401940144302228F
:10C43000994094430C430421AA081A4092008C436B
:10C4400014430822E9081940C90094432A091A40F4
:10C450000C431201B4431443202269099443AA09EE
:10C46000194013409A01231C49010B4340218B437F
:10C470001343037609B0F0BD70DF704771DF70477A
:10C4800072DF704773DF704774DF704775DF704786
:10C4900076DF704777DF704778DF704779DF704766
:10C4A0007ADF70477BDF70477CDF70477DDF704746
:10C4B0008ADF70478BDF70478CDF7047142070472E
:10C4C00064207047A0208001704708B5FFF7F2FF95
:10C4D000031E00D00523181C08BD10B5041CFFF76F
:10C4E000D3FF0323002806D1231C012158331A78D7
:10C4F0008A431A70031C181C10BD08B53B239A42CE
:10C5000000D0283B081C191CFFF7C2FF031C5A1E51
:10C51000934103205B42184008BD0A1C011C08B56A
:10C520000368FE31C98B1B6A984708BD08B5081C13
:10C53000FFF7B8FF031C5A1E934103205B421840CB
:10C5400008BD08B5081CFFF7ABFF031C5A1E93413A
:10C5500003205B42184008BD08B5081C111CFFF7FA
:10C5600095FF031E00D00323181C08BD08B5081C46
:10C57000111CFFF79BFF031E00D00323181C08BDEE
:10C5800008B5081CFFF788FF031E00D00323181C02
:10C5900008BD08B5081CFFF781FF031E00D0032368
:10C5A000181C08BD08B5081CFFF774FF002398424B
:10C5B00003D00533112800D0023B181C08BD000031
:10C5C000024B0B60082313607047C04696100300AF
:10C5D00008207047B830017000207047B9300170F2
:10C5E0000020704702207047B83000787047B9309B
:10C5F000007870470020704708B50368002B01D011
:10C60000081C984708BD08B50368002B01D0081C1A
:10C61000984708BD08B5031C1A1CF3326C3011781A
:10C620009B6F984708BD10B518C96210E10701D586
:10C630008158CB588018984710BD13B50C1E012C9B
:10C6400007D86B46111C581C062209F02FF8002051
:10C6500005E08B1E012B01D9032007E001206B466A
:10C6600069461C70FFF708FF0028F5D116BD37B5E5
:10C6700068460D1C141CFFF701FF032300280DD191
:10C68000002D02D06B461B782B70231E06D06B4604
:10C69000201C591C062209F009F80023181C3EBD75
:10C6A00070B5061C0D1C0024331CBA331B78A34242
:10C6B0000ED96B79A3420BD90722111C61432B6859
:10C6C000013458187118BB3108F0F0FFE4B2EBE701
:10C6D0002C71002070BD112337B5081C01AD2B70E3
:10C6E0000C1C09F039FB211C82B2281CFFF7DCFE70
:10C6F000031E00D00323181C3EBD0000012008B516
:10C70000011C044A03F0EAFD031E00D00B23181C91
:10C7100008BDC046ADC70100F8B50368061CDB6C58
:10C720000D1C0C7998470323844226D800232979CD
:10C73000DAB28A4208D207225A4328680133125CCF
:10C74000032AF5D1042318E0371C0024BA373C70C3
:10C750002B79A34210D90722111C3878614350432A
:10C760002B6830185918BB3008F0A0FF3B78013413
:10C7700001333B70E4B2EBE70023181CF8BD38B579
:10C78000CD7F01201F2D10D8002D01D103200CE0FA
:10C790000C1C081CD37F291CFFF772FE0028F5D162
:10C7A000208CFFF779FE0028F0D138BD70B5051C4C
:10C7B00088B0002001F0D6FF036800269B699847E7
:10C7C000031C041CF3331D70251C0F4B069002A99B
:10C7D00004A808220293039608F068FF0B4B0D355E
:10C7E0000793069BFF35AB6004A90822281C019320
:10C7F00008F05CFF201C079BF430EB60311C06F056
:10C80000DFF908B070BDC04615C6010027C601009B
:10C81000F0B5051C041C87B0AC356B68AB60A8682C
:10C82000002807D0C368211C9847AB68002BF4D0C0
:10C830001B69F3E7261CB0363568002D05D02F693B
:10C84000281C03F05FFA3D1CF7E7221CFC2358323A
:10C85000117835600B401370261C231C0A365633A2
:10C860001D709D71301C291C1F2208F0A9FFF5774F
:10C870002A36301C291C1F2208F0A2FFF577606EB3
:10C88000002804D0056903F03DFA281CF8E7251CB0
:10C89000606698352868002804D0066903F032FAEB
:10C8A000301CF8E72860251CA4352E68002E05D022
:10C8B0003769301C03F026FA3E1CF7E72E6001AD05
:10C8C000311C281C0C2208F07BFF231C2A1C6C3313
:10C8D00083CA83C3094BE667A367311C0C22281C5B
:10C8E00008F06EFF231C803307CD07C3301C044AB9
:10C8F00090341A60266007B0F0BDC04607C601003C
:10C90000F9C5010010B5041CFFF782FF00280AD109
:10C91000231C0122FE335242DA83BA34463B18709C
:10C920005870207000E0062010BDFE30C1837047B3
:10C93000FE30C08B70470000F0B593B0019000202E
:10C940000C1C01F00FFF0368DB6A984702F0A6FB9E
:10C9500006AB00280DD000221A7105AA0692082203
:10C96000181C1A730AAA9A6002F064FC002802D00C
:10C9700052E01871187300231F1C23732371019B4D
:10C98000BA331B78BB4246D907237B43019AD2189E
:10C99000B832D278022A31D1002506AE337BAB42C1
:10C9A00036D907207843AB000293019B029A1818EE
:10C9B000B368BB30995802F055FC00281BD0B3680F
:10C9C000029AA1689A58237B9B005A50237B01331B
:10C9D0002373337B5A1E954208D01049B2685B1806
:10C9E0009B009B5803930399029BD15006AA137B8B
:10C9F000013B13730CE00135EDB2CEE701992279CA
:10CA0000CB182168BB339200535023790133237133
:10CA10007B1CDFB2B3E7002013B0F0BDFFFFFF3F88
:10CA200070B50C789AB00222012C3ED04B88032CB2
:10CA300004D1A03B221C9BB21D4C03E00322203BEF
:10CA40001C4C9BB2A34230D88C881B4B03229C42C7
:10CA50002BD80AAB009312AB02936A460023061C44
:10CA600013711373B83633780C1C002B04D069464D
:10CA7000FFF762FF021E18D104AD18220021281C06
:10CA800008F09EFE2378281C2B7033782B726B469F
:10CA9000EB6063882B82A3886B82FFF7F3FC021E96
:10CAA00003D00722042800D0043A101C1AB070BD2D
:10CAB000603F0000E03F0000FF3F000070B598B00D
:10CAC00008AB009310AB02936A460023051C137158
:10CAD0001373B9352B780C1C002B1ED1012304A82D
:10CAE0002A780678A1799E43194013405A00331CD6
:10CAF0000B4302218B43134303706B46436023882F
:10CB0000038163884381A3888381FFF7D1FC421EA0
:10CB1000904103234042034005E06946FFF70CFFC4
:10CB20000028DBD0031C181C18B070BDF0B59DB0F8
:10CB30001F1C6B46051C1A70581C0622229E02AC54
:10CB400008F0B4FD002F07D03B8823807B886380EA
:10CB5000BB88A380FB8806E032232380DB18638038
:10CB6000F533A780FF33E3800CAB04A9049314AB27
:10CB70008B602F1C0023B9370B710B733B78002B94
:10CB800017D101203B78022708A903405A000B78EF
:10CB9000BB4304AF4F601343002E10D0B2798343E0
:10CBA000024013430B7033880B8173884B81B38829
:10CBB00011E0281CFFF7C0FE0028E2D029E02A1C63
:10CBC000323212788343024013430B70AB8D0B81DA
:10CBD000EB8D4B812B8E6846221C8B81FFF76CFC02
:10CBE000031C0020834214D00630082B11D005D836
:10CBF0000130042B0DD0834208D109E00520112B10
:10CC000007D0054A934203D0102B01D00B2000E03F
:10CC100004201DB0F0BDC046023200000220704763
:10CC200000207047704790DF704796DF704798DFAD
:10CC3000704793300078431E9841C0B2704708B5E2
:10CC4000081C111C1A1CFFF7F0FF031C0020834274
:10CC500004D0113B5A425A410630801A08BD0000E8
:10CC600030B5002485B001AD6B80089B2970EB8046
:10CC7000099B101C291C6C70AC800393FFF7D7FF35
:10CC8000A04207D00534112804D0044BC4186042D8
:10CC900044410634201C05B030BDC046FCCFFFFF28
:10CCA00008B50368002B01D0081C984708BD08B5DB
:10CCB0000368002B01D0081C984708BD08B503681D
:10CCC000002B01D0081C984708BD08B5ED30FF3097
:10CCD000FFF702FB08BD08B5ED30FF30FFF7C9F8DC
:10CCE00008BD08B5ED30FF30FFF71EFA08BDF0B5FE
:10CCF00087B001AB1A1C0C1CE0CCE0C2021CB532A0
:10CD0000FF32C96870CB70C20023B530FF30C160FC
:10CD1000036107B0F0BD0000F0B5061C9446041C8A
:10CD2000101C8FB03436029301960F1C04A92CC836
:10CD30002CC16346DA680299039209AA29C929C25B
:10CD4000029B0198DB68029301F0BFF9051C0620E5
:10CD5000002D3AD1231C04AA503343CA43C3039B7A
:10CD60002566E365231C09AA783343CA43C3201C04
:10CD7000029A14991A6004331D6014223A3008F0A4
:10CD800095FC201C15991422643008F08FFC231C9C
:10CD9000012191332787013B5D7093341D70381C4E
:10CDA00021702A1CFFF73FFF041C281C002C0CD00C
:10CDB000019801F0CFFC0520112C06D0044B9C42B9
:10CDC00002D00130072C00D104200FB0F0BDC046C6
:10CDD00002300000F0B597B00593036807AC1B68FC
:10CDE00004910393111C231C061CA1C9A1C3002597
:10CDF000D368291C0C220CA80A9311AF0B9508F0DC
:10CE0000DFFC094B291C381C0F931095FEF730FCF2
:10CE1000059B221C00930197301C04990CAB039CCA
:10CE2000A04717B0F0BDC046AFCC0100F0B500265A
:10CE3000051C89B003AC8680311C201CFEF718FC51
:10CE4000211CA81D142208F031FC311C201C0C22CE
:10CE500008F0B6FC2B1C221C1C3383CA83C30F4B67
:10CE6000311CAB62EE62201C0192FEF701FC2B1C10
:10CE7000221C303383CA83C3019A03CA03C3311C03
:10CE80000C22201C08F09CFC2B1C443307CC07C34D
:10CE9000301C034B6E652B6509B0F0BDA1CC0100C1
:10CEA000AFCC010070B586B0041CFFF7BFFF051EB4
:10CEB0002AD1231C5C33187058709870D870A8233E
:10CEC0005B00E050E218523BFF3B53609360D3603D
:10CED0001361B4225200A050221C6932FF3201AE0D
:10CEE00053609360D3601361301C291C0C2208F03E
:10CEF00067FC231C8133FF3307CE07C38134044B07
:10CF0000FF34E360256100E00625281C06B070BDF3
:10CF1000BDCC010070B5041CE36A2363206B0028BC
:10CF200007D0C368211C9847236B002BF4D01B69E2
:10CF3000F3E7E06A002804D0056902F0E3FE281C4C
:10CF4000F8E7E062A068002804D0056902F0DAFE84
:10CF5000281CF8E7A0606069002804D0056902F089
:10CF6000D1FE281CF8E7256A6061002D05D02E69E6
:10CF7000281C02F0C7FE351CF7E7201C2562343060
:10CF8000FFF790FF281C70BD70B5041C8AB001AD7E
:10CF900024220021281C08F013FC002102A8FEF71F
:10CFA00067FB201C00269530291C2222FF302E769C
:10CFB0006E83AE83EE832E8408F078FB2368201CFA
:10CFC0005B689847231C5F331E70B0420DD0C023AE
:10CFD0005B00E358B34208D0054BB34205D0201C98
:10CFE0008130FF30A188C36898470AB070BDC04641
:10CFF000C9BB010008B53430FFF7C6FF08BDA0DF8C
:10D000007047A4DF7047A5DF7047A6DF7047A8DF31
:10D010007047A9DF704700207047000073B50E1CF1
:10D02000151C0268009394682B1C321C0149A04710
:10D0300076BDC046FFFF000037B500206D46069C58
:10D040000090208801932880081C111C6A46FFF775
:10D05000DAFF0323002802D12B882380031C181C2D
:10D060003EBD000073B50E1C151C06AA117802689F
:10D070000093019114692B1C321C0149A04776BD15
:10D08000FFFF0000F8B5041C00200E1C151C01F069
:10D0900069FB03689B69984723689F69FFF748FC11
:10D0A000321C011C2B1C201CB847F8BDF0B5051C18
:10D0B000D78B0022467985B0C435B24219D20835E3
:10D0C0002C1C083C2488BC4211D10E251C1C0223B8
:10D0D0001832D20082186D4412892B80036803AE87
:10D0E00000959F68331CB847021E04D00DE0013242
:10D0F000E3E7042009E02B880620022B05D13388C2
:10D10000101C9B0701D00123237005B0F0BD000067
:10D11000F0B50C1C002187B06E460091151C0CA9BF
:10D120000DAA0988127831800193002A03D1011CCD
:10D130004679C43111E06A46201C291CFFF761FFC3
:10D14000421E90410323404203406DE008310F1C12
:10D15000083F3F88AF4203D00132B242F6D33FE0EE
:10D1600030211C329200801842680132D27F0A427C
:10D1700036D00221002002AED206F3600CABD20FF3
:10D18000B3602B4B8A1A3580B270B0809C4207D1B5
:10D1900001F0E8FA03689B699847FFF7C9FB041C94
:10D1A000201C311CFFF731FF83B2002B3CD0181E2E
:10D1B000112813D0112B02DC082B06D007E01D4BE1
:10D1C00098420BD01C4B984201D106232CE0201C26
:10D1D000291C6A46FFF715FF002808D1052323E024
:10D1E000201C291C6A46FFF70CFF0C2801D10323E1
:10D1F0001AE00C2808D80528F9D0072813D00023F6
:10D20000984211D00B230FE010280CD003D808232C
:10D210000F2809D0F6E7094B9842E8D0D0239B01AC
:10D220009842E4D0EEE70423181C07B0F0BDC046D6
:10D23000FFFF000003300000013400000230000056
:10D2400008B50378002B08D10B78002B11D1428A46
:10D250004B8A9A420DD101200CE0012B09D10B78A9
:10D26000012B06D101300131102208F0F7F9002816
:10D27000F1D0002008BD0000F0B5051C97B0081CD7
:10D280002E240B9102F026F804ABE418109010A99C
:10D290000120221CFFF7B3FE002801D00320D3E0B9
:10D2A00023880B9A0A9093830B9B0A9A1B7D9342C7
:10D2B00053D96B79132B01D90720C5E00B9B9B69D0
:10D2C0000C930A9B0C9A9B009C586369002B49D1D4
:10D2D000638B002B46D1631CDB7F022B42D137E0EE
:10D2E0006169631CDA7FA31CDB7F0091618B0020E6
:10D2F0000191218B0291217F03910C9904910D9949
:10D300000591211C293109780691211C2A310978BF
:10D31000079169791831C90069180431089110A979
:10D3200002F032F80028B9D16B79071C1A1C1C32A4
:10D3300092001833AA18DB005460EB189B88E38333
:10D340006B7901336B71231C28331B78BB4230D8B7
:10D350000A980130C3B20A93A6E72B790020013363
:10D360002B7171E0201C01F0B5FF002610900D9686
:10D370000C96231C28331B78B342B1D9626AB300E0
:10D380009F58002311AA1370002011A9CA18013355
:10D390005070102BF8D12D4B381C4B82FFF750FFEB
:10D3A000002803D07B690C937B8B0D930136F6B27A
:10D3B000DFE7C2235B00EB5C072B00D97CE7626AE6
:10D3C000BB009E58002311AA1370002011A9CA188F
:10D3D00001335070102BF8D11C4B301C4B82FFF7DF
:10D3E0002FFF0C9000282CD1301C01F073FF328BE2
:10D3F000738B0092327F10900192C2225200AA5C7D
:10D400000C98C0325200AA180632029210A9726912
:10D4100002F077F8002800D040E7C2235B00EB5C05
:10D420001A1C58329200C033AA185B005660EB18E1
:10D43000DB88C222F383C2235B00EB5C5200013322
:10D44000AB54781CC7B27EE717B0F0BD01290000CD
:10D45000F0B5041C87B0236B6363606B002807D0B2
:10D46000C368211C9847636B002BF4D01B69F3E75A
:10D47000206B002804D0056902F044FC281CF8E762
:10D48000206320716071E068002804D0056902F013
:10D4900039FC281CF8E7E060A069002804D0056981
:10D4A00002F030FC281CF8E7666AA061002E05D067
:10D4B0003569301C02F026FC2E1CF7E701AD311C4B
:10D4C0006662281C0C2208F07BF9231C2A1C3833C6
:10D4D00083CA83C30F4B311C6364A664281C0C22CF
:10D4E00008F06EF9231C2A1C4C3383CA83C3094BF2
:10D4F000311CA3650C22E665281C08F061F9231C89
:10D50000603307CD07C3301C024B2667E36607B0C4
:10D51000F0BDC046BDCC010038B5051CFFF798FF33
:10D52000041E1DD1281C211C5022743008F048F91B
:10D53000281C6530211C2022FF3008F041F9281CEE
:10D54000211C0822C43008F03BF9281C8730FF302A
:10D55000211C102208F034F9C2235B00EC5400E0D7
:10D560000624201C38BD00000B68002B01D103608D
:10D5700002E0024B0360002343607047C9BB010017
:10D5800038B5041C0D1C6368A360A068002807D090
:10D59000C368291C9847A368002BF4D01B69F3E7E4
:10D5A00038BD08B5C368984708BD30B5151C87B0AD
:10D5B00004290ED0052917D0032925D13830041CA1
:10D5C00004A8211CFFF7D0FF049B002B18D1059B5A
:10D5D00014E04C30041C6846211CFFF7C5FF009B7B
:10D5E000002B0DD1019B09E06030041C02A8211C16
:10D5F000FFF7BAFF029B002B02D1039BDB0703D589
:10D60000201C291CFFF7CDFF07B030BDF0B50B88FB
:10D610008FB0051C0C1C512B3FD00AD8012B26D0F3
:10D62000502B00D012E1021CCE88C8324179002371
:10D630000EE0522B2AD0532B00D007E1CE880521D3
:10D6400036E00832101C08380088B04203D001339D
:10D650008B42F6D309E030221C339B00EB1858684C
:10D66000431CDB7F134200D0DBE0022120E00C7A78
:10D67000EB682B612869002800D1E7E0C368211C12
:10D6800098472B69002BF3D01B69F2E788880021AB
:10D690000A1C0B1CFFF7BDFCD8E08B79012B05D0D1
:10D6A000022B00D0D2E00E89072101E00E8906216D
:10D6B0002B1C00206A79C43300900098904200D35C
:10D6C000C4E00833181C08380088B04213D106297A
:10D6D00069D0072912D0022900D09DE0A3880AA9A9
:10D6E0000B804E80237B0B71E389CB80238A12341D
:10D6F0000B81CC6052E000980130DDE70021102260
:10D7000002A808F05DF8A38802AA13805680238A35
:10D7100006AF9380638A0021D380231C1022143328
:10D72000381C0193049308F04BF802233B70013B33
:10D73000BB71009B1C339B00EB185A68131C2A33E7
:10D7400019780023994206D0101CD36C403002A9EE
:10D75000984702AB9B8906AFBB8002AA92883A81A8
:10D7600002AAD2887A81049AFA60002B03D001229F
:10D77000BB799343BB71A088391CFFF748FCBB8879
:10D78000002B63D1A3880AA90B804E80A37B0B7169
:10D79000238ACB80638A0B81019BCB60281C1430C9
:10D7A000FFF7EEFE52E006AF00211022381C08F011
:10D7B00007F8A3887E803B80E3890AAE002110220F
:10D7C000301CBB8007F0FCFF0123009833701C3035
:10D7D00080002D186B681A1C2932117800229142A2
:10D7E00005D0181C391C2C309B6B9847BA89B28025
:10D7F000BB89002B0BD1BA68002A08D00121B3796C
:10D800000B43B371BB883381FB88F2607381A088BE
:10D81000311CFFF7FCFB19E0281C321CFFF7C5FE8A
:10D8200014E0E17CA27C09020A43990602D5032197
:10D83000940708D40421DB0605D501231A40131CE4
:10D84000594259410331C28B281CE7E70FB0F0BDA4
:10D8500090DF704792DF704795DF704738B50A68F0
:10D860000368934201D000201AE00C1C051C04310F
:10D870000430FFF7E5FC0028F5D02B7E227E5340D4
:10D880005B06F0D16A8B638B9A42ECD1EB69E2695B
:10D890009342E8D12B8C208C181A42424241D0B2DC
:10D8A0000123584038BD38B50025041C291C20C070
:10D8B000FDF7DEFE25766583A583E5832584201CA0
:10D8C00038BD0268031C002A0AD0511E920040682D
:10D8D0009A1819600433934204D059681960F9E723
:10D8E0000120404270470268031C002A0AD0511EE2
:10D8F000920040689A1819600433934204D0596822
:10D900001960F9E7012040427047000073B5051C1B
:10D910002B686C69002B1CD0231C03225F331A7008
:10D920000F49013268466E6807F0C0FE1823734342
:10D93000E3187033998801AA1180DB886946538007
:10D94000A088FFF789FF002809D0281CFFF7B9FF3E
:10D95000DEE75F342378032B01D1023B237073BDD4
:10D960009C110300031C0022F0B55C331A700A7886
:10D9700089B0041C0133042A00D904221A70A82398
:10D9800000205B00E050231C0122271C061C5133A1
:10D990005242FF335A609A60DA601A618D1C603718
:10D9A000231C5D331B789E4226D2AB78002B0CD112
:10D9B000A8225200A358591C9B00E318A1509B18A1
:10D9C000AA885E60EB88BA8211E0298803A8FDF777
:10D9D0004FFEAB88381C0093EB8803A914220193F7
:10D9E00007F064FE6B461B88BB826B469B88FB82FC
:10D9F000013608351837D3E7231CFC335B6D002B49
:10DA000004D0201C5130FF30FFF780FF09B0F0BD7B
:10DA100073B5051C2B686C69002B1CD0231C0422D9
:10DA200010495F331A70891868466E6807F03EFE29
:10DA300024237343C033E3185B8B01AA13800133A3
:10DA40005380A0886946FFF707FF002809D0281CEB
:10DA5000FFF749FFDEE75F342378042B01D1023B57
:10DA6000237073BD9C110300031CF0B50A7887B0C6
:10DA7000041C0F1C5E33042A00D904221A70B4233C
:10DA800000255B00E550231C01226933FF3352421D
:10DA90005A609A60DA601A61A83B0593BE1C231C89
:10DAA0005E331B789D422FD2B378002B16D1B4225F
:10DAB0005200A3580598591C9B00E3189B18A150CD
:10DAC0005D600A23F1886B4300913189FB18019155
:10DAD000A288A16D9B79FEF749FC0FE00A216846F8
:10DAE0006943791889793388A2880170F18805988B
:10DAF000019131890291A16DFEF76EFC059B013504
:10DB0000243305930A36CAE7231CFC33DB6E002B53
:10DB100004D0201C6930FF30FFF77AFF07B0F0BD5A
:10DB20007FB5031C5F331B78061C032B2DD1051C0E
:10DB30002E4B0A685135FF359A4222D1896810224E
:10DB4000684607F0B3FD281CFFF7BBFE18235843B7
:10DB50003418231C0122201C60331A7069460F32CE
:10DB6000613007F0A3FD231C221C6D335B786C34FD
:10DB700061781B0270320B435380281CFFF7C6FEEE
:10DB800033E0281CFFF79DFE2FE0042B2DD1051C50
:10DB9000174B0A686935FF359A4223D189681022EC
:10DBA0000331684607F082FD281CFFF79CFE242302
:10DBB00058433418231C0122201CC0331A716946B3
:10DBC0000F32C53007F072FD231C221CCD335B7968
:10DBD000CC3461791B02D0320B43D380281CFFF771
:10DBE00017FF02E0281CFFF77EFE7FBD010010003A
:10DBF000010013000B68002B01D1036002E0024B0F
:10DC00000360002343607047C9BB010008B5C368C7
:10DC1000984708BD031CF0B5061C5F3391B0019313
:10DC20001B785C36022B5DD1031C9533FF33242215
:10DC30000D1C041C002107A8009307F0C1FD07A8D4
:10DC4000FFF731FE009807A9FFF708FE002846D02D
:10DC5000002D35D118233278271C5343E318703335
:10DC6000DA88D9235B00291CE252303702A8FDF77D
:10DC7000FFFC381C02A9FFF7E3FA051E14D1211C92
:10DC80009931381CFF31FFF7DBFA002818D0291C26
:10DC900007A8FDF7EDFCA01D07A9FFF7D1FA0123A6
:10DCA0005840C0B200280BD0251C443502A8291CBE
:10DCB000FFF7A0FF029B002B19D1039BDB0716D4B3
:10DCC0000021242207A807F07BFD07A8FFF7EBFD42
:10DCD000201C9530FF3007A9222207F0E7FC012322
:10DCE000019A137033780133337011B0F0BD281CE2
:10DCF0000099FFF78BFFE3E773B5022600248180CC
:10DD0000051C5E30467001AE0470081C311C328068
:10DD10007380FFF79FFD10280ED005D8A04210D0C9
:10DD20000634082809D005E00524112805D0064B43
:10DD3000984201D00B2400E00424281C211CFFF78A
:10DD400069FF201C76BDC04602300000F0B5041CFF
:10DD500089B0261C5F363378012B6FD1251C201C1F
:10DD60005C355D302B78027893424CD20021A71DA0
:10DD700003A8FDF77DFC381C03A9FFF761FA002812
:10DD800009D118232978381C594360316118FFF7ED
:10DD900057FA002827D0E369002B16D0284B002B18
:10DDA00013D0002103A8FDF763FC201C03A9303029
:10DDB000FFF746FA002808D01823201C29781C30C9
:10DDC000594360316118A36A98473678012E0AD109
:10DDD000211C01A84431FFF70DFF019B002B06D148
:10DDE000029B334203D12B7801332B70B1E7182308
:10DDF0002A78A1885343E31870339A88201CDB8863
:10DE0000FFF77AFFA5E7002A18D0002B16D01822BA
:10DE1000013B53430022E3187033D988094B027049
:10DE20002A70994203D1201CFFF7AEF806E00131B9
:10DE3000A08889B2FFF70CFD0028F4D109B0F0BD2D
:10DE4000C9BB0100FFFF0000031CF0B55F3397B0B2
:10DE500001931B78022B00D0D6E0071C002124225E
:10DE6000041C95370DA807F0ABFCFF370DA8FFF792
:10DE70001AFD381C0DA9FFF7F1FC00283AD0231C2D
:10DE80005E331B78002B35D0231CD922261CDA33B5
:10DE90001B885200013BA3520021303608A8FDF731
:10DEA000E7FB301C08A9FFF7CBF9051E14D1211C94
:10DEB0009931301CFF31FFF7C3F900281AD0291C13
:10DEC0000DA8FDF7D5FBA01D0DA9FFF7B9F901239A
:10DED0005840C0B200280DD0251C443504A8291C88
:10DEE000FFF788FE049B002B00D083E0059BDB0737
:10DEF00000D57FE00025231C5E3302931E78B542D7
:10DF00004CD2019B1B78022B00D07DE0731E242194
:10DF10009D4207D16943C0316118381C222207F0A5
:10DF2000C5FB3BE00E1C6B1C59436E43C0316118AE
:10DF30004B8BC036013BA619F383231C00213033E1
:10DF400008A80293FDF794FB029808A9FFF778F957
:10DF50000390002812D1311D0298FFF771F90028B3
:10DF600019D003990DA8FDF783FBA01D0DA9FFF79C
:10DF700067F901235840C0B200280CD0231C443359
:10DF8000191C06A80293FFF735FE069B002B36D11D
:10DF9000079BDB0733D40135EDB2ACE7019B1B785F
:10DFA000022B31D1002E08D0013E22335E43C03611
:10DFB000A619B28B013292B200E0144A231C5C33E2
:10DFC000197818234B430021E3187033DB8802983B
:10DFD00001709A420AD20DA90A804B80A088FFF7EF
:10DFE00039FC002810D0201C0B2100E0201CFFF77A
:10DFF00011FE09E0281C391CFFF708FE7AE7029899
:10E00000311CFFF703FEC6E717B0F0BDFFFF0000AD
:10E0100002207047022070470020704700207047A0
:10E0200000487047FFFF0000022070470220704741
:10E03000022070470220704702207047022070477C
:10E04000022070470220704702207047022070476C
:10E05000022070470220704702207047002313609F
:10E06000704700207047022070470220704702204E
:10E070007047022070470220704700207047002040
:10E0800070470020704702207047022070474160AF
:10E09000704781607047C16070470161704741619E
:10E0A000704702207047022070470220704702200C
:10E0B000704702207047022070470220704790DFAF
:10E0C000704766DF704748DF70475F300078431E57
:10E0D0009841C0B27047007970470C3070470C30DF
:10E0E000704708B503689B6B9847FFF7ECFF08BDC6
:10E0F00008B5044B1A78002A03D000221A7004F0E5
:10E1000037F808BD903C0020082370B596B002AAED
:10E11000137106AA029202AA1373101C0EAB049389
:10E120000C1C01F087F80023061C1D1C98420FD020
:10E13000237130E00722101C684323681818029BE3
:10E1400001930199AB00595807F0B0FA0135EDB2CF
:10E1500002AB1B79AB4204D96379AB42EAD8257193
:10E1600019E02571002502AB21791B7B6918AB42B0
:10E1700010D9637999420DDA049BAA000193072311
:10E180005943236801355918019BEDB2D05801F06D
:10E190006DF8E8E72171301C16B070BD08B500F0CD
:10E1A000EFFF08BD08B5081C111C01F01FF808BDE1
:10E1B00008B5081C111C00F0F5FF08BD08B5081CC7
:10E1C000111C1A1C029B00F06FFF08BD7FB503797C
:10E1D0001648002B28D0164D164C2B78201C002BEF
:10E1E00022D102AE301CFFF76CFF002816D17388D5
:10E1F000592B13D13378B288D91F012904D8009242
:10E20000201C20210C4A03E0201C202100920B4AF4
:10E2100007F084FC01232B70201C05E0201C08491A
:10E22000202207F019FEF7E704B070BD6C1303005D
:10E23000343B0020703C002086130300A31303002E
:10E24000C813030070B503790924002B2AD0051CDC
:10E2500004F01EF8043C002824D12E1CFC36306B40
:10E26000002803D1B06B002806D10AE003681B6ABE
:10E270009847041EF6D015E003689B6A9847041E71
:10E2800010D1706B002804D00368DB6A9847041E25
:10E2900008D1281C0C30FEF735FB041E02D100F01B
:10E2A000FBFF2C71201C70BD38B5041CE369236290
:10E2B000206A002807D0C368211C9847236A002BD6
:10E2C000F4D01B69F3E7E069002804D0056901F088
:10E2D00019FD281CF8E7E0616060A060E060206143
:10E2E000606138BD08B5FFF7DFFF002800D00620C9
:10E2F00008BD38B5041C0068002804D0056901F089
:10E3000001FD281CF8E7206038BD000010B5041C92
:10E31000024B08C0FFF7EDFF201C10BDA012030048
:10E3200010B5041CFFF7F2FF201C01F0EBFC201CD1
:10E3300010BD38B5041C0068002804D0056901F040
:10E34000E1FC281CF8E7206038BD000010B5041C73
:10E35000024B08C0FFF7EDFF201C10BDB0120300F8
:10E3600010B5041CFFF7F2FF201C01F0CBFC201CB1
:10E3700010BD000038B5064B041C0360406800283F
:10E3800004D0056901F0BEFC281CF8E7201C38BD4C
:10E390000013030010B5041CFFF7ECFF201C01F074
:10E3A000B1FC201C10BD000038B5064B041C0360F6
:10E3B0004068002804D0056901F0A4FC281CF8E797
:10E3C000201C38BD1013030010B5041CFFF7ECFF30
:10E3D000201C01F097FC201C10BD000038B5064B36
:10E3E000041C03604068002804D0056901F08AFC21
:10E3F000281CF8E7201C38BDB011030010B5041C20
:10E40000FFF7ECFF201C01F07DFC201C10BD00007C
:10E4100038B5064B041C03604068002804D0056929
:10E4200001F070FC281CF8E7201C38BDC011030067
:10E4300010B5041CFFF7ECFF201C01F063FC201C4E
:10E4400010BD000038B5064B041C0360406800286E
:10E4500004D0056901F056FC281CF8E7201C38BDE3
:10E46000D011030010B5041CFFF7ECFF201C01F0D5
:10E4700049FC201C10BD000038B5064B041C03608D
:10E480004068002804D0056901F03CFC281CF8E72E
:10E49000201C38BDE011030010B5041CFFF7ECFF91
:10E4A000201C01F02FFC201C10BD000038B5064BCD
:10E4B000041C03604068002804D0056901F022FCB8
:10E4C000281CF8E7201C38BD8012030010B5041C7E
:10E4D000FFF7ECFF201C01F015FC201C10BD000014
:10E4E00038B5064B041C03604068002804D0056959
:10E4F00001F008FC281CF8E7201C38BD901203002E
:10E5000010B5041CFFF7ECFF201C01F0FBFB201CE6
:10E5100010BD000038B5064B041C0360406800289D
:10E5200004D0056901F0EEFB281CF8E7201C38BD7B
:10E53000C012030010B5041CFFF7ECFF201C01F013
:10E54000E1FB201C10BDF7B50379071C0E1C151C40
:10E55000002B06D000230A24019300936B461C7104
:10E5600009E000F0FBFB041C0C20002C0CD1012363
:10E5700000943B710194301CFDF768FBEB68009040
:10E580006946281C9847201CFEBD0000F7B5019382
:10E59000036800915B68041C171C9847051C062043
:10E5A000002D3BD1231C3A1C1C3343CA43C3FB68D8
:10E5B000019AA362231CE562443343CA43C3019B0F
:10E5C0000899DB68142223656565A01D07F06EF8C5
:10E5D000201C09991422303007F068F86B461B881C
:10E5E0000121A380231C5D331D70013B1D70D97078
:10E5F00000982A1CFFF763FD061C281C002E0DD076
:10E600002368201C9B6898470520112E06D0044BD8
:10E610009E4202D00130072E00D10420FEBDC0462C
:10E6200002300000FC3038B5846B051C002C0DD185
:10E63000242001F05BFB064B44608361054B846042
:10E64000C46004614461C4610360A863A86B38BD01
:10E650008012030040130300FC3038B5846B051CA6
:10E66000002C0DD1242001F041FB064B4460836156
:10E67000054B8460C46004614461C4610360A863A5
:10E68000A86B38BD801203004013030010B5041CB2
:10E69000044B036004F078FA201C04F02FFC201CCB
:10E6A00010BDC046E8170300124B10B508330360D5
:10E6B000114B041CC3608023104A5B00C250C01879
:10E6C000FFF7E4FF201C0E4BB830E360FFF7D4FEE9
:10E6D000201CAC30FFF7B6FE201CA030FFF798FEE0
:10E6E000201C6C30FFF77AFE201CFDF773FB201C0A
:10E6F00010BDC046D0130300A81003006818030023
:10E70000F011030010B5041CFFF7CEFF201C01F030
:10E71000F9FA201C10BD10B5041CFFF7B7FF201C30
:10E7200001F0F0FA201C10BD011C031C1F31002257
:10E730001A7001338B42FAD180239B00C277038485
:10E74000704710B500211F22041C07F039F8002380
:10E75000E37710BD08B5FEF717FC08BD0048704709
:10E76000383B002000487047383B0020424BF0B552
:10E7700008330360414B071C0025C360A023041C21
:10E78000163787B005718560057443828582381C11
:10E79000FFF7CAFF8021201CC9010A1C2B1C009511
:10E7A0003830FDF7E1FA231C4033181C0393FFF7C0
:10E7B000BBFF231C221C62331D70FC2364321178C2
:10E7C000201C0B401370231C68331D702C4B291C1C
:10E7D000E36625670C22783006F0F2FF231C261C26
:10E7E00088331D60274B0836F3678436291C301C9C
:10E7F0000C2206F0E5FF244B244AF360231CA033CF
:10E8000035611A60224A5D60DA60224A1D619A61B0
:10E81000DD61381CFFF795FF0398FFF792FF1E4B51
:10E820008026E360231C601CC4331D705D709D70E6
:10E83000FF3004F03FFB0337184B7600FF37A3513E
:10E8400005A9381C0422059506F030FF059B144AE3
:10E85000591E8B415B421A40124BFA60A3510122B0
:10E86000231C201CFE3352425A85023B1D635D630C
:10E870009D6307B0F0BDC046D0130300F011030044
:10E88000B011030007C60100F9C50100C011030063
:10E89000D0110300E0110300A8100300E8170300E3
:10E8A00001B201006818030038B50C220D1C0021CC
:10E8B000041C06F085FF00232361024B2560201C09
:10E8C000E36038BDBDCC010070B50025041C0E1CF2
:10E8D00085710583291C0C221C3006F071FF2B4B1F
:10E8E000201CA362231C3033E5621D70231DDD87CD
:10E8F000291C44300C2206F063FF254B6565236517
:10E90000244BA6652360231C5C331D705D709D70D5
:10E91000DD70261C251CC0366035281C0021FCF744
:10E92000A7FE0023AB82EB821835B542F5D1261C39
:10E930005136FF36281C0021242206F041FF281CF6
:10E940002435FEF7B0FFB542F4D1A82300215B00C7
:10E95000E150B422231C201CFC3352009965D96578
:10E960001966596681306C61A150196759679967BA
:10E97000D967A3185C61FF30FFF796FF201C953024
:10E98000FF30FEF790FF201C70BDC046A1CC0100F7
:10E99000AFCC010020130300FC3070B5466B051CA2
:10E9A000002E1CD1B420800001F0A0F9041C0D4BF6
:10E9B000866043600C4B466103610C4B0662C36189
:10E9C0000B4BC66283620B4B211C03603430FFF794
:10E9D0007BFF201CED30FF30FDF7BAFA6C63686BEB
:10E9E00070BDC046B0120300A01203000013030064
:10E9F000101303003811030070B50025041C254BCB
:10EA000005710360244B45718360244BC5604361ED
:10EA1000234B85610362234B4562C3620563291C56
:10EA20003830FFF741FF201C291C4C30FFF73CFF1A
:10EA3000201C291C6030FFF737FF1B4B251C23606F
:10EA4000231C7435C433002204C59D42FBD1261C0F
:10EA50006536FF36281C00210822083506F0B0FE76
:10EA6000B542F7D1221C8532FF32002308C59542FA
:10EA7000FBD1C2225200A354231C221C873397329D
:10EA8000FF33FF320021198002339342FAD1201C58
:10EA900070BDC046D012030090120300A012030004
:10EAA000B0120300C012030078110300FC3038B527
:10EAB000036B041C002B07D1CC20400001F016F999
:10EAC000051CFFF799FF2563206B38BDFC3038B576
:10EAD000036B041C002B07D1CC20400001F006F989
:10EAE000051CFFF789FF2563206B38BD031C0A1C3A
:10EAF00070B570CA70C3CB68C3600023036170BD7A
:10EB000008B58130FF30FFF7F1FF08BD10B5054CA7
:10EB1000201CFFF72BFE201C0349044A05F06EFE63
:10EB200010BDC046383B0020A9E60100F82E0020A9
:10EB300070DF704771DF704708B503F0C1F808BD9A
:10EB4000074B10B51C78002C07D10122201C1A702D
:10EB5000FFF708FE211CFDF73EF9002010BDC0465E
:10EB6000903C0020F0B5051C8BB001F097FF281CED
:10EB700000F042F90020FFF7F5FD0368061C9B69D1
:10EB800098473368041C1B6A301C98473368009010
:10EB9000DB6A301C9847031C288810380D2800D9E0
:10EBA000D2E00EF00BFF0751D1D1D18AD1D1D1D112
:10EBB000D192D1AFAE88201C311CAF7DFDF7B5FEE0
:10EBC000221C0121EB7B583201931378287A8B4366
:10EBD00049180B431370023A1378694601331370D6
:10EBE00004ABD8701E809F700023097904AA1371AA
:10EBF00053719371D37113725372D372137353732E
:10EC00009373D373137491722B1C291C183309311D
:10EC1000062205A8099306F049FD0B20291C04AB28
:10EC2000C0181031062206F041FD94346368A360D9
:10EC3000A068002800D187E0C36804A99847A368AA
:10EC4000002BF3D01B69F2E74249201CAF88FDF787
:10EC50006CFE2B7A301C019333689B6A9847061C24
:10EC6000ED30FF30391C0622FDF784FA338FBB42AA
:10EC700004D1301C736B34309B689847221C563289
:10EC80001378013BDBB21370002B03D10221937880
:10EC90008B4393706A46127904AB1F809A70A0343C
:10ECA0006368A360A06800284ED0C36804A9984791
:10ECB000A368002BF4D01B69F3E7291C5B69A888C3
:10ECC0000831002B40D098473EE02E7A002E05D127
:10ECD000221C0121583213788B431370636E002B72
:10ECE00032D01D4A002A2FD0A366A06E00282BD058
:10ECF000C368311C9847A36E002B01D1636EF3E704
:10ED00001B69F1E70126291C2B7C09315A07920F58
:10ED10001E400192DB08062204A8EF7B029306F056
:10ED2000C5FC6A46127904AB1A726A46127A9F7160
:10ED3000DE715A722B1C11330793231C201C8C3359
:10ED400080301B6804A998470098291CFEF75EFCD8
:10ED50000BB0F0BDFFFF0000C9BB010010B588B0CB
:10ED60006A46012313700633D3700023684653703C
:10ED700093701D4948221D4B03F04EFA002801D024
:10ED800003F0A6F903AC221C0320012103F0B0FA22
:10ED9000C0230122DB002361237B1343237304235D
:10EDA0002380002801D007201CE0201C03F0B8FAC3
:10EDB0000028F8D101A8FFF7BDFE0028F3D101A972
:10EDC000FFF7B6FE0028EED1094803F06DFA80B2D5
:10EDD000002807D1074803F071FA80B2002801D15A
:10EDE00000F0D4F808B010BD943C002041EB0100C5
:10EDF00065EB010039EB01007FB5041C0020FFF733
:10EE0000B1FC051C03689B6998472B68281C9B6A0A
:10EE10009847031C061C051C2088ED333038343617
:10EE2000FF33092800D99FE00EF0C8FD059E137F2F
:10EE300090212E9E4660E388002B05D1211C301CBA
:10EE40000C31FEF78FFD8FE06B6B301C9B68984791
:10EE50008AE0E388002B05D1211C301C0C31FEF721
:10EE600003FE81E0301C0021FEF7D4FE7CE06B6BDA
:10EE7000301C5B689847002800D175E0211C301CCD
:10EE80000C31FEF74DFE6FE06A46A3881380A3891C
:10EE90005380E3899380238A1234D3800294AB6831
:10EEA000EB60E86800285FD0C36869469847EB6864
:10EEB000002BF4D01B69F3E76A46A3881380A3896B
:10EEC0005380A37B1371238AD380638A1434138104
:10EED00003946B69AB61A869002845D0C368694693
:10EEE0009847AB69002BF4D01B69F3E76A46A38807
:10EEF0001380A3895380A37B1371238A1234029455
:10EF0000D3802B6A002B2FD01B4A002A2CD06B6297
:10EF1000686A002828D0C368694698476B6A002B46
:10EF200001D12B6AF3E71B69F1E7E288A188002A87
:10EF300006D085204000824212D1181C002211E028
:10EF4000221C181C0C32FDF721F90DE0E288A18883
:10EF5000002A05D1221C181C0C32FDF75AF903E0D7
:10EF6000181C0B22FDF706F9301CFEF76DFF301C54
:10EF7000FEF7ECFE7FBDC046C9BB010077DF7047DE
:10EF800078DF70477ADF70477CDF70477FB50023FA
:10EF900002AC0393283323806933FF33114D638020
:10EFA000E380803BFF3B01AE281C337006F0D4FEAB
:10EFB000291C82B2301CFFF7E7FF80B200280FD176
:10EFC00080208000FFF7DCFF80B2002808D1201CE1
:10EFD000FFF7D8FF80B2002802D1FFF7CFFF80B241
:10EFE00004B070BD141403007EDF704768DF704703
:10EFF00038B500200D1CFFF7B5FB0368DB6A9847A6
:10F000002B78041C142B17D002D8132B05D041E009
:10F01000152B16D0222B37D03CE06B6801221888C4
:10F020001B796468191C5D085B0611405B0F2A4060
:10F03000002C2FD0A0472DE06B6818881979A368A1
:10F040001EE06A6811790B090907090F012902D02E
:10F05000022908D011E0013BDBB20021022B0DD8C0
:10F060000D49C95C0AE00421012B07D0023B58423C
:10F07000434101315B42194000E000211088E36800
:10F08000002B07D0984705E06B6818882369002B90
:10F0900000D09847002038BD1A140300014B18789F
:10F0A0007047C046DD3C0020F0B5314E87B0347863
:10F0B00000960026B44257D11C1C01920D1C071C5F
:10F0C00002F030FEB04201D00B264DE0002C0FD0F4
:10F0D000222003A90394FFF789FF002808D0062601
:10F0E000082841D01138061C7042464104363BE0E6
:10F0F000002302AA101C137001F048FB011EE3D18B
:10F1000001241C4E274030782540A04338436B0033
:10F110000227051C0720BD431D437023019A9D4310
:10F12000024012011543357003AD0C22281C06F075
:10F1300047FB0920104B311C039302ABC01805227A
:10F140002F7106F0B3FA0D48291C01F08FFB00283F
:10F1500007D00726042807D0013E082804D005362A
:10F1600002E0061C009B1C70301C07B0F0BDC046BE
:10F17000DD3C0020162F0020F1EF0100DC3C0020D8
:10F1800008B5074801F03AFC0023984206D007333F
:10F19000042803D0013B082800D00533181C08BD03
:10F1A000DC3C0020002373B501930F4B01AD1B78AD
:10F1B0000E1C291C2B7001F041FE041E04D00423F8
:10F1C00005280FD007330DE0281C311C01F088FB07
:10F1D000231C002806D00723042803D0013B08285D
:10F1E00000D00533181C76BDDC3C002073B5104CF4
:10F1F0000E1C051C211C6846052206F057FA012E3C
:10F2000006D0022E11D1012223781343B34303E029
:10F2100002222378B3439343281C69462370FFF7E7
:10F22000E3FE031E02D00B2300E00223181C76BD70
:10F23000162F002008B5094B1A780923002A0AD096
:10F24000011C074801F084FB0023984203D00333DC
:10F250000E2800D00333181C08BDC046DD3C00203A
:10F26000DC3C002008B501F038FE08BD08B50223DB
:10F270000A1C0B708C330B713F3B4B712D338B7120
:10F280000132043101F000FE08BDA2DF7047A3DFA8
:10F29000704763DF704700000022014B1A6070471F
:10F2A000E03C002010B586B06B46DC1D00232370C7
:10F2B000C15C02AA99540133102BF9D1101C211CF6
:10F2C000FFF7E7FF0023984200D12378181C06B00F
:10F2D00010BD00000122F0B5438A87B00393037884
:10F2E0000192002B41D0264B87181A681D1C0292F0
:10F2F0000022029B9A4217D0112100235143214E34
:10F3000071189C1E012C04D9CC5CA446FC5CA4455D
:10F3100008D10133102BF4D111235A43B618337C92
:10F32000019322E00132E4E7041C381CFFF7BAFF26
:10F330002378061C0190002B01D11234271C029B5C
:10F34000042B12D01124181C60430E4B391C1818C2
:10F35000102206F0ABF92B680A4A5C431719002209
:10F360000133BA70FA703E742B606A46127905ABAD
:10F370009A705888039B00040343181C07B0F0BD23
:10F38000E03C0020E43C0020F0B599B01F1C1EAB0F
:10F39000029102CB09AD1B880190039320AB1B881F
:10F3A000281C049321AB1B78059323AB1E8824AB48
:10F3B0001C7825AB1B78069306ABD91D0A70012279
:10F3C00006F074F930232A781A4211D00AAD0021D0
:10F3D0000322281C06F0F4F90622AB789343043A82
:10F3E00013430E32AB70111C01231943297069704D
:10F3F00011AD00211C22281C06F0E2F909AB1A7895
:10F4000030231340581E83410AA95B4219402A70D9
:10F410006961002E05D0229B002B02D06B602E81EB
:10F420006E81012000230BAD2B800440069BE4007D
:10F430000340E4B21901231C02240B431C43322372
:10F44000059901400C43AC701A421ED0781E042866
:10F450001BD82978233B99430EF0B0FA0305070C1B
:10F460001100012007E001200AE0012001430B40C8
:10F47000302108E0022001430B40102103E002206C
:10F4800001430B4020210B432B700C231A421ED04A
:10F49000781E04281BD86A7803339A430EF08EFA3C
:10F4A0000305070C1100012107E001210AE00121F9
:10F4B0000A431340302208E002210A43134010227D
:10F4C00003E002210A431340202213436B700CAC6B
:10F4D000201C0021142206F073F9029B01980C9362
:10F4E0006B469B8911A923816B461B8A221CA38131
:10F4F0001E9B65602361269BFFF7C7FE80B219B093
:10F50000F0BDF0B589B000930EAB1B88161C0193BB
:10F510000FAB1A7801230F1C02211A400A4302A9DB
:10F520008A70191C1022051C02A81143021C03AC8E
:10F5300001705170201C0021142206F041F902AB29
:10F5400063606B461B88281C23816B469B88211CAB
:10F55000109A0397A3812661FFF799FE80B209B044
:10F56000F0BD000038B50C1C051C2822081C002129
:10F5700006F026F9201C09490B2206F06DFC002339
:10F580000122E372E260AA6863620023226103221F
:10F59000A361E361024B6261236238BD1D14030065
:10F5A0000AD7233C10B5034C8160083404604271D3
:10F5B000036110BD281403001FB503AB5A7000226D
:10F5C00019704179009249001A1C0069022303F066
:10F5D00031FA012005B000BD08B50A1C01733D21B8
:10F5E000FFF7EAFF1E2003F0D7FD08BD70B5041C2D
:10F5F0000D1C0021067BFFF7EFFF192003F0CCFD67
:10F6000007210022201CFFF7D7FF201C3F2180226A
:10F61000002D00D12A1CFFF7CFFF0A2003F0BCFD0C
:10F62000311C201CFFF7D8FF142003F0B5FD70BD7E
:10F63000F0B50F220E2500270126041C85B06D446D
:10F640006A442F70117041790096331C490000699B
:10F6500003F0F0F961790097B14020692A1C331C4E
:10F6600003F00AFA287805B0F0BD000038B5041C94
:10F670000D1C0069274903F0B1F9201C0021FFF798
:10F68000D7FFA02809D1201C0021FFF7A5FF201CCF
:10F690003F212022FFF790FF0BE0FA20800003F0CB
:10F6A0007BFD201C0021FFF7C3FF0023A0282FD1E2
:10F6B000E9E7201C0021FFF7BBFFA02803D00A20A8
:10F6C00003F06AFDF5E76E3803F066FD3E21002287
:10F6D000201CFFF771FF0A2003F05EFD07210022C6
:10F6E000201CFFF769FF3B210222201CFFF764FF6B
:10F6F00000223F21201CFFF75FFF0A2003F04CFD92
:10F70000201C291CFFF768FF142003F045FD01238E
:10F71000181C38BDA0860100F8B50F1C3521161C39
:10F720001D1C069CFFF784FF002F01D083093B704E
:10F73000002E02D083069B0F3370002D02D00307EA
:10F740009B0F2B70002C02D0032318402070F8BDB3
:10F7500008B53421FFF76CFF40B208BDF0B5171CA7
:10F760000F22012585B06A4411704179041C00956F
:10F770001E1C49002B1C006903F05CF90023617911
:10F780000093A94020693A1C331C03F075F9281C2A
:10F7900005B0F0BDF7B50C1C171C00211822061C83
:10F7A00006F00EF800210622684606F009F8201C33
:10F7B0006A460623391CFFF7D1FF6B466A465B7821
:10F7C00010781B02D578034390782D0254790543B5
:10F7D000107924020443142F0CD004D8082F3BD0F6
:10F7E0000E2F1FD053E0282F36D02E2F34D01A2FB3
:10F7F00018D04CE018B210F055FA0022254B0EF04C
:10F80000C9FF3060716028B210F04CFA0022214B21
:10F810000EF0C0FFB060F16020B210F043FA002299
:10F820001C4B30E018B210F03DFA00221A4B0FF0DA
:10F83000EFFB3060716028B210F034FA0022164BF2
:10F840000FF0E6FBB060F16020B210F02BFA00225E
:10F85000114B0FF0DDFB18E018B210F023FA002274
:10F860000E4B0EF097FF3060716028B210F01AFA5C
:10F8700000220A4B0EF08EFFB060F16020B210F053
:10F8800011FA0022054B0EF085FF30617161301CCA
:10F89000FEBDC04600208C400000B03F0000594033
:10F8A00030B5242287B00C1C051C081C002105F073
:10F8B00087FF24232360AB681A2263600323A360BD
:10F8C000002368462361291CFFF764FF0098019913
:10F8D00010F056FA60610298039910F051FAA06195
:10F8E0000498059910F04CFAE061012007B030BD92
:10F8F000031C04CB10B5041C002A00D1036022684D
:10F900009A4204D003480449562203F003FB2068BE
:10F9100010BDC046441403005814030038B500233A
:10F92000C356051C0C1C013304D109480949202287
:10F9300003F0F0FA00210123A0226956D2058B4082
:10F94000002C02D0A121C90000E00349535038BD6A
:10F95000560E0300711403000C0500001FB515219D
:10F96000684603F07EFB01A8162103F07AFB02A88B
:10F97000172103F076FB03A8182103F072FB6846F9
:10F980000121FFF7CBFF01A80021FFF7C7FF02A865
:10F990000021FFF7C3FF03A80121FFF7BFFF962057
:10F9A00003F0FAFB68460021FFF7B8FF01A8012128
:10F9B000FFF7B4FF02A80121FFF7B0FF03A8002161
:10F9C000FFF7ACFF962003F0E7FBD8E770B5051C06
:10F9D0000C1CA0B003F0B6FA291C6846221C09F0E2
:10F9E00095FE051E03DC03F0DBFA20B070BD0A4B68
:10F9F0000A4E1B68002B04D1301C09210B2202F097
:10FA000083FE00246B46301C195D013402F032FE87
:10FA1000AC42F7D1E7E7C0467C410020904400208B
:10FA20000FB407B504A901C90191FFF7CFFF03B0D7
:10FA300008BC04B018477047704770B5041C0368D1
:10FA40005B6A98472368201C1B69002101229847A4
:10FA50002368061C421C04D1201C9B6A9847301C5A
:10FA600010E01B6900210222201C9847051C236816
:10FA7000311C1B690022201C98472368201C9B6AAC
:10FA80009847281C70BD0000084B10B51B68002B60
:10FA90000AD1074C0921201C0B2202F035FE9621C9
:10FAA000201C890102F01AFD10BDC0467C410020D7
:10FAB0009044002008B5031C0020022B0DDD0749EF
:10FAC000033B9B005A585850824204D01368101CC4
:10FAD0005B68984701E00120404208BD343D0020AA
:10FAE00070B50C1C151C022810DC0F4B1B68002B7A
:10FAF00001D1FFF7C9FF6619B44205D021780B4840
:10FB000002F0B8FD0134F7E7281C0BE00338084B7E
:10FB10008000C058002803D003681B68984701E0A4
:10FB20000120404270BDC0467C410020904400202E
:10FB3000343D002010B50C1C02280BDC0C4B1B685C
:10FB4000002B01D1FFF7A0FF0A4802F06FFD2070E3
:10FB500001200BE00338084B8000C058002803D078
:10FB600003689B68984701E00120404210BDC046F1
:10FB70007C41002090440020343D002008B5031C47
:10FB80000120022B0BDD033B054A9B0098580028FF
:10FB900003D00368DB68984701E00120404208BDBC
:10FBA000343D002008B5031C0020022B0BDD033B75
:10FBB00005489B001858002803D003681B69984724
:10FBC00001E00120404208BD343D002008B5022874
:10FBD00004D880239B014B60002005E004F056FE12
:10FBE000092303600120404208BD08B5012004F04C
:10FBF00053FE704708B5FFF7FCFF08BD704770471C
:10FC000008B5FFF7FCFFFFF7F9FFFBF721FE08BD82
:10FC10000C4910B50B681818EFF30882904205D311
:10FC20000C220120084B40421A600AE0074A126881
:10FC3000002A04D0064C2468A2189042F0D2086032
:10FC4000181C10BD1C2F0020B8440020303D00209F
:10FC5000343E002008B5002801D0FFF77FFEFEE704
:10FC600008B5002105F0D0FE08BD7047704708B503
:10FC7000FFF7FBFF08BD08B5FFF7F8FF08BD000060
:10FC8000032310B5027813400022012B0CD0041C72
:10FC9000934204D005480649064A03F03BF9022284
:10FCA000237813432370013A101C10BDF81403008D
:10FCB0001E150300DB020000032310B50278041CAC
:10FCC0001340022B04D006480649074A03F022F9E4
:10FCD000032223789343023A1343237010BDC04696
:10FCE000601503001E150300E302000010B505F0C7
:10FCF0005FFC041E02D1024803F074F9201C10BD01
:10FD00009F15030008B5002801D005F05BFC08BD75
:10FD100038B50C4B0C4C08330360051C201CFFF756
:10FD2000E7FD0023201C094A9958A94201D100216E
:10FD300099508022043352009342F4D1FFF7D8FD4A
:10FD4000281C38BD30160300283D0020343D00201B
:10FD5000F0B585B001913749051C05F0B9FF041EC7
:10FD600002D1FFF791FE61E0281C334905F0B0FF96
:10FD7000002803D1FFF788FE012457E0281C2F49F3
:10FD800005F0A6FF002803D1FFF77EFE02244DE018
:10FD90002B4E0024301CFFF7ABFD301C294FA60072
:10FDA000F359002B05D00134402CF7D1FFF7A0FD0B
:10FDB0003AE001235B42F351FFF79AFD2B783A2B8F
:10FDC00006D1281C204902AA05F00CFF029826E063
:10FDD00002A8291C02F048FD02A802F091FD0028AB
:10FDE00001D1F05120E002A802F074FD002803D0F8
:10FDF00002A802F079FD12E002A802F062FD051EE1
:10FE000001D1F05110E0036802A89F6802F04CFD98
:10FE10000E4A019B011C13401A1C281CB847094BB1
:10FE200003349851002801D101246442201C05B0FC
:10FE3000F0BDC046DF14030024160300E6140300DF
:10FE4000283D0020343D002020160300FFFFFEFF68
:10FE500003210A4802680A430260094802680A430B
:10FE600002600849084A094B9B1A03DD043BC85845
:10FE7000D050FBDC06488047064800472405004078
:10FE8000540500405C270300F82E0020D8370020DE
:10FE9000A5FE010075B10100FEE7FEE7FEE7FEE703
:10FEA000FEE7FEE7344B10B51A78012A19D1334A20
:10FEB0001268120715D1324AE0241168F022081C9A
:10FEC000104021420BD12F490968114209D12E4916
:10FED0002E4A116080212E4A0902116001E030286B
:10FEE000F1D01A78012A0DD124490968090709D1EE
:10FEF000F020234909680140402903D121490968BC
:10FF0000014231D01B68DBB2012B1FD11B4B1B6898
:10FF10001B071BD11A4B1A68F0231A40A02A04D1E0
:10FF2000184A12681A4203D010E0D02A0ED1F7E71F
:10FF3000184B1A68012A03D1C022174B1A6005E03A
:10FF4000164A1A601A68012AFCD1F5E78022A32319
:10FF500001210020D205DB00D150114B9860916047
:10FF60009A68002AFCD005E0C1218020C900C005A4
:10FF70004250C7E710BDC046E00F00F0E40F00F0AC
:10FF8000E80F00F0EC0F00F0DFFF07C004050040B1
:10FF9000186C004000EC064014EC0640759300001D
:10FFA000FC00004008B5031CA022C133FF339B00B6
:10FFB000D2059B589B039B0F033B59424B410221A7
:10FFC000C91A0A4B1B68C340DB070ED5084B1B5CE4
:10FFD000012902D1DB0902D107E05B0605D5054BFB
:10FFE000054A80001B688058984708BD844400205B
:10FFF00064440020383E00203C3E0020F7B5324DDE
:020000022000DC
:10000000041C2B68314EC340DB0709D5335C9A07CB
:1000100004D59B0602D401F0B5F801E001F0A8F97F
:10002000335DDA0701D49B0646D5335D01A99A07F3
:1000300004D59A06D20FD0B200282ED00023032276
:10004000CB708B700A70335D9F06F80F002F14DAA7
:100050004A70201C1E4A01F0B9F80123A3401D4A32
:1000600012681A4221D0335DDA0901D15B061CD532
:10007000201C012101F014F917E0DB069B0FDAB216
:10008000012A01D0032A01D14B7000E04870201CE6
:1000900001A9002201F09AF807E05B070880DB0F56
:1000A000201C8A704B7001F017F80123A3401C1C20
:1000B0002B681C432C6005E00123A3401C1C2B680B
:1000C000A3432B60F7BDC046604400206444002079
:1000D000A5FF01008444002010B5041C01704B1CD6
:1000E00010D0C9B21E2904D907480849442202F099
:1000F00011FF00F0C7FF002201200549A2568B5CCA
:1001000003438B5410BDC0466416030083160300DE
:10011000644400200023C35610B5041C013304D1ED
:100120000D480E494D2202F0F5FE0022A0210C4B95
:10013000A256C905985C8007C30F012B04D1A120EA
:10014000C0000858D04005E0A223DB00CB58D340C4
:10015000181C0123184010BD560E0300831603001F
:100160006444002038B50023C356051C0C1C1F2B0B
:1001700004DD0A480A49912202F0CCFE0321214005
:1001800018242878074D42B2CB00A95CC0B2A14325
:100190001943A954FFF732FF38BDC046E2160300E9
:1001A000831603006444002038B50023C356051CA1
:1001B0000C1C1F2B04DD0A480A49992202F0AAFEF2
:1001C0000121214002242878074D42B24B00A95C4E
:1001D000C0B2A1431943A954FFF710FF38BDC04670
:1001E000E216030083160300644400200023164A2D
:1001F00030B51360A022A1201449D2008B50144BBB
:10020000C0005A7C0C58DD685000445301321C7CFD
:10021000D2B25A740120944215D99A685268002AC1
:1002200002D15868986001E09A60021C9B681868C7
:10023000084BC850A0200123C0000B500020824270
:1002400001D0024A136030BD0071004000700040D0
:10025000B83E0020040500001FB5144CE1680029D9
:1002600010D1134BC22019600123124A8000135091
:10027000F930FF301150A121C900525801A8037074
:1002800082800FE0FFF7B2FF00280ED0C2220123C8
:10029000084992008B50002201A80270E268426077
:1002A000227C0281A374236898471FBDB83E0020BA
:1002B00000710040007000404CDF70470120054A8B
:1002C00008B513785840044B10701B68002B00D001
:1002D000984708BDD03E0020CC3E0020134B70B59F
:1002E0001A608024C022124B5200A4039C50421E6C
:1002F000022A0CD802280AD0C525AD005E590D4A45
:1003000080033240104358515A59520401D40A48CC
:100310000BE00A4A5068002803D013681C4314609D
:1003200000E01C600320FFF7C7FF70BDCC3E00203B
:1003300000E100E0FF00FFFF0220000088440020F1
:100340007FDF704786DF7047A7DF7047A9DF704700
:10035000AADF7047002070470020704700207047D8
:100360000020704700207047002070470020704731
:10037000F0B585B0041C0E1C02AA8178214801F05A
:1003800075FD00283CD10C2361781F4A4B43D318DC
:100390009B7A1E4F01925B0605D4022E03D01C4FA0
:1003A000012E00D01B4F1C25A1781B4B694302A8CE
:1003B00059182A1C0023B847002813D1022E1FD039
:1003C0000C234021627802A85343019AD3189A7AE9
:1003D0008A439A726178114B69432A1C59182B1C65
:1003E000B84701E0022E0BD00C23227802A8534319
:1003F0000B4A211CD3189B7A0A4A9B009B589847AA
:1004000005B0F0BDF03F0020DA3E0020351F0200AD
:10041000B91E020055030200E83E0020AC3F002058
:10042000E03F002010170300F7B518220190437831
:1004300029485A4381184C68284F002C0FD00C21B2
:1004400059437918897A4DB2002D07DA490605D447
:10045000151C0835A6B24519145802E00024261CC4
:10046000251C0C225343FB181889291C321C231C01
:10047000FFF76CFF0B2818D10C22019B291C5B781D
:100480005343FB181889321C0123FFF75FFF002834
:100490000ED00C21019B124A5B784B43FF18388920
:1004A000FFF752FF00280AD115E0002803D100E031
:1004B0000124002000E00B48012C0CD1E9E70222C6
:1004C000094BC318934303D0082801D0112801D148
:1004D000044800E00020FEBDC83F0020DA3E0020B6
:1004E000FFFF000041800000FECFFFFF08B5FFF7CF
:1004F0009BFF08BDF0B589B002AB9D1D0E230C22F9
:10050000019000912B804B7804A95343224AD318C1
:1005100018892A1C0323FFF71BFF002838D118264F
:10052000009B1E4F58782A8870430830381804A959
:1005300005F094F8009B3C1C5B7800280DD10C2240
:100540005A4315498A18917A0222114020D17343E7
:10055000321CF81805F034F91AE05E43BE197268CF
:100560000F4F002A00D10F4F182603227343E25089
:100570002A88E11808334A60E01804A905F096F8C3
:10058000009B01985978321C714338236118B84791
:10059000002009B0F0BDC046DA3E0020C83F002070
:1005A000351F0200B91E020008B5FFF7A3FF08BD02
:1005B00070B51824031C4878094D60430E1C281898
:1005C000191C221C382301F0F3FC002806D1737893
:1005D0005C432C196368013300D1606070BDC04674
:1005E000C83F002008B5FFF7E3FF08BDF0B5444C55
:1005F00095B02468002C00D180E01A9C542C7DD842
:100600000024161CFF221D1C03AB5A709A70DA706E
:100610001C701A9B06AF009101903C700B950A93D9
:10062000A1B2384804AA01F021FC002809D10198A0
:1006300004A9082205F012F8002802D103AB9C702F
:1006400002E00134072CEBD103ACA178FF2955D08F
:10065000009B032B0AD11A9A06AB542A01D1343AD3
:1006600000E040221A701A78032139E0264BEB1A79
:10067000C32B10D8254B002E04D101228A401868C4
:1006800010423BD001228A40196891432022196010
:1006900006AB1A701EE01E4BEB1A1B2B08D820234A
:1006A00006AA1370002262700CAA0B920A9311E042
:1006B00018482D1A172D21D830233B700023637062
:1006C0000133E370144B997A0223194002D11822A6
:1006D00005F076F8009A06AB022A0CD101211A78AF
:1006E0000A431A7009AB0793054B201C1B6806A927
:1006F000321C984702E01A780221F1E715B0F0BDEC
:10070000E03F0020F03F0020E83E0020EC3F0020CA
:10071000AC3F0020C83F0020DA3E002070B51C240A
:1007200044430D4E051C30190021341906221130A6
:1007300005F046F8201C0021102205F041F80120A8
:10074000FF23A840054A2374A376013BFF3B238384
:1007500013688343136070BDE83E0020EC3F002027
:1007600037B581B2051C6A46074801F07FFB041EBD
:1007700008D16846542101F067FC041E02D1281CF0
:10078000FFF7CCFF201C3EBDF03F0020F0B585B048
:10079000002856D000252C4B041C1D605D729D72F4
:1007A00001232A48291C8372023B07220381C3725A
:1007B00005F006F82648291C182205F001F8281C27
:1007C000FFF7ACFFFF22234BEA540135072DF6D18A
:1007D0006A465423204F9380204B6846391CD580AD
:1007E000009301F0E1FA3E1C00282BD101231C4D9F
:1007F00024782B70002C1AD1A1B2301C02AA01F06F
:1008000035FB071E0CD11C22131C6343154802A99B
:10081000C0183B1C01F0CCFB002804D02F7011E065
:1008200000232B700EE00134072CE5D10AE06B4663
:100830006A46DB889188381C594389B201F004FC70
:1008400000E0094805B0F0BDE03F0020DA3E00209E
:10085000C83F0020D13E0020F03F0020ED050200FF
:10086000D83E0020E83E00200E800000F8B5174B6F
:100870001B78002B24D0002824D0002922D00B681C
:10088000002B1FD0124D2C68002C1DD1061C281CDB
:100890000F1C08C00531052204F008FF3B79022037
:1008A000AB72012304212A7A9A4302438A432A72B3
:1008B000EA79134303438B43EB71201C347004E04B
:1008C000044802E0044800E00448F8BDD83E002097
:1008D000E03F0020088000000E800000048000003F
:1008E000154B1B78002B22D000281ED000291CD0CD
:1008F0000378002B1BD1114B1B68002B17D04278BB
:10090000002A16D10E4B9B7A012B12D024201840BE
:1009100003D00123101C0B700CE05BB2002B02DA39
:1009200002230B7006E0087004E0064802E0064867
:1009300000E006487047C046D83E0020E03F002057
:10094000DA3E00200E8000000880000010800000C9
:10095000234BF0B51B78002B25D0002821D000298F
:100960001FD00B68002B1CD08B68002B19D003788C
:10097000002B18D11B4A1268002A14D01A1C181C0C
:10098000194D1035194CE67AB3420ED1A47AA4075A
:100990000BD501331C35072BF4D108710A730020E5
:1009A0001CE013481AE0134818E00C7BA2420AD25C
:1009B000AC7AE40707D42E1C8F689400103EE651F1
:1009C0000D4CA35401320C79A042E2D2AC7AA407B8
:1009D000DFD40E688400A5510130DAE7F0BDC046CF
:1009E000D83E0020E03F0020E83E0020DA3E002014
:1009F0000E80000008800000D13E0020104B10B592
:100A00001B78002B19D0002815D00478002C14D1A5
:100A10000C4B1B68002B10D0201C1C2363430A4A7C
:100A2000D3189B7EFF2B02D0201CFFF799FE0134C8
:100A3000072CF2D102E0054800E0054810BDC04691
:100A4000D83E0020E03F0020E83E00200E8000005D
:100A50000880000013B5041C81786A460B4801F039
:100A600005FA002810D11C236078094A58436946CA
:100A700010181A1C01F09CFA064B074A9B7A68462C
:100A80009B009B58211C984713BDC046F03F002097
:100A9000AC3F0020E03F002020170300FF23F0B50B
:100AA000C44A91B012780393002A00D1BDE1C24A32
:100AB00011680192002900D1B7E104AC05AF637061
:100AC000A370E370031D7B602C2300223B8103880D
